{
  "_format": "hh-sol-artifact-1",
  "contractName": "KnowledgeBit",
  "sourceName": "contracts/KnowledgeBit.sol",
  "abi": [
    {
      "inputs": [
        {
          "internalType": "address",
          "name": "claimContractAddress",
          "type": "address"
        }
      ],
      "stateMutability": "nonpayable",
      "type": "constructor"
    },
    {
      "anonymous": false,
      "inputs": [
        {
          "indexed": true,
          "internalType": "address",
          "name": "owner",
          "type": "address"
        },
        {
          "indexed": true,
          "internalType": "address",
          "name": "approved",
          "type": "address"
        },
        {
          "indexed": true,
          "internalType": "uint256",
          "name": "tokenId",
          "type": "uint256"
        }
      ],
      "name": "Approval",
      "type": "event"
    },
    {
      "anonymous": false,
      "inputs": [
        {
          "indexed": true,
          "internalType": "address",
          "name": "owner",
          "type": "address"
        },
        {
          "indexed": true,
          "internalType": "address",
          "name": "operator",
          "type": "address"
        },
        {
          "indexed": false,
          "internalType": "bool",
          "name": "approved",
          "type": "bool"
        }
      ],
      "name": "ApprovalForAll",
      "type": "event"
    },
    {
      "anonymous": false,
      "inputs": [
        {
          "indexed": false,
          "internalType": "uint256",
          "name": "",
          "type": "uint256"
        },
        {
          "indexed": false,
          "internalType": "address",
          "name": "",
          "type": "address"
        }
      ],
      "name": "Downvote",
      "type": "event"
    },
    {
      "anonymous": false,
      "inputs": [
        {
          "indexed": true,
          "internalType": "address",
          "name": "from",
          "type": "address"
        },
        {
          "indexed": true,
          "internalType": "address",
          "name": "to",
          "type": "address"
        },
        {
          "indexed": true,
          "internalType": "uint256",
          "name": "tokenId",
          "type": "uint256"
        }
      ],
      "name": "Transfer",
      "type": "event"
    },
    {
      "anonymous": false,
      "inputs": [
        {
          "indexed": false,
          "internalType": "uint256",
          "name": "",
          "type": "uint256"
        },
        {
          "indexed": false,
          "internalType": "address",
          "name": "",
          "type": "address"
        }
      ],
      "name": "Unvote",
      "type": "event"
    },
    {
      "anonymous": false,
      "inputs": [
        {
          "indexed": false,
          "internalType": "uint256",
          "name": "",
          "type": "uint256"
        },
        {
          "indexed": false,
          "internalType": "address",
          "name": "",
          "type": "address"
        }
      ],
      "name": "Upvote",
      "type": "event"
    },
    {
      "inputs": [
        {
          "internalType": "address",
          "name": "to",
          "type": "address"
        },
        {
          "internalType": "uint256",
          "name": "tokenId",
          "type": "uint256"
        }
      ],
      "name": "approve",
      "outputs": [],
      "stateMutability": "nonpayable",
      "type": "function"
    },
    {
      "inputs": [
        {
          "internalType": "address",
          "name": "owner",
          "type": "address"
        }
      ],
      "name": "balanceOf",
      "outputs": [
        {
          "internalType": "uint256",
          "name": "",
          "type": "uint256"
        }
      ],
      "stateMutability": "view",
      "type": "function"
    },
    {
      "inputs": [
        {
          "internalType": "uint256",
          "name": "tokenId",
          "type": "uint256"
        }
      ],
      "name": "downvote",
      "outputs": [],
      "stateMutability": "nonpayable",
      "type": "function"
    },
    {
      "inputs": [
        {
          "internalType": "uint256",
          "name": "tokenId",
          "type": "uint256"
        }
      ],
      "name": "downvotesCountOf",
      "outputs": [
        {
          "internalType": "uint256",
          "name": "",
          "type": "uint256"
        }
      ],
      "stateMutability": "view",
      "type": "function"
    },
    {
      "inputs": [
        {
          "internalType": "uint256",
          "name": "tokenId",
          "type": "uint256"
        }
      ],
      "name": "getApproved",
      "outputs": [
        {
          "internalType": "address",
          "name": "",
          "type": "address"
        }
      ],
      "stateMutability": "view",
      "type": "function"
    },
    {
      "inputs": [
        {
          "internalType": "address",
          "name": "owner",
          "type": "address"
        },
        {
          "internalType": "address",
          "name": "operator",
          "type": "address"
        }
      ],
      "name": "isApprovedForAll",
      "outputs": [
        {
          "internalType": "bool",
          "name": "",
          "type": "bool"
        }
      ],
      "stateMutability": "view",
      "type": "function"
    },
    {
      "inputs": [
        {
          "internalType": "string",
          "name": "metadataURI",
          "type": "string"
        },
        {
          "internalType": "uint256",
          "name": "tokenId",
          "type": "uint256"
        },
        {
          "internalType": "uint256",
          "name": "claimTokenId",
          "type": "uint256"
        }
      ],
      "name": "mintToken",
      "outputs": [],
      "stateMutability": "nonpayable",
      "type": "function"
    },
    {
      "inputs": [],
      "name": "name",
      "outputs": [
        {
          "internalType": "string",
          "name": "",
          "type": "string"
        }
      ],
      "stateMutability": "view",
      "type": "function"
    },
    {
      "inputs": [
        {
          "internalType": "uint256",
          "name": "tokenId",
          "type": "uint256"
        }
      ],
      "name": "ownerOf",
      "outputs": [
        {
          "internalType": "address",
          "name": "",
          "type": "address"
        }
      ],
      "stateMutability": "view",
      "type": "function"
    },
    {
      "inputs": [
        {
          "internalType": "address",
          "name": "from",
          "type": "address"
        },
        {
          "internalType": "address",
          "name": "to",
          "type": "address"
        },
        {
          "internalType": "uint256",
          "name": "tokenId",
          "type": "uint256"
        }
      ],
      "name": "safeTransferFrom",
      "outputs": [],
      "stateMutability": "nonpayable",
      "type": "function"
    },
    {
      "inputs": [
        {
          "internalType": "address",
          "name": "from",
          "type": "address"
        },
        {
          "internalType": "address",
          "name": "to",
          "type": "address"
        },
        {
          "internalType": "uint256",
          "name": "tokenId",
          "type": "uint256"
        },
        {
          "internalType": "bytes",
          "name": "_data",
          "type": "bytes"
        }
      ],
      "name": "safeTransferFrom",
      "outputs": [],
      "stateMutability": "nonpayable",
      "type": "function"
    },
    {
      "inputs": [
        {
          "internalType": "address",
          "name": "operator",
          "type": "address"
        },
        {
          "internalType": "bool",
          "name": "approved",
          "type": "bool"
        }
      ],
      "name": "setApprovalForAll",
      "outputs": [],
      "stateMutability": "nonpayable",
      "type": "function"
    },
    {
      "inputs": [
        {
          "internalType": "uint256",
          "name": "tokenId",
          "type": "uint256"
        },
        {
          "internalType": "string",
          "name": "metadataURI",
          "type": "string"
        }
      ],
      "name": "setTokenURI",
      "outputs": [],
      "stateMutability": "nonpayable",
      "type": "function"
    },
    {
      "inputs": [
        {
          "internalType": "bytes4",
          "name": "interfaceId",
          "type": "bytes4"
        }
      ],
      "name": "supportsInterface",
      "outputs": [
        {
          "internalType": "bool",
          "name": "",
          "type": "bool"
        }
      ],
      "stateMutability": "view",
      "type": "function"
    },
    {
      "inputs": [],
      "name": "symbol",
      "outputs": [
        {
          "internalType": "string",
          "name": "",
          "type": "string"
        }
      ],
      "stateMutability": "view",
      "type": "function"
    },
    {
      "inputs": [
        {
          "internalType": "uint256",
          "name": "tokenId",
          "type": "uint256"
        }
      ],
      "name": "tokenURI",
      "outputs": [
        {
          "internalType": "string",
          "name": "",
          "type": "string"
        }
      ],
      "stateMutability": "view",
      "type": "function"
    },
    {
      "inputs": [
        {
          "internalType": "address",
          "name": "from",
          "type": "address"
        },
        {
          "internalType": "address",
          "name": "to",
          "type": "address"
        },
        {
          "internalType": "uint256",
          "name": "tokenId",
          "type": "uint256"
        }
      ],
      "name": "transferFrom",
      "outputs": [],
      "stateMutability": "nonpayable",
      "type": "function"
    },
    {
      "inputs": [
        {
          "internalType": "uint256",
          "name": "tokenId",
          "type": "uint256"
        }
      ],
      "name": "unvote",
      "outputs": [],
      "stateMutability": "nonpayable",
      "type": "function"
    },
    {
      "inputs": [
        {
          "internalType": "uint256",
          "name": "tokenId",
          "type": "uint256"
        }
      ],
      "name": "upvote",
      "outputs": [],
      "stateMutability": "nonpayable",
      "type": "function"
    },
    {
      "inputs": [
        {
          "internalType": "uint256",
          "name": "tokenId",
          "type": "uint256"
        }
      ],
      "name": "upvotesCountOf",
      "outputs": [
        {
          "internalType": "uint256",
          "name": "",
          "type": "uint256"
        }
      ],
      "stateMutability": "view",
      "type": "function"
    }
  ],
  "bytecode": "0x60806040523480156200001157600080fd5b5060405162001ed838038062001ed8833981016040819052620000349162000194565b604080518082018252601c81527f4672616374616c20466c6f7773204b6e6f776c6564676520426974730000000060208083019182528351808501909452600484527f46464b4200000000000000000000000000000000000000000000000000000000908401528151919291620000ae91600091620000ee565b508051620000c4906001906020840190620000ee565b5050600b80546001600160a01b0319166001600160a01b039390931692909217909155506200021c565b828054620000fc90620001c6565b90600052602060002090601f0160209004810192826200012057600085556200016b565b82601f106200013b57805160ff19168380011785556200016b565b828001600101855582156200016b579182015b828111156200016b5782518255916020019190600101906200014e565b50620001799291506200017d565b5090565b5b808211156200017957600081556001016200017e565b600060208284031215620001a757600080fd5b81516001600160a01b0381168114620001bf57600080fd5b9392505050565b600181811c90821680620001db57607f821691505b6020821081141562000216577f4e487b7100000000000000000000000000000000000000000000000000000000600052602260045260246000fd5b50919050565b611cac806200022c6000396000f3fe608060405234801561001057600080fd5b506004361061012c5760003560e01c80636352211e116100ad578063c87b56dd11610071578063c87b56dd1461028f578063d6279394146102a2578063e3765620146102c2578063e985e9c5146102d5578063f31fdad41461031157600080fd5b80636352211e1461023b57806370a082311461024e57806395d89b4114610261578063a22cb46514610269578063b88d4fde1461027c57600080fd5b8063162094c4116100f4578063162094c4146101c157806323b872dd146101d457806331bc1ef1146101e757806342842e0e1461021557806351ec42851461022857600080fd5b806301ddf0701461013157806301ffc9a71461014657806306fdde031461016e578063081812fc14610183578063095ea7b3146101ae575b600080fd5b61014461013f3660046116d8565b610324565b005b61015961015436600461170a565b61046a565b60405190151581526020015b60405180910390f35b6101766104bc565b604051610165919061177f565b6101966101913660046116d8565b61054e565b6040516001600160a01b039091168152602001610165565b6101446101bc3660046117ae565b6105d6565b6101446101cf366004611884565b6106ec565b6101446101e23660046118cb565b6106fa565b6102076101f53660046116d8565b60009081526009602052604090205490565b604051908152602001610165565b6101446102233660046118cb565b61072b565b6101446102363660046116d8565b610746565b6101966102493660046116d8565b61082d565b61020761025c366004611907565b6108a4565b61017661092b565b610144610277366004611922565b61093a565b61014461028a36600461195e565b610945565b61017661029d3660046116d8565b61097d565b6102076102b03660046116d8565b6000908152600a602052604090205490565b6101446102d03660046119da565b610b03565b6101596102e3366004611a28565b6001600160a01b03918216600090815260056020908152604080832093909416825291909152205460ff1690565b61014461031f3660046116d8565b610b87565b6000818152600760209081526040808320338452909152902054600114156103a75760405162461bcd60e51b815260206004820152602b60248201527f596f75206861766520616c7265616479207570766f7465642074686973206b6e60448201526a1bdddb195919d948189a5d60aa1b60648201526084015b60405180910390fd5b600081815260076020908152604080832033845290915290205460001914156103ef5760008181526009602052604081208054600192906103e9908490611a71565b90915550505b60008181526007602090815260408083203384528252808320600190819055848452600a9092528220805491929091610429908490611a88565b9091555050604080518281523360208201527fa4d8be8b7b0fbab6a292b3ea4fb906ce252b50be33f9a0b112ae11240bd1d74191015b60405180910390a150565b60006001600160e01b031982166380ac58cd60e01b148061049b57506001600160e01b03198216635b5e139f60e01b145b806104b657506301ffc9a760e01b6001600160e01b03198316145b92915050565b6060600080546104cb90611aa0565b80601f01602080910402602001604051908101604052809291908181526020018280546104f790611aa0565b80156105445780601f1061051957610100808354040283529160200191610544565b820191906000526020600020905b81548152906001019060200180831161052757829003601f168201915b5050505050905090565b600061055982610cc2565b6105ba5760405162461bcd60e51b815260206004820152602c60248201527f4552433732313a20617070726f76656420717565727920666f72206e6f6e657860448201526b34b9ba32b73a103a37b5b2b760a11b606482015260840161039e565b506000908152600460205260409020546001600160a01b031690565b60006105e18261082d565b9050806001600160a01b0316836001600160a01b0316141561064f5760405162461bcd60e51b815260206004820152602160248201527f4552433732313a20617070726f76616c20746f2063757272656e74206f776e656044820152603960f91b606482015260840161039e565b336001600160a01b038216148061066b575061066b81336102e3565b6106dd5760405162461bcd60e51b815260206004820152603860248201527f4552433732313a20617070726f76652063616c6c6572206973206e6f74206f7760448201527f6e6572206e6f7220617070726f76656420666f7220616c6c0000000000000000606482015260840161039e565b6106e78383610cdf565b505050565b6106f68282610d4d565b5050565b6107043382610dd8565b6107205760405162461bcd60e51b815260040161039e90611adb565b6106e7838383610ec1565b6106e783838360405180602001604052806000815250610945565b600081815260076020908152604080832033845290915290205460011415610792576000818152600a60205260408120805460019290610787908490611a71565b909155506107da9050565b600081815260076020908152604080832033845290915290205460001914156107da5760008181526009602052604081208054600192906107d4908490611a71565b90915550505b600081815260076020908152604080832033808552908352818420939093558051848152918201929092527f67b4809be09cc61bcf7f8c0c4cd56779c64ec74c94f37e24b622417546be5b69910161045f565b6000818152600260205260408120546001600160a01b0316806104b65760405162461bcd60e51b815260206004820152602960248201527f4552433732313a206f776e657220717565727920666f72206e6f6e657869737460448201526832b73a103a37b5b2b760b91b606482015260840161039e565b60006001600160a01b03821661090f5760405162461bcd60e51b815260206004820152602a60248201527f4552433732313a2062616c616e636520717565727920666f7220746865207a65604482015269726f206164647265737360b01b606482015260840161039e565b506001600160a01b031660009081526003602052604090205490565b6060600180546104cb90611aa0565b6106f6338383611068565b61094f3383610dd8565b61096b5760405162461bcd60e51b815260040161039e90611adb565b61097784848484611137565b50505050565b606061098882610cc2565b6109ee5760405162461bcd60e51b815260206004820152603160248201527f45524337323155524953746f726167653a2055524920717565727920666f72206044820152703737b732bc34b9ba32b73a103a37b5b2b760791b606482015260840161039e565b60008281526006602052604081208054610a0790611aa0565b80601f0160208091040260200160405190810160405280929190818152602001828054610a3390611aa0565b8015610a805780601f10610a5557610100808354040283529160200191610a80565b820191906000526020600020905b815481529060010190602001808311610a6357829003601f168201915b505050505090506000610aad604080518082019091526007815266697066733a2f2f60c81b602082015290565b9050805160001415610ac0575092915050565b815115610af2578082604051602001610ada929190611b2c565b60405160208183030381529060405292505050919050565b610afb8461116a565b949350505050565b610b0d3383611251565b610b178284610d4d565b600b54604051633100e80f60e21b815260048101839052602481018490523360448201526001600160a01b039091169063c403a03c90606401600060405180830381600087803b158015610b6a57600080fd5b505af1158015610b7e573d6000803e3d6000fd5b50505050505050565b60008181526007602090815260408083203384529091529020546000191415610c085760405162461bcd60e51b815260206004820152602d60248201527f596f75206861766520616c726561647920646f776e766f74656420746869732060448201526c1adb9bdddb195919d948189a5d609a1b606482015260840161039e565b600081815260076020908152604080832033845290915290205460011415610c4f576000818152600a60205260408120805460019290610c49908490611a71565b90915550505b60008181526007602090815260408083203384528252808320600019905583835260099091528120805460019290610c88908490611a88565b9091555050604080518281523360208201527f08776b31d6bfc3702a1f6697e8dd4ef702045156744ab2d690b6b1c7af5826fe910161045f565b6000908152600260205260409020546001600160a01b0316151590565b600081815260046020526040902080546001600160a01b0319166001600160a01b0384169081179091558190610d148261082d565b6001600160a01b03167f8c5be1e5ebec7d5bd14f71427d1e84f3dd0314c0f7b2291e5b200ac8c7c3b92560405160405180910390a45050565b610d5682610cc2565b610db95760405162461bcd60e51b815260206004820152602e60248201527f45524337323155524953746f726167653a2055524920736574206f66206e6f6e60448201526d32bc34b9ba32b73a103a37b5b2b760911b606482015260840161039e565b600082815260066020908152604090912082516106e79284019061163f565b6000610de382610cc2565b610e445760405162461bcd60e51b815260206004820152602c60248201527f4552433732313a206f70657261746f7220717565727920666f72206e6f6e657860448201526b34b9ba32b73a103a37b5b2b760a11b606482015260840161039e565b6000610e4f8361082d565b9050806001600160a01b0316846001600160a01b03161480610e9657506001600160a01b0380821660009081526005602090815260408083209388168352929052205460ff165b80610afb5750836001600160a01b0316610eaf8461054e565b6001600160a01b031614949350505050565b826001600160a01b0316610ed48261082d565b6001600160a01b031614610f385760405162461bcd60e51b815260206004820152602560248201527f4552433732313a207472616e736665722066726f6d20696e636f72726563742060448201526437bbb732b960d91b606482015260840161039e565b6001600160a01b038216610f9a5760405162461bcd60e51b8152602060048201526024808201527f4552433732313a207472616e7366657220746f20746865207a65726f206164646044820152637265737360e01b606482015260840161039e565b610fa583838361126b565b610fb0600082610cdf565b6001600160a01b0383166000908152600360205260408120805460019290610fd9908490611a71565b90915550506001600160a01b0382166000908152600360205260408120805460019290611007908490611a88565b909155505060008181526002602052604080822080546001600160a01b0319166001600160a01b0386811691821790925591518493918716917fddf252ad1be2c89b69c2b068fc378daa952ba7f163c4a11628f55a4df523b3ef91a4505050565b816001600160a01b0316836001600160a01b031614156110ca5760405162461bcd60e51b815260206004820152601960248201527f4552433732313a20617070726f766520746f2063616c6c657200000000000000604482015260640161039e565b6001600160a01b03838116600081815260056020908152604080832094871680845294825291829020805460ff191686151590811790915591519182527f17307eab39ab6107e8899845ad3d59bd9653f200f220920489ca2b5937696c31910160405180910390a3505050565b611142848484610ec1565b61114e848484846112c2565b6109775760405162461bcd60e51b815260040161039e90611b5b565b606061117582610cc2565b6111d95760405162461bcd60e51b815260206004820152602f60248201527f4552433732314d657461646174613a2055524920717565727920666f72206e6f60448201526e3732bc34b9ba32b73a103a37b5b2b760891b606482015260840161039e565b60006111ff604080518082019091526007815266697066733a2f2f60c81b602082015290565b9050600081511161121f576040518060200160405280600081525061124a565b80611229846113cf565b60405160200161123a929190611b2c565b6040516020818303038152906040525b9392505050565b6106f68282604051806020016040528060008152506114cd565b6001600160a01b038316156106e75760405162461bcd60e51b815260206004820152601960248201527f546f6b656e207472616e7366657220697320626c6f636b656400000000000000604482015260640161039e565b60006001600160a01b0384163b156113c457604051630a85bd0160e11b81526001600160a01b0385169063150b7a0290611306903390899088908890600401611bad565b602060405180830381600087803b15801561132057600080fd5b505af1925050508015611350575060408051601f3d908101601f1916820190925261134d91810190611bea565b60015b6113aa573d80801561137e576040519150601f19603f3d011682016040523d82523d6000602084013e611383565b606091505b5080516113a25760405162461bcd60e51b815260040161039e90611b5b565b805181602001fd5b6001600160e01b031916630a85bd0160e11b149050610afb565b506001949350505050565b6060816113f35750506040805180820190915260018152600360fc1b602082015290565b8160005b811561141d578061140781611c07565b91506114169050600a83611c38565b91506113f7565b60008167ffffffffffffffff811115611438576114386117d8565b6040519080825280601f01601f191660200182016040528015611462576020820181803683370190505b5090505b8415610afb57611477600183611a71565b9150611484600a86611c4c565b61148f906030611a88565b60f81b8183815181106114a4576114a4611c60565b60200101906001600160f81b031916908160001a9053506114c6600a86611c38565b9450611466565b6114d78383611500565b6114e460008484846112c2565b6106e75760405162461bcd60e51b815260040161039e90611b5b565b6001600160a01b0382166115565760405162461bcd60e51b815260206004820181905260248201527f4552433732313a206d696e7420746f20746865207a65726f2061646472657373604482015260640161039e565b61155f81610cc2565b156115ac5760405162461bcd60e51b815260206004820152601c60248201527f4552433732313a20746f6b656e20616c7265616479206d696e74656400000000604482015260640161039e565b6115b86000838361126b565b6001600160a01b03821660009081526003602052604081208054600192906115e1908490611a88565b909155505060008181526002602052604080822080546001600160a01b0319166001600160a01b03861690811790915590518392907fddf252ad1be2c89b69c2b068fc378daa952ba7f163c4a11628f55a4df523b3ef908290a45050565b82805461164b90611aa0565b90600052602060002090601f01602090048101928261166d57600085556116b3565b82601f1061168657805160ff19168380011785556116b3565b828001600101855582156116b3579182015b828111156116b3578251825591602001919060010190611698565b506116bf9291506116c3565b5090565b5b808211156116bf57600081556001016116c4565b6000602082840312156116ea57600080fd5b5035919050565b6001600160e01b03198116811461170757600080fd5b50565b60006020828403121561171c57600080fd5b813561124a816116f1565b60005b8381101561174257818101518382015260200161172a565b838111156109775750506000910152565b6000815180845261176b816020860160208601611727565b601f01601f19169290920160200192915050565b60208152600061124a6020830184611753565b80356001600160a01b03811681146117a957600080fd5b919050565b600080604083850312156117c157600080fd5b6117ca83611792565b946020939093013593505050565b634e487b7160e01b600052604160045260246000fd5b600067ffffffffffffffff80841115611809576118096117d8565b604051601f8501601f19908116603f01168101908282118183101715611831576118316117d8565b8160405280935085815286868601111561184a57600080fd5b858560208301376000602087830101525050509392505050565b600082601f83011261187557600080fd5b61124a838335602085016117ee565b6000806040838503121561189757600080fd5b82359150602083013567ffffffffffffffff8111156118b557600080fd5b6118c185828601611864565b9150509250929050565b6000806000606084860312156118e057600080fd5b6118e984611792565b92506118f760208501611792565b9150604084013590509250925092565b60006020828403121561191957600080fd5b61124a82611792565b6000806040838503121561193557600080fd5b61193e83611792565b91506020830135801515811461195357600080fd5b809150509250929050565b6000806000806080858703121561197457600080fd5b61197d85611792565b935061198b60208601611792565b925060408501359150606085013567ffffffffffffffff8111156119ae57600080fd5b8501601f810187136119bf57600080fd5b6119ce878235602084016117ee565b91505092959194509250565b6000806000606084860312156119ef57600080fd5b833567ffffffffffffffff811115611a0657600080fd5b611a1286828701611864565b9660208601359650604090950135949350505050565b60008060408385031215611a3b57600080fd5b611a4483611792565b9150611a5260208401611792565b90509250929050565b634e487b7160e01b600052601160045260246000fd5b600082821015611a8357611a83611a5b565b500390565b60008219821115611a9b57611a9b611a5b565b500190565b600181811c90821680611ab457607f821691505b60208210811415611ad557634e487b7160e01b600052602260045260246000fd5b50919050565b60208082526031908201527f4552433732313a207472616e736665722063616c6c6572206973206e6f74206f6040820152701ddb995c881b9bdc88185c1c1c9bdd9959607a1b606082015260800190565b60008351611b3e818460208801611727565b835190830190611b52818360208801611727565b01949350505050565b60208082526032908201527f4552433732313a207472616e7366657220746f206e6f6e20455243373231526560408201527131b2b4bb32b91034b6b83632b6b2b73a32b960711b606082015260800190565b6001600160a01b0385811682528416602082015260408101839052608060608201819052600090611be090830184611753565b9695505050505050565b600060208284031215611bfc57600080fd5b815161124a816116f1565b6000600019821415611c1b57611c1b611a5b565b5060010190565b634e487b7160e01b600052601260045260246000fd5b600082611c4757611c47611c22565b500490565b600082611c5b57611c5b611c22565b500690565b634e487b7160e01b600052603260045260246000fdfea264697066735822122086ef2f07afc4efc8fe941ee2ec205ed6a97a4e8b97bc19f2e12f88ac832b479e64736f6c63430008090033",
  "linkReferences": {},
  "deployedLinkReferences": {}
}