{
  "_format": "hh-sol-artifact-1",
  "contractName": "Argument",
  "sourceName": "contracts/Argument.sol",
  "abi": [
    {
      "inputs": [
        {
          "internalType": "address",
          "name": "claimContractAddress",
          "type": "address"
        }
      ],
      "stateMutability": "nonpayable",
      "type": "constructor"
    },
    {
      "anonymous": false,
      "inputs": [
        {
          "indexed": false,
          "internalType": "uint256",
          "name": "",
          "type": "uint256"
        },
        {
          "indexed": false,
          "internalType": "uint256",
          "name": "",
          "type": "uint256"
        },
        {
          "indexed": false,
          "internalType": "address",
          "name": "",
          "type": "address"
        }
      ],
      "name": "AddComment",
      "type": "event"
    },
    {
      "anonymous": false,
      "inputs": [
        {
          "indexed": true,
          "internalType": "address",
          "name": "owner",
          "type": "address"
        },
        {
          "indexed": true,
          "internalType": "address",
          "name": "approved",
          "type": "address"
        },
        {
          "indexed": true,
          "internalType": "uint256",
          "name": "tokenId",
          "type": "uint256"
        }
      ],
      "name": "Approval",
      "type": "event"
    },
    {
      "anonymous": false,
      "inputs": [
        {
          "indexed": true,
          "internalType": "address",
          "name": "owner",
          "type": "address"
        },
        {
          "indexed": true,
          "internalType": "address",
          "name": "operator",
          "type": "address"
        },
        {
          "indexed": false,
          "internalType": "bool",
          "name": "approved",
          "type": "bool"
        }
      ],
      "name": "ApprovalForAll",
      "type": "event"
    },
    {
      "anonymous": false,
      "inputs": [
        {
          "indexed": true,
          "internalType": "address",
          "name": "from",
          "type": "address"
        },
        {
          "indexed": true,
          "internalType": "address",
          "name": "to",
          "type": "address"
        },
        {
          "indexed": true,
          "internalType": "uint256",
          "name": "tokenId",
          "type": "uint256"
        }
      ],
      "name": "Transfer",
      "type": "event"
    },
    {
      "anonymous": false,
      "inputs": [
        {
          "indexed": false,
          "internalType": "uint256",
          "name": "",
          "type": "uint256"
        },
        {
          "indexed": false,
          "internalType": "uint256",
          "name": "",
          "type": "uint256"
        },
        {
          "indexed": false,
          "internalType": "address",
          "name": "",
          "type": "address"
        }
      ],
      "name": "UpdateComment",
      "type": "event"
    },
    {
      "inputs": [
        {
          "internalType": "uint256",
          "name": "tokenId",
          "type": "uint256"
        },
        {
          "internalType": "string",
          "name": "metadataURI",
          "type": "string"
        }
      ],
      "name": "addComment",
      "outputs": [],
      "stateMutability": "nonpayable",
      "type": "function"
    },
    {
      "inputs": [
        {
          "internalType": "address",
          "name": "to",
          "type": "address"
        },
        {
          "internalType": "uint256",
          "name": "tokenId",
          "type": "uint256"
        }
      ],
      "name": "approve",
      "outputs": [],
      "stateMutability": "nonpayable",
      "type": "function"
    },
    {
      "inputs": [
        {
          "internalType": "address",
          "name": "owner",
          "type": "address"
        }
      ],
      "name": "balanceOf",
      "outputs": [
        {
          "internalType": "uint256",
          "name": "",
          "type": "uint256"
        }
      ],
      "stateMutability": "view",
      "type": "function"
    },
    {
      "inputs": [
        {
          "internalType": "uint256",
          "name": "tokenId",
          "type": "uint256"
        }
      ],
      "name": "getApproved",
      "outputs": [
        {
          "internalType": "address",
          "name": "",
          "type": "address"
        }
      ],
      "stateMutability": "view",
      "type": "function"
    },
    {
      "inputs": [
        {
          "internalType": "address",
          "name": "owner",
          "type": "address"
        },
        {
          "internalType": "address",
          "name": "operator",
          "type": "address"
        }
      ],
      "name": "isApprovedForAll",
      "outputs": [
        {
          "internalType": "bool",
          "name": "",
          "type": "bool"
        }
      ],
      "stateMutability": "view",
      "type": "function"
    },
    {
      "inputs": [
        {
          "internalType": "uint256",
          "name": "tokenId",
          "type": "uint256"
        }
      ],
      "name": "knowledgeBitsOf",
      "outputs": [
        {
          "internalType": "uint256[]",
          "name": "",
          "type": "uint256[]"
        }
      ],
      "stateMutability": "view",
      "type": "function"
    },
    {
      "inputs": [
        {
          "internalType": "string",
          "name": "metadataURI",
          "type": "string"
        },
        {
          "internalType": "uint256",
          "name": "tokenId",
          "type": "uint256"
        },
        {
          "internalType": "uint256[]",
          "name": "knowledgeBitIds",
          "type": "uint256[]"
        },
        {
          "internalType": "uint256",
          "name": "claimTokenId",
          "type": "uint256"
        }
      ],
      "name": "mintToken",
      "outputs": [],
      "stateMutability": "nonpayable",
      "type": "function"
    },
    {
      "inputs": [],
      "name": "name",
      "outputs": [
        {
          "internalType": "string",
          "name": "",
          "type": "string"
        }
      ],
      "stateMutability": "view",
      "type": "function"
    },
    {
      "inputs": [
        {
          "internalType": "uint256",
          "name": "tokenId",
          "type": "uint256"
        }
      ],
      "name": "ownerOf",
      "outputs": [
        {
          "internalType": "address",
          "name": "",
          "type": "address"
        }
      ],
      "stateMutability": "view",
      "type": "function"
    },
    {
      "inputs": [
        {
          "internalType": "address",
          "name": "from",
          "type": "address"
        },
        {
          "internalType": "address",
          "name": "to",
          "type": "address"
        },
        {
          "internalType": "uint256",
          "name": "tokenId",
          "type": "uint256"
        }
      ],
      "name": "safeTransferFrom",
      "outputs": [],
      "stateMutability": "nonpayable",
      "type": "function"
    },
    {
      "inputs": [
        {
          "internalType": "address",
          "name": "from",
          "type": "address"
        },
        {
          "internalType": "address",
          "name": "to",
          "type": "address"
        },
        {
          "internalType": "uint256",
          "name": "tokenId",
          "type": "uint256"
        },
        {
          "internalType": "bytes",
          "name": "_data",
          "type": "bytes"
        }
      ],
      "name": "safeTransferFrom",
      "outputs": [],
      "stateMutability": "nonpayable",
      "type": "function"
    },
    {
      "inputs": [
        {
          "internalType": "address",
          "name": "operator",
          "type": "address"
        },
        {
          "internalType": "bool",
          "name": "approved",
          "type": "bool"
        }
      ],
      "name": "setApprovalForAll",
      "outputs": [],
      "stateMutability": "nonpayable",
      "type": "function"
    },
    {
      "inputs": [
        {
          "internalType": "uint256",
          "name": "tokenId",
          "type": "uint256"
        },
        {
          "internalType": "string",
          "name": "metadataURI",
          "type": "string"
        },
        {
          "internalType": "uint256[]",
          "name": "knowledgeBitIds",
          "type": "uint256[]"
        }
      ],
      "name": "setTokenURI",
      "outputs": [],
      "stateMutability": "nonpayable",
      "type": "function"
    },
    {
      "inputs": [
        {
          "internalType": "bytes4",
          "name": "interfaceId",
          "type": "bytes4"
        }
      ],
      "name": "supportsInterface",
      "outputs": [
        {
          "internalType": "bool",
          "name": "",
          "type": "bool"
        }
      ],
      "stateMutability": "view",
      "type": "function"
    },
    {
      "inputs": [],
      "name": "symbol",
      "outputs": [
        {
          "internalType": "string",
          "name": "",
          "type": "string"
        }
      ],
      "stateMutability": "view",
      "type": "function"
    },
    {
      "inputs": [
        {
          "internalType": "uint256",
          "name": "tokenId",
          "type": "uint256"
        }
      ],
      "name": "tokenURI",
      "outputs": [
        {
          "internalType": "string",
          "name": "",
          "type": "string"
        }
      ],
      "stateMutability": "view",
      "type": "function"
    },
    {
      "inputs": [
        {
          "internalType": "address",
          "name": "from",
          "type": "address"
        },
        {
          "internalType": "address",
          "name": "to",
          "type": "address"
        },
        {
          "internalType": "uint256",
          "name": "tokenId",
          "type": "uint256"
        }
      ],
      "name": "transferFrom",
      "outputs": [],
      "stateMutability": "nonpayable",
      "type": "function"
    },
    {
      "inputs": [
        {
          "internalType": "uint256",
          "name": "tokenId",
          "type": "uint256"
        },
        {
          "internalType": "uint256",
          "name": "commentIndex",
          "type": "uint256"
        },
        {
          "internalType": "string",
          "name": "metadataURI",
          "type": "string"
        }
      ],
      "name": "updateComment",
      "outputs": [],
      "stateMutability": "nonpayable",
      "type": "function"
    }
  ],
  "bytecode": "0x60806040523480156200001157600080fd5b506040516200232e3803806200232e833981016040819052620000349162000194565b604080518082018252601781527f4672616374616c20466c6f777320417267756d656e747300000000000000000060208083019182528351808501909452600384527f4646410000000000000000000000000000000000000000000000000000000000908401528151919291620000ae91600091620000ee565b508051620000c4906001906020840190620000ee565b5050600780546001600160a01b0319166001600160a01b039390931692909217909155506200021c565b828054620000fc90620001c6565b90600052602060002090601f0160209004810192826200012057600085556200016b565b82601f106200013b57805160ff19168380011785556200016b565b828001600101855582156200016b579182015b828111156200016b5782518255916020019190600101906200014e565b50620001799291506200017d565b5090565b5b808211156200017957600081556001016200017e565b600060208284031215620001a757600080fd5b81516001600160a01b0381168114620001bf57600080fd5b9392505050565b600181811c90821680620001db57607f821691505b6020821081141562000216577f4e487b7100000000000000000000000000000000000000000000000000000000600052602260045260246000fd5b50919050565b612102806200022c6000396000f3fe608060405234801561001057600080fd5b50600436106101165760003560e01c806370a08231116100a2578063b64255bc11610071578063b64255bc14610246578063b88d4fde14610259578063c0b612141461026c578063c87b56dd1461028c578063e985e9c51461029f57600080fd5b806370a08231146101f757806395d89b4114610218578063a22cb46514610220578063aa7e56831461023357600080fd5b8063095ea7b3116100e9578063095ea7b314610198578063121253e7146101ab57806323b872dd146101be57806342842e0e146101d15780636352211e146101e457600080fd5b806301ffc9a71461011b5780630642836b1461014357806306fdde0314610158578063081812fc1461016d575b600080fd5b61012e61012936600461190b565b6102db565b60405190151581526020015b60405180910390f35b610156610151366004611a67565b61032d565b005b6101606103dc565b60405161013a9190611b34565b61018061017b366004611b47565b61046e565b6040516001600160a01b03909116815260200161013a565b6101566101a6366004611b7c565b6104fb565b6101566101b9366004611ba6565b610611565b6101566101cc366004611bf6565b61074a565b6101566101df366004611bf6565b61077b565b6101806101f2366004611b47565b610796565b61020a610205366004611c32565b61080d565b60405190815260200161013a565b610160610894565b61015661022e366004611c4d565b6108a3565b610156610241366004611c89565b6108b2565b610156610254366004611cd0565b610a94565b610156610267366004611d33565b610b4d565b61027f61027a366004611b47565b610b85565b60405161013a9190611daf565b61016061029a366004611b47565b610be7565b61012e6102ad366004611df3565b6001600160a01b03918216600090815260056020908152604080832093909416825291909152205460ff1690565b60006001600160e01b031982166380ac58cd60e01b148061030c57506001600160e01b03198216635b5e139f60e01b145b8061032757506301ffc9a760e01b6001600160e01b03198316145b92915050565b6103378183610d6d565b6103413384610ea2565b61034b8385610ebc565b6000838152600860209081526040909120835161036a9285019061181f565b50600754604051631a3df2a760e21b815260048101839052602481018590523360448201526001600160a01b03909116906368f7ca9c90606401600060405180830381600087803b1580156103be57600080fd5b505af11580156103d2573d6000803e3d6000fd5b5050505050505050565b6060600080546103eb90611e26565b80601f016020809104026020016040519081016040528092919081815260200182805461041790611e26565b80156104645780601f1061043957610100808354040283529160200191610464565b820191906000526020600020905b81548152906001019060200180831161044757829003601f168201915b5050505050905090565b600061047982610f47565b6104df5760405162461bcd60e51b815260206004820152602c60248201527f4552433732313a20617070726f76656420717565727920666f72206e6f6e657860448201526b34b9ba32b73a103a37b5b2b760a11b60648201526084015b60405180910390fd5b506000908152600460205260409020546001600160a01b031690565b600061050682610796565b9050806001600160a01b0316836001600160a01b031614156105745760405162461bcd60e51b815260206004820152602160248201527f4552433732313a20617070726f76616c20746f2063757272656e74206f776e656044820152603960f91b60648201526084016104d6565b336001600160a01b0382161480610590575061059081336102ad565b6106025760405162461bcd60e51b815260206004820152603860248201527f4552433732313a20617070726f76652063616c6c6572206973206e6f74206f7760448201527f6e6572206e6f7220617070726f76656420666f7220616c6c000000000000000060648201526084016104d6565b61060c8383610f64565b505050565b8261061b81610f47565b6106605760405162461bcd60e51b8152602060048201526016602482015275105c99dd5b595b9d08191bd95cdb89dd08195e1a5cdd60521b60448201526064016104d6565b6040805180820182523381526020808201859052600087815260099091529190912080548291908690811061069757610697611e61565b600091825260209182902083516002929092020180546001600160a01b0319166001600160a01b0390921691909117815582820151805191926106e29260018501929091019061186a565b5050506000858152600960205260409020547fe9379163fb0af3e8cde81592368dbd4fb3b8fa6a4ba541c41b077f6e1c80e8e590869061072490600190611e8d565b604080519283526020830191909152339082015260600160405180910390a15050505050565b6107543382610fd2565b6107705760405162461bcd60e51b81526004016104d690611ea4565b61060c8383836110bb565b61060c83838360405180602001604052806000815250610b4d565b6000818152600260205260408120546001600160a01b0316806103275760405162461bcd60e51b815260206004820152602960248201527f4552433732313a206f776e657220717565727920666f72206e6f6e657869737460448201526832b73a103a37b5b2b760b91b60648201526084016104d6565b60006001600160a01b0382166108785760405162461bcd60e51b815260206004820152602a60248201527f4552433732313a2062616c616e636520717565727920666f7220746865207a65604482015269726f206164647265737360b01b60648201526084016104d6565b506001600160a01b031660009081526003602052604090205490565b6060600180546103eb90611e26565b6108ae338383611262565b5050565b816108bc81610f47565b6109015760405162461bcd60e51b8152602060048201526016602482015275105c99dd5b595b9d08191bd95cdb89dd08195e1a5cdd60521b60448201526064016104d6565b604080518082018252338152602080820185815260008781526009835293842080546001808201835591865294839020845160029096020180546001600160a01b0319166001600160a01b039096169590951785559051805193948594909361096e93850192019061186a565b50506007546040516361217ba760e01b815260048101879052600092506001600160a01b03909116906361217ba79060240160206040518083038186803b1580156109b857600080fd5b505afa1580156109cc573d6000803e3d6000fd5b505050506040513d601f19601f820116820180604052508101906109f09190611ef5565b600754604051631ad14d7f60e21b8152600481018390523360248201529192506001600160a01b031690636b4535fc90604401600060405180830381600087803b158015610a3d57600080fd5b505af1158015610a51573d6000803e3d6000fd5b5050506000868152600960205260409020547f92a353d8e5656140f0bee5695f1bc758918c4d77c3d7c7ef5a1ed638697d126e9150869061072490600190611e8d565b6007546040516361217ba760e01b8152600481018590526000916001600160a01b0316906361217ba79060240160206040518083038186803b158015610ad957600080fd5b505afa158015610aed573d6000803e3d6000fd5b505050506040513d601f19601f82011682018060405250810190610b119190611ef5565b9050610b1d8183610d6d565b610b278484610ebc565b60008481526008602090815260409091208351610b469285019061181f565b5050505050565b610b573383610fd2565b610b735760405162461bcd60e51b81526004016104d690611ea4565b610b7f84848484611331565b50505050565b600081815260086020908152604091829020805483518184028101840190945280845260609392830182828015610bdb57602002820191906000526020600020905b815481526020019060010190808311610bc7575b50505050509050919050565b6060610bf282610f47565b610c585760405162461bcd60e51b815260206004820152603160248201527f45524337323155524953746f726167653a2055524920717565727920666f72206044820152703737b732bc34b9ba32b73a103a37b5b2b760791b60648201526084016104d6565b60008281526006602052604081208054610c7190611e26565b80601f0160208091040260200160405190810160405280929190818152602001828054610c9d90611e26565b8015610cea5780601f10610cbf57610100808354040283529160200191610cea565b820191906000526020600020905b815481529060010190602001808311610ccd57829003601f168201915b505050505090506000610d17604080518082019091526007815266697066733a2f2f60c81b602082015290565b9050805160001415610d2a575092915050565b815115610d5c578082604051602001610d44929190611f0e565b60405160208183030381529060405292505050919050565b610d6584611364565b949350505050565b60005b815181101561060c5760075482516001600160a01b039091169063924a901b908590859085908110610da457610da4611e61565b60200260200101516040518363ffffffff1660e01b8152600401610dd2929190918252602082015260400190565b60206040518083038186803b158015610dea57600080fd5b505afa158015610dfe573d6000803e3d6000fd5b505050506040513d601f19601f82011682018060405250810190610e229190611ef5565b60001415610e48838381518110610e3b57610e3b611e61565b602002602001015161144b565b610e518561144b565b604051602001610e62929190611f3d565b60405160208183030381529060405290610e8f5760405162461bcd60e51b81526004016104d69190611b34565b5080610e9a81611faf565b915050610d70565b6108ae828260405180602001604052806000815250611549565b610ec582610f47565b610f285760405162461bcd60e51b815260206004820152602e60248201527f45524337323155524953746f726167653a2055524920736574206f66206e6f6e60448201526d32bc34b9ba32b73a103a37b5b2b760911b60648201526084016104d6565b6000828152600660209081526040909120825161060c9284019061186a565b6000908152600260205260409020546001600160a01b0316151590565b600081815260046020526040902080546001600160a01b0319166001600160a01b0384169081179091558190610f9982610796565b6001600160a01b03167f8c5be1e5ebec7d5bd14f71427d1e84f3dd0314c0f7b2291e5b200ac8c7c3b92560405160405180910390a45050565b6000610fdd82610f47565b61103e5760405162461bcd60e51b815260206004820152602c60248201527f4552433732313a206f70657261746f7220717565727920666f72206e6f6e657860448201526b34b9ba32b73a103a37b5b2b760a11b60648201526084016104d6565b600061104983610796565b9050806001600160a01b0316846001600160a01b0316148061109057506001600160a01b0380821660009081526005602090815260408083209388168352929052205460ff165b80610d655750836001600160a01b03166110a98461046e565b6001600160a01b031614949350505050565b826001600160a01b03166110ce82610796565b6001600160a01b0316146111325760405162461bcd60e51b815260206004820152602560248201527f4552433732313a207472616e736665722066726f6d20696e636f72726563742060448201526437bbb732b960d91b60648201526084016104d6565b6001600160a01b0382166111945760405162461bcd60e51b8152602060048201526024808201527f4552433732313a207472616e7366657220746f20746865207a65726f206164646044820152637265737360e01b60648201526084016104d6565b61119f83838361157c565b6111aa600082610f64565b6001600160a01b03831660009081526003602052604081208054600192906111d3908490611e8d565b90915550506001600160a01b0382166000908152600360205260408120805460019290611201908490611fca565b909155505060008181526002602052604080822080546001600160a01b0319166001600160a01b0386811691821790925591518493918716917fddf252ad1be2c89b69c2b068fc378daa952ba7f163c4a11628f55a4df523b3ef91a4505050565b816001600160a01b0316836001600160a01b031614156112c45760405162461bcd60e51b815260206004820152601960248201527f4552433732313a20617070726f766520746f2063616c6c65720000000000000060448201526064016104d6565b6001600160a01b03838116600081815260056020908152604080832094871680845294825291829020805460ff191686151590811790915591519182527f17307eab39ab6107e8899845ad3d59bd9653f200f220920489ca2b5937696c31910160405180910390a3505050565b61133c8484846110bb565b611348848484846115d3565b610b7f5760405162461bcd60e51b81526004016104d690611fe2565b606061136f82610f47565b6113d35760405162461bcd60e51b815260206004820152602f60248201527f4552433732314d657461646174613a2055524920717565727920666f72206e6f60448201526e3732bc34b9ba32b73a103a37b5b2b760891b60648201526084016104d6565b60006113f9604080518082019091526007815266697066733a2f2f60c81b602082015290565b905060008151116114195760405180602001604052806000815250611444565b806114238461144b565b604051602001611434929190611f0e565b6040516020818303038152906040525b9392505050565b60608161146f5750506040805180820190915260018152600360fc1b602082015290565b8160005b8115611499578061148381611faf565b91506114929050600a8361204a565b9150611473565b60008167ffffffffffffffff8111156114b4576114b4611928565b6040519080825280601f01601f1916602001820160405280156114de576020820181803683370190505b5090505b8415610d65576114f3600183611e8d565b9150611500600a8661205e565b61150b906030611fca565b60f81b81838151811061152057611520611e61565b60200101906001600160f81b031916908160001a905350611542600a8661204a565b94506114e2565b61155383836116e0565b61156060008484846115d3565b61060c5760405162461bcd60e51b81526004016104d690611fe2565b6001600160a01b0383161561060c5760405162461bcd60e51b815260206004820152601960248201527f546f6b656e207472616e7366657220697320626c6f636b65640000000000000060448201526064016104d6565b60006001600160a01b0384163b156116d557604051630a85bd0160e11b81526001600160a01b0385169063150b7a0290611617903390899088908890600401612072565b602060405180830381600087803b15801561163157600080fd5b505af1925050508015611661575060408051601f3d908101601f1916820190925261165e918101906120af565b60015b6116bb573d80801561168f576040519150601f19603f3d011682016040523d82523d6000602084013e611694565b606091505b5080516116b35760405162461bcd60e51b81526004016104d690611fe2565b805181602001fd5b6001600160e01b031916630a85bd0160e11b149050610d65565b506001949350505050565b6001600160a01b0382166117365760405162461bcd60e51b815260206004820181905260248201527f4552433732313a206d696e7420746f20746865207a65726f206164647265737360448201526064016104d6565b61173f81610f47565b1561178c5760405162461bcd60e51b815260206004820152601c60248201527f4552433732313a20746f6b656e20616c7265616479206d696e7465640000000060448201526064016104d6565b6117986000838361157c565b6001600160a01b03821660009081526003602052604081208054600192906117c1908490611fca565b909155505060008181526002602052604080822080546001600160a01b0319166001600160a01b03861690811790915590518392907fddf252ad1be2c89b69c2b068fc378daa952ba7f163c4a11628f55a4df523b3ef908290a45050565b82805482825590600052602060002090810192821561185a579160200282015b8281111561185a57825182559160200191906001019061183f565b506118669291506118dd565b5090565b82805461187690611e26565b90600052602060002090601f016020900481019282611898576000855561185a565b82601f106118b157805160ff191683800117855561185a565b8280016001018555821561185a579182018281111561185a57825182559160200191906001019061183f565b5b8082111561186657600081556001016118de565b6001600160e01b03198116811461190857600080fd5b50565b60006020828403121561191d57600080fd5b8135611444816118f2565b634e487b7160e01b600052604160045260246000fd5b604051601f8201601f1916810167ffffffffffffffff8111828210171561196757611967611928565b604052919050565b600067ffffffffffffffff83111561198957611989611928565b61199c601f8401601f191660200161193e565b90508281528383830111156119b057600080fd5b828260208301376000602084830101529392505050565b600082601f8301126119d857600080fd5b6114448383356020850161196f565b600082601f8301126119f857600080fd5b8135602067ffffffffffffffff821115611a1457611a14611928565b8160051b611a2382820161193e565b9283528481018201928281019087851115611a3d57600080fd5b83870192505b84831015611a5c57823582529183019190830190611a43565b979650505050505050565b60008060008060808587031215611a7d57600080fd5b843567ffffffffffffffff80821115611a9557600080fd5b611aa1888389016119c7565b9550602087013594506040870135915080821115611abe57600080fd5b50611acb878288016119e7565b949793965093946060013593505050565b60005b83811015611af7578181015183820152602001611adf565b83811115610b7f5750506000910152565b60008151808452611b20816020860160208601611adc565b601f01601f19169290920160200192915050565b6020815260006114446020830184611b08565b600060208284031215611b5957600080fd5b5035919050565b80356001600160a01b0381168114611b7757600080fd5b919050565b60008060408385031215611b8f57600080fd5b611b9883611b60565b946020939093013593505050565b600080600060608486031215611bbb57600080fd5b8335925060208401359150604084013567ffffffffffffffff811115611be057600080fd5b611bec868287016119c7565b9150509250925092565b600080600060608486031215611c0b57600080fd5b611c1484611b60565b9250611c2260208501611b60565b9150604084013590509250925092565b600060208284031215611c4457600080fd5b61144482611b60565b60008060408385031215611c6057600080fd5b611c6983611b60565b915060208301358015158114611c7e57600080fd5b809150509250929050565b60008060408385031215611c9c57600080fd5b82359150602083013567ffffffffffffffff811115611cba57600080fd5b611cc6858286016119c7565b9150509250929050565b600080600060608486031215611ce557600080fd5b83359250602084013567ffffffffffffffff80821115611d0457600080fd5b611d10878388016119c7565b93506040860135915080821115611d2657600080fd5b50611bec868287016119e7565b60008060008060808587031215611d4957600080fd5b611d5285611b60565b9350611d6060208601611b60565b925060408501359150606085013567ffffffffffffffff811115611d8357600080fd5b8501601f81018713611d9457600080fd5b611da38782356020840161196f565b91505092959194509250565b6020808252825182820181905260009190848201906040850190845b81811015611de757835183529284019291840191600101611dcb565b50909695505050505050565b60008060408385031215611e0657600080fd5b611e0f83611b60565b9150611e1d60208401611b60565b90509250929050565b600181811c90821680611e3a57607f821691505b60208210811415611e5b57634e487b7160e01b600052602260045260246000fd5b50919050565b634e487b7160e01b600052603260045260246000fd5b634e487b7160e01b600052601160045260246000fd5b600082821015611e9f57611e9f611e77565b500390565b60208082526031908201527f4552433732313a207472616e736665722063616c6c6572206973206e6f74206f6040820152701ddb995c881b9bdc88185c1c1c9bdd9959607a1b606082015260800190565b600060208284031215611f0757600080fd5b5051919050565b60008351611f20818460208801611adc565b835190830190611f34818360208801611adc565b01949350505050565b6d025b737bbb632b233b2903134ba160951b815260008351611f6681600e850160208801611adc565b7f20646f65736e27742062656c6f6e6720746f20636c61696d2000000000000000600e918401918201528351611fa3816027840160208801611adc565b01602701949350505050565b6000600019821415611fc357611fc3611e77565b5060010190565b60008219821115611fdd57611fdd611e77565b500190565b60208082526032908201527f4552433732313a207472616e7366657220746f206e6f6e20455243373231526560408201527131b2b4bb32b91034b6b83632b6b2b73a32b960711b606082015260800190565b634e487b7160e01b600052601260045260246000fd5b60008261205957612059612034565b500490565b60008261206d5761206d612034565b500690565b6001600160a01b03858116825284166020820152604081018390526080606082018190526000906120a590830184611b08565b9695505050505050565b6000602082840312156120c157600080fd5b8151611444816118f256fea2646970667358221220e951bcbfbde7fff9b476ca9fe9dc79c18c0824ebdfc4988cd018e85d19a3f7c464736f6c63430008090033",
  "linkReferences": {},
  "deployedLinkReferences": {}
}