{
  "_format": "hh-sol-artifact-1",
  "contractName": "Claim",
  "sourceName": "contracts/Claim.sol",
  "abi": [
    {
      "inputs": [],
      "stateMutability": "nonpayable",
      "type": "constructor"
    },
    {
      "anonymous": false,
      "inputs": [
        {
          "indexed": true,
          "internalType": "address",
          "name": "owner",
          "type": "address"
        },
        {
          "indexed": true,
          "internalType": "address",
          "name": "approved",
          "type": "address"
        },
        {
          "indexed": true,
          "internalType": "uint256",
          "name": "tokenId",
          "type": "uint256"
        }
      ],
      "name": "Approval",
      "type": "event"
    },
    {
      "anonymous": false,
      "inputs": [
        {
          "indexed": true,
          "internalType": "address",
          "name": "owner",
          "type": "address"
        },
        {
          "indexed": true,
          "internalType": "address",
          "name": "operator",
          "type": "address"
        },
        {
          "indexed": false,
          "internalType": "bool",
          "name": "approved",
          "type": "bool"
        }
      ],
      "name": "ApprovalForAll",
      "type": "event"
    },
    {
      "anonymous": false,
      "inputs": [
        {
          "indexed": true,
          "internalType": "address",
          "name": "from",
          "type": "address"
        },
        {
          "indexed": true,
          "internalType": "address",
          "name": "to",
          "type": "address"
        },
        {
          "indexed": true,
          "internalType": "uint256",
          "name": "tokenId",
          "type": "uint256"
        }
      ],
      "name": "Transfer",
      "type": "event"
    },
    {
      "inputs": [
        {
          "internalType": "uint256",
          "name": "tokenId",
          "type": "uint256"
        },
        {
          "internalType": "uint256",
          "name": "argumentTokenId",
          "type": "uint256"
        },
        {
          "internalType": "address",
          "name": "account",
          "type": "address"
        }
      ],
      "name": "addArgument",
      "outputs": [],
      "stateMutability": "nonpayable",
      "type": "function"
    },
    {
      "inputs": [
        {
          "internalType": "uint256",
          "name": "tokenId",
          "type": "uint256"
        },
        {
          "internalType": "address",
          "name": "account",
          "type": "address"
        }
      ],
      "name": "addArgumentComment",
      "outputs": [],
      "stateMutability": "nonpayable",
      "type": "function"
    },
    {
      "inputs": [
        {
          "internalType": "uint256",
          "name": "tokenId",
          "type": "uint256"
        },
        {
          "internalType": "uint256",
          "name": "knowledgeBitTokenId",
          "type": "uint256"
        },
        {
          "internalType": "address",
          "name": "account",
          "type": "address"
        }
      ],
      "name": "addKnowledgeBit",
      "outputs": [],
      "stateMutability": "nonpayable",
      "type": "function"
    },
    {
      "inputs": [
        {
          "internalType": "uint256",
          "name": "tokenId",
          "type": "uint256"
        },
        {
          "internalType": "address",
          "name": "account",
          "type": "address"
        }
      ],
      "name": "addKnowledgeBitVote",
      "outputs": [],
      "stateMutability": "nonpayable",
      "type": "function"
    },
    {
      "inputs": [
        {
          "internalType": "uint256",
          "name": "tokenId",
          "type": "uint256"
        },
        {
          "internalType": "uint256",
          "name": "opinionTokenId",
          "type": "uint256"
        },
        {
          "internalType": "address",
          "name": "account",
          "type": "address"
        }
      ],
      "name": "addOpinion",
      "outputs": [],
      "stateMutability": "nonpayable",
      "type": "function"
    },
    {
      "inputs": [
        {
          "internalType": "address",
          "name": "to",
          "type": "address"
        },
        {
          "internalType": "uint256",
          "name": "tokenId",
          "type": "uint256"
        }
      ],
      "name": "approve",
      "outputs": [],
      "stateMutability": "nonpayable",
      "type": "function"
    },
    {
      "inputs": [
        {
          "internalType": "uint256",
          "name": "tokenId",
          "type": "uint256"
        },
        {
          "internalType": "uint256",
          "name": "argumentTokenId",
          "type": "uint256"
        }
      ],
      "name": "argumentIndexOf",
      "outputs": [
        {
          "internalType": "uint256",
          "name": "",
          "type": "uint256"
        }
      ],
      "stateMutability": "view",
      "type": "function"
    },
    {
      "inputs": [
        {
          "internalType": "uint256",
          "name": "tokenId",
          "type": "uint256"
        }
      ],
      "name": "argumentsOf",
      "outputs": [
        {
          "internalType": "uint256[]",
          "name": "",
          "type": "uint256[]"
        }
      ],
      "stateMutability": "view",
      "type": "function"
    },
    {
      "inputs": [
        {
          "internalType": "address",
          "name": "owner",
          "type": "address"
        }
      ],
      "name": "balanceOf",
      "outputs": [
        {
          "internalType": "uint256",
          "name": "",
          "type": "uint256"
        }
      ],
      "stateMutability": "view",
      "type": "function"
    },
    {
      "inputs": [
        {
          "internalType": "uint256",
          "name": "argumentTokenId",
          "type": "uint256"
        }
      ],
      "name": "claimOfArgument",
      "outputs": [
        {
          "internalType": "uint256",
          "name": "",
          "type": "uint256"
        }
      ],
      "stateMutability": "view",
      "type": "function"
    },
    {
      "inputs": [
        {
          "internalType": "uint256",
          "name": "opinionTokenId",
          "type": "uint256"
        }
      ],
      "name": "claimOfOpinion",
      "outputs": [
        {
          "internalType": "uint256",
          "name": "",
          "type": "uint256"
        }
      ],
      "stateMutability": "view",
      "type": "function"
    },
    {
      "inputs": [
        {
          "internalType": "uint256",
          "name": "tokenId",
          "type": "uint256"
        }
      ],
      "name": "fractionalizationContractOf",
      "outputs": [
        {
          "internalType": "address",
          "name": "",
          "type": "address"
        }
      ],
      "stateMutability": "view",
      "type": "function"
    },
    {
      "inputs": [
        {
          "internalType": "uint256",
          "name": "tokenId",
          "type": "uint256"
        }
      ],
      "name": "getApproved",
      "outputs": [
        {
          "internalType": "address",
          "name": "",
          "type": "address"
        }
      ],
      "stateMutability": "view",
      "type": "function"
    },
    {
      "inputs": [
        {
          "internalType": "address",
          "name": "owner",
          "type": "address"
        },
        {
          "internalType": "address",
          "name": "operator",
          "type": "address"
        }
      ],
      "name": "isApprovedForAll",
      "outputs": [
        {
          "internalType": "bool",
          "name": "",
          "type": "bool"
        }
      ],
      "stateMutability": "view",
      "type": "function"
    },
    {
      "inputs": [
        {
          "internalType": "uint256",
          "name": "tokenId",
          "type": "uint256"
        },
        {
          "internalType": "uint256",
          "name": "knowledgeBitTokenId",
          "type": "uint256"
        }
      ],
      "name": "knowledgeBitIndexOf",
      "outputs": [
        {
          "internalType": "uint256",
          "name": "",
          "type": "uint256"
        }
      ],
      "stateMutability": "view",
      "type": "function"
    },
    {
      "inputs": [
        {
          "internalType": "uint256",
          "name": "tokenId",
          "type": "uint256"
        }
      ],
      "name": "knowledgeBitsOf",
      "outputs": [
        {
          "internalType": "uint256[]",
          "name": "",
          "type": "uint256[]"
        }
      ],
      "stateMutability": "view",
      "type": "function"
    },
    {
      "inputs": [
        {
          "internalType": "string",
          "name": "metadataURI",
          "type": "string"
        },
        {
          "internalType": "uint256",
          "name": "tokenId",
          "type": "uint256"
        },
        {
          "internalType": "uint256",
          "name": "fee",
          "type": "uint256"
        }
      ],
      "name": "mintToken",
      "outputs": [],
      "stateMutability": "nonpayable",
      "type": "function"
    },
    {
      "inputs": [],
      "name": "name",
      "outputs": [
        {
          "internalType": "string",
          "name": "",
          "type": "string"
        }
      ],
      "stateMutability": "view",
      "type": "function"
    },
    {
      "inputs": [
        {
          "internalType": "uint256",
          "name": "tokenId",
          "type": "uint256"
        }
      ],
      "name": "opinionsOf",
      "outputs": [
        {
          "internalType": "uint256[]",
          "name": "",
          "type": "uint256[]"
        }
      ],
      "stateMutability": "view",
      "type": "function"
    },
    {
      "inputs": [
        {
          "internalType": "uint256",
          "name": "tokenId",
          "type": "uint256"
        }
      ],
      "name": "ownerOf",
      "outputs": [
        {
          "internalType": "address",
          "name": "",
          "type": "address"
        }
      ],
      "stateMutability": "view",
      "type": "function"
    },
    {
      "inputs": [
        {
          "internalType": "address",
          "name": "from",
          "type": "address"
        },
        {
          "internalType": "address",
          "name": "to",
          "type": "address"
        },
        {
          "internalType": "uint256",
          "name": "tokenId",
          "type": "uint256"
        }
      ],
      "name": "safeTransferFrom",
      "outputs": [],
      "stateMutability": "nonpayable",
      "type": "function"
    },
    {
      "inputs": [
        {
          "internalType": "address",
          "name": "from",
          "type": "address"
        },
        {
          "internalType": "address",
          "name": "to",
          "type": "address"
        },
        {
          "internalType": "uint256",
          "name": "tokenId",
          "type": "uint256"
        },
        {
          "internalType": "bytes",
          "name": "_data",
          "type": "bytes"
        }
      ],
      "name": "safeTransferFrom",
      "outputs": [],
      "stateMutability": "nonpayable",
      "type": "function"
    },
    {
      "inputs": [
        {
          "internalType": "address",
          "name": "operator",
          "type": "address"
        },
        {
          "internalType": "bool",
          "name": "approved",
          "type": "bool"
        }
      ],
      "name": "setApprovalForAll",
      "outputs": [],
      "stateMutability": "nonpayable",
      "type": "function"
    },
    {
      "inputs": [
        {
          "internalType": "uint256",
          "name": "tokenId",
          "type": "uint256"
        },
        {
          "internalType": "string",
          "name": "metadataURI",
          "type": "string"
        }
      ],
      "name": "setTokenURI",
      "outputs": [],
      "stateMutability": "nonpayable",
      "type": "function"
    },
    {
      "inputs": [
        {
          "internalType": "bytes4",
          "name": "interfaceId",
          "type": "bytes4"
        }
      ],
      "name": "supportsInterface",
      "outputs": [
        {
          "internalType": "bool",
          "name": "",
          "type": "bool"
        }
      ],
      "stateMutability": "view",
      "type": "function"
    },
    {
      "inputs": [],
      "name": "symbol",
      "outputs": [
        {
          "internalType": "string",
          "name": "",
          "type": "string"
        }
      ],
      "stateMutability": "view",
      "type": "function"
    },
    {
      "inputs": [
        {
          "internalType": "uint256",
          "name": "tokenId",
          "type": "uint256"
        }
      ],
      "name": "tokenURI",
      "outputs": [
        {
          "internalType": "string",
          "name": "",
          "type": "string"
        }
      ],
      "stateMutability": "view",
      "type": "function"
    },
    {
      "inputs": [
        {
          "internalType": "address",
          "name": "from",
          "type": "address"
        },
        {
          "internalType": "address",
          "name": "to",
          "type": "address"
        },
        {
          "internalType": "uint256",
          "name": "tokenId",
          "type": "uint256"
        }
      ],
      "name": "transferFrom",
      "outputs": [],
      "stateMutability": "nonpayable",
      "type": "function"
    }
  ],
  "bytecode": "0x60806040523480156200001157600080fd5b50604080518082018252601481527f4672616374616c20466c6f777320436c61696d7300000000000000000000000060208083019182528351808501909452600384527f46464300000000000000000000000000000000000000000000000000000000009084015281519192916200008c91600091620000ab565b508051620000a2906001906020840190620000ab565b505050620001a7565b828054620000b99062000151565b90600052602060002090601f016020900481019282620000dd576000855562000128565b82601f10620000f857805160ff191683800117855562000128565b8280016001018555821562000128579182015b82811115620001285782518255916020019190600101906200010b565b50620001369291506200013a565b5090565b5b808211156200013657600081556001016200013b565b600181811c908216806200016657607f821691505b60208210811415620001a1577f4e487b7100000000000000000000000000000000000000000000000000000000600052602260045260246000fd5b50919050565b61480e80620001b76000396000f3fe60806040523480156200001157600080fd5b5060043610620001e95760003560e01c8063704d62c5116200010d578063b88d4fde11620000a3578063c87b56dd116200007a578063c87b56dd1462000471578063cb97bd801462000488578063e3765620146200049f578063e985e9c514620004b657600080fd5b8063b88d4fde146200042c578063c0b612141462000443578063c403a03c146200045a57600080fd5b8063924a901b11620000e4578063924a901b14620003dd57806395d89b4114620003f4578063a22cb46514620003fe578063a7fdd65c146200041557600080fd5b8063704d62c5146200039857806370a0823114620003af578063724686c114620003c657600080fd5b806323b872dd116200018357806361217ba7116200015a57806361217ba714620003305780636352211e146200035357806368f7ca9c146200036a5780636b4535fc146200038157600080fd5b806323b872dd14620002d057806342842e0e14620002e75780634619d59014620002fe57600080fd5b8063081812fc11620001c4578063081812fc1462000259578063095ea7b3146200028957806312db332714620002a2578063162094c414620002b957600080fd5b806301ffc9a714620001ee57806306d6732e146200021a57806306fdde031462000240575b600080fd5b62000205620001ff366004620022a4565b620004f5565b60405190151581526020015b60405180910390f35b620002316200022b366004620022c4565b62000549565b604051620002119190620022de565b6200024a620005e3565b60405162000211919062002381565b620002706200026a366004620022c4565b6200067d565b6040516001600160a01b03909116815260200162000211565b620002a06200029a366004620023b3565b62000709565b005b620002a0620002b3366004620023e0565b6200082a565b620002a0620002ca366004620024c5565b62000863565b620002a0620002e136600462002510565b62000873565b620002a0620002f836600462002510565b620008ab565b620003216200030f366004620022c4565b6000908152600f602052604090205490565b60405190815260200162000211565b6200032162000341366004620022c4565b6000908152600c602052604090205490565b6200027062000364366004620022c4565b620008c8565b620002a06200037b36600462002551565b62000941565b620002a062000392366004620023e0565b62000a3b565b62000231620003a9366004620022c4565b62000a74565b62000321620003c036600462002589565b62000b02565b62000321620003d7366004620025a7565b62000b8b565b62000321620003ee366004620025a7565b62000bd7565b6200024a62000c23565b620002a06200040f366004620025ca565b62000c34565b6200027062000426366004620022c4565b62000c41565b620002a06200043d3660046200260a565b62000c8b565b6200023162000454366004620022c4565b62000cc4565b620002a06200046b36600462002551565b62000d52565b6200024a62000482366004620022c4565b62000e42565b620002a06200049936600462002551565b62000fdb565b620002a0620004b03660046200268f565b620010ce565b62000205620004c7366004620026e1565b6001600160a01b03918216600090815260056020908152604080832093909416825291909152205460ff1690565b60006001600160e01b031982166380ac58cd60e01b14806200052757506001600160e01b03198216635b5e139f60e01b145b806200054357506301ffc9a760e01b6001600160e01b03198316145b92915050565b606081620005578162001770565b6200057f5760405162461bcd60e51b8152600401620005769062002710565b60405180910390fd5b6000838152600a602090815260409182902080548351818402810184019094528084529091830182828015620005d557602002820191906000526020600020905b815481526020019060010190808311620005c0575b505050505091505b50919050565b606060008054620005f4906200273d565b80601f016020809104026020016040519081016040528092919081815260200182805462000622906200273d565b8015620006735780601f10620006475761010080835404028352916020019162000673565b820191906000526020600020905b8154815290600101906020018083116200065557829003601f168201915b5050505050905090565b60006200068a8262001770565b620006ed5760405162461bcd60e51b815260206004820152602c60248201527f4552433732313a20617070726f76656420717565727920666f72206e6f6e657860448201526b34b9ba32b73a103a37b5b2b760a11b606482015260840162000576565b506000908152600460205260409020546001600160a01b031690565b60006200071682620008c8565b9050806001600160a01b0316836001600160a01b03161415620007865760405162461bcd60e51b815260206004820152602160248201527f4552433732313a20617070726f76616c20746f2063757272656e74206f776e656044820152603960f91b606482015260840162000576565b336001600160a01b0382161480620007a55750620007a58133620004c7565b620008195760405162461bcd60e51b815260206004820152603860248201527f4552433732313a20617070726f76652063616c6c6572206973206e6f74206f7760448201527f6e6572206e6f7220617070726f76656420666f7220616c6c0000000000000000606482015260840162000576565b6200082583836200178d565b505050565b81620008368162001770565b620008555760405162461bcd60e51b8152600401620005769062002710565b6200082583836001620017fd565b6200086f828262001877565b5050565b6200087f338262001908565b6200089e5760405162461bcd60e51b8152600401620005769062002774565b62000825838383620019fb565b620008258383836040518060200160405280600081525062000c8b565b6000818152600260205260408120546001600160a01b031680620005435760405162461bcd60e51b815260206004820152602960248201527f4552433732313a206f776e657220717565727920666f72206e6f6e657869737460448201526832b73a103a37b5b2b760b91b606482015260840162000576565b826200094d8162001770565b6200096c5760405162461bcd60e51b8152600401620005769062002710565b6000848152600b6020908152604080832086845290915290205415620009e65760405162461bcd60e51b815260206004820152602860248201527f417267756d656e742068617320616c7265616479206265656e20616464656420604482015267746f20636c61696d60c01b606482015260840162000576565b6000848152600a6020908152604080832080546001810182558185528385200187905587845254600b8352818420878552835281842055600c909152902084905562000a358483600f620017fd565b50505050565b8162000a478162001770565b62000a665760405162461bcd60e51b8152600401620005769062002710565b6200082583836003620017fd565b60608162000a828162001770565b62000aa15760405162461bcd60e51b8152600401620005769062002710565b6000838152600d602090815260409182902080548351818402810184019094528084529091830182828015620005d55760200282019190600052602060002090815481526020019060010190808311620005c0575050505050915050919050565b60006001600160a01b03821662000b6f5760405162461bcd60e51b815260206004820152602a60248201527f4552433732313a2062616c616e636520717565727920666f7220746865207a65604482015269726f206164647265737360b01b606482015260840162000576565b506001600160a01b031660009081526003602052604090205490565b60008262000b998162001770565b62000bb85760405162461bcd60e51b8152600401620005769062002710565b50506000918252600b6020908152604080842092845291905290205490565b60008262000be58162001770565b62000c045760405162461bcd60e51b8152600401620005769062002710565b5050600091825260096020908152604080842092845291905290205490565b606060018054620005f4906200273d565b6200086f33838362001bb0565b60008162000c4f8162001770565b62000c6e5760405162461bcd60e51b8152600401620005769062002710565b50506000908152600760205260409020546001600160a01b031690565b62000c97338362001908565b62000cb65760405162461bcd60e51b8152600401620005769062002774565b62000a358484848462001c81565b60608162000cd28162001770565b62000cf15760405162461bcd60e51b8152600401620005769062002710565b60008381526008602090815260409182902080548351818402810184019094528084529091830182828015620005d55760200282019190600052602060002090815481526020019060010190808311620005c0575050505050915050919050565b8262000d5e8162001770565b62000d7d5760405162461bcd60e51b8152600401620005769062002710565b60008481526009602090815260408083208684529091529020541562000dfc5760405162461bcd60e51b815260206004820152602d60248201527f4b6e6f776c65646765206269742068617320616c7265616479206265656e206160448201526c6464656420746f20636c61696d60981b606482015260840162000576565b600084815260086020908152604080832080546001810182558185528385200187905587845254600983528184208785529092529091205562000a35848360c8620017fd565b606062000e4f8262001770565b62000eb75760405162461bcd60e51b815260206004820152603160248201527f45524337323155524953746f726167653a2055524920717565727920666f72206044820152703737b732bc34b9ba32b73a103a37b5b2b760791b606482015260840162000576565b6000828152600660205260408120805462000ed2906200273d565b80601f016020809104026020016040519081016040528092919081815260200182805462000f00906200273d565b801562000f515780601f1062000f255761010080835404028352916020019162000f51565b820191906000526020600020905b81548152906001019060200180831162000f3357829003601f168201915b50505050509050600062000f7f604080518082019091526007815266697066733a2f2f60c81b602082015290565b905080516000141562000f93575092915050565b81511562000fc857808260405160200162000fb0929190620027c5565b60405160208183030381529060405292505050919050565b62000fd38462001cbb565b949350505050565b8262000fe78162001770565b620010065760405162461bcd60e51b8152600401620005769062002710565b6000848152600e60209081526040808320868452909152902054156200107f5760405162461bcd60e51b815260206004820152602760248201527f4f70696e696f6e2068617320616c7265616479206265656e20616464656420746044820152666f20636c61696d60c81b606482015260840162000576565b6000848152600d6020908152604080832080546001810182558185528385200187905587845254600e8352818420878552835281842055600f909152902084905562000a3584836005620017fd565b620010da338362001dad565b620010e6828462001877565b604080516101008101909152601660c0820190815275119c9858dd185b08119b1bdddcc811185d184813919560521b60e08301528152600090602081016200112e8562001dc9565b604051602001620011409190620027f8565b60408051808303601f19018152918152908252600160208084019190915281519081018252600080825283830191909152606080840182905260809093018190528151600280825293810190925292935090816020015b6060815260200190600190039081620011975790505090506040518060400160405280601881526020017f4672616374616c20466c6f7773204461746120546f6b656e000000000000000081525081600081518110620011fb57620011fb62002827565b6020026020010181905250620012118462001dc9565b6040516020016200122391906200283d565b6040516020818303038152906040528160018151811062001248576200124862002827565b602090810291909101015260408051600480825260a0820190925260009181602001602082028036833701905050905060008160008151811062001290576200129062002827565b60200260200101906001600160a01b031690816001600160a01b031681525050600081600181518110620012c857620012c862002827565b60200260200101906001600160a01b031690816001600160a01b0316815250507305585ed45a9db5e3d0623c2e6dcdea4aae04ebe18160028151811062001313576200131362002827565b60200260200101906001600160a01b031690816001600160a01b03168152505073819b194b69bc7a56c0571c2c5520c594efab2793816003815181106200135e576200135e62002827565b6001600160a01b039290921660209283029190910182015260408051600280825260608201835260009391929091830190803683370190505090506b033b2e3c9fd0803ce800000081600081518110620013bc57620013bc62002827565b602002602001018181525050600181600181518110620013e057620013e062002827565b602002602001018181525050606060006040518060a00160405280600281526020018681526020018581526020018481526020018381525090506000600467ffffffffffffffff8111156200143957620014396200240f565b60405190808252806020026020018201604052801562001463578160200160208202803683370190505b50905073819b194b69bc7a56c0571c2c5520c594efab27938160008151811062001491576200149162002827565b60200260200101906001600160a01b031690816001600160a01b031681525050600081600181518110620014c957620014c962002827565b60200260200101906001600160a01b031690816001600160a01b0316815250507305585ed45a9db5e3d0623c2e6dcdea4aae04ebe18160028151811062001514576200151462002827565b60200260200101906001600160a01b031690816001600160a01b0316815250506000816003815181106200154c576200154c62002827565b6001600160a01b039290921660209283029190910182015260408051600580825260c08201909252600092909190820160a080368337019050509050601281600081518110620015a057620015a062002827565b602002602001018181525050601281600181518110620015c457620015c462002827565b6020026020010181815250508881600281518110620015e757620015e762002827565b602002602001018181525050655af3107a40008160038151811062001610576200161062002827565b60200260200101818152505060018160048151811062001634576200163462002827565b6020908102919091018101919091526040805160608101825273c313e19146fc9a04470689c9d41a4d30546935318152918201849052810182905260006200167c8c62001dc9565b6040516020016200168e91906200285f565b6040516020818303038152906040528a8684604051620016ae90620021d6565b620016bd949392919062002a5c565b604051809103906000f080158015620016da573d6000803e3d6000fd5b5060008d8152600760205260409081902080546001600160a01b0319166001600160a01b03841690811790915590516340c10f1960e01b815233600482015260326024820152919250906340c10f1990604401600060405180830381600087803b1580156200174857600080fd5b505af11580156200175d573d6000803e3d6000fd5b5050505050505050505050505050505050565b6000908152600260205260409020546001600160a01b0316151590565b600081815260046020526040902080546001600160a01b0319166001600160a01b0384169081179091558190620017c482620008c8565b6001600160a01b03167f8c5be1e5ebec7d5bd14f71427d1e84f3dd0314c0f7b2291e5b200ac8c7c3b92560405160405180910390a45050565b600083815260076020526040908190205490516340c10f1960e01b81526001600160a01b03848116600483015260248201849052909116906340c10f1990604401600060405180830381600087803b1580156200185957600080fd5b505af11580156200186e573d6000803e3d6000fd5b50505050505050565b620018828262001770565b620018e75760405162461bcd60e51b815260206004820152602e60248201527f45524337323155524953746f726167653a2055524920736574206f66206e6f6e60448201526d32bc34b9ba32b73a103a37b5b2b760911b606482015260840162000576565b600082815260066020908152604090912082516200082592840190620021e4565b6000620019158262001770565b620019785760405162461bcd60e51b815260206004820152602c60248201527f4552433732313a206f70657261746f7220717565727920666f72206e6f6e657860448201526b34b9ba32b73a103a37b5b2b760a11b606482015260840162000576565b60006200198583620008c8565b9050806001600160a01b0316846001600160a01b03161480620019cd57506001600160a01b0380821660009081526005602090815260408083209388168352929052205460ff165b8062000fd35750836001600160a01b0316620019e9846200067d565b6001600160a01b031614949350505050565b826001600160a01b031662001a1082620008c8565b6001600160a01b03161462001a765760405162461bcd60e51b815260206004820152602560248201527f4552433732313a207472616e736665722066726f6d20696e636f72726563742060448201526437bbb732b960d91b606482015260840162000576565b6001600160a01b03821662001ada5760405162461bcd60e51b8152602060048201526024808201527f4552433732313a207472616e7366657220746f20746865207a65726f206164646044820152637265737360e01b606482015260840162000576565b62001ae783838362001edf565b62001af46000826200178d565b6001600160a01b038316600090815260036020526040812080546001929062001b1f90849062002b3e565b90915550506001600160a01b038216600090815260036020526040812080546001929062001b4f90849062002b58565b909155505060008181526002602052604080822080546001600160a01b0319166001600160a01b0386811691821790925591518493918716917fddf252ad1be2c89b69c2b068fc378daa952ba7f163c4a11628f55a4df523b3ef91a4505050565b816001600160a01b0316836001600160a01b0316141562001c145760405162461bcd60e51b815260206004820152601960248201527f4552433732313a20617070726f766520746f2063616c6c657200000000000000604482015260640162000576565b6001600160a01b03838116600081815260056020908152604080832094871680845294825291829020805460ff191686151590811790915591519182527f17307eab39ab6107e8899845ad3d59bd9653f200f220920489ca2b5937696c31910160405180910390a3505050565b62001c8e848484620019fb565b62001c9c8484848462001f38565b62000a355760405162461bcd60e51b8152600401620005769062002b73565b606062001cc88262001770565b62001d2e5760405162461bcd60e51b815260206004820152602f60248201527f4552433732314d657461646174613a2055524920717565727920666f72206e6f60448201526e3732bc34b9ba32b73a103a37b5b2b760891b606482015260840162000576565b600062001d55604080518082019091526007815266697066733a2f2f60c81b602082015290565b9050600081511162001d77576040518060200160405280600081525062001da6565b8062001d838462001dc9565b60405160200162001d96929190620027c5565b6040516020818303038152906040525b9392505050565b6200086f82826040518060200160405280600081525062002053565b60608162001dee5750506040805180820190915260018152600360fc1b602082015290565b8160005b811562001e1e578062001e058162002bc5565b915062001e169050600a8362002bf9565b915062001df2565b60008167ffffffffffffffff81111562001e3c5762001e3c6200240f565b6040519080825280601f01601f19166020018201604052801562001e67576020820181803683370190505b5090505b841562000fd35762001e7f60018362002b3e565b915062001e8e600a8662002c10565b62001e9b90603062002b58565b60f81b81838151811062001eb35762001eb362002827565b60200101906001600160f81b031916908160001a90535062001ed7600a8662002bf9565b945062001e6b565b6001600160a01b03831615620008255760405162461bcd60e51b815260206004820152601960248201527f546f6b656e207472616e7366657220697320626c6f636b656400000000000000604482015260640162000576565b60006001600160a01b0384163b156200204857604051630a85bd0160e11b81526001600160a01b0385169063150b7a029062001f7f90339089908890889060040162002c27565b602060405180830381600087803b15801562001f9a57600080fd5b505af192505050801562001fcd575060408051601f3d908101601f1916820190925262001fca9181019062002c66565b60015b6200202d573d80801562001ffe576040519150601f19603f3d011682016040523d82523d6000602084013e62002003565b606091505b508051620020255760405162461bcd60e51b8152600401620005769062002b73565b805181602001fd5b6001600160e01b031916630a85bd0160e11b14905062000fd3565b506001949350505050565b6200205f83836200208d565b6200206e600084848462001f38565b620008255760405162461bcd60e51b8152600401620005769062002b73565b6001600160a01b038216620020e55760405162461bcd60e51b815260206004820181905260248201527f4552433732313a206d696e7420746f20746865207a65726f2061646472657373604482015260640162000576565b620020f08162001770565b156200213f5760405162461bcd60e51b815260206004820152601c60248201527f4552433732313a20746f6b656e20616c7265616479206d696e74656400000000604482015260640162000576565b6200214d6000838362001edf565b6001600160a01b03821660009081526003602052604081208054600192906200217890849062002b58565b909155505060008181526002602052604080822080546001600160a01b0319166001600160a01b03861690811790915590518392907fddf252ad1be2c89b69c2b068fc378daa952ba7f163c4a11628f55a4df523b3ef908290a45050565b611b528062002c8783390190565b828054620021f2906200273d565b90600052602060002090601f01602090048101928262002216576000855562002261565b82601f106200223157805160ff191683800117855562002261565b8280016001018555821562002261579182015b828111156200226157825182559160200191906001019062002244565b506200226f92915062002273565b5090565b5b808211156200226f576000815560010162002274565b6001600160e01b031981168114620022a157600080fd5b50565b600060208284031215620022b757600080fd5b813562001da6816200228a565b600060208284031215620022d757600080fd5b5035919050565b6020808252825182820181905260009190848201906040850190845b818110156200231857835183529284019291840191600101620022fa565b50909695505050505050565b60005b838110156200234157818101518382015260200162002327565b8381111562000a355750506000910152565b600081518084526200236d81602086016020860162002324565b601f01601f19169290920160200192915050565b60208152600062001da6602083018462002353565b80356001600160a01b0381168114620023ae57600080fd5b919050565b60008060408385031215620023c757600080fd5b620023d28362002396565b946020939093013593505050565b60008060408385031215620023f457600080fd5b82359150620024066020840162002396565b90509250929050565b634e487b7160e01b600052604160045260246000fd5b600067ffffffffffffffff808411156200244357620024436200240f565b604051601f8501601f19908116603f011681019082821181831017156200246e576200246e6200240f565b816040528093508581528686860111156200248857600080fd5b858560208301376000602087830101525050509392505050565b600082601f830112620024b457600080fd5b62001da68383356020850162002425565b60008060408385031215620024d957600080fd5b82359150602083013567ffffffffffffffff811115620024f857600080fd5b6200250685828601620024a2565b9150509250929050565b6000806000606084860312156200252657600080fd5b620025318462002396565b9250620025416020850162002396565b9150604084013590509250925092565b6000806000606084860312156200256757600080fd5b8335925060208401359150620025806040850162002396565b90509250925092565b6000602082840312156200259c57600080fd5b62001da68262002396565b60008060408385031215620025bb57600080fd5b50508035926020909101359150565b60008060408385031215620025de57600080fd5b620025e98362002396565b915060208301358015158114620025ff57600080fd5b809150509250929050565b600080600080608085870312156200262157600080fd5b6200262c8562002396565b93506200263c6020860162002396565b925060408501359150606085013567ffffffffffffffff8111156200266057600080fd5b8501601f810187136200267257600080fd5b620026838782356020840162002425565b91505092959194509250565b600080600060608486031215620026a557600080fd5b833567ffffffffffffffff811115620026bd57600080fd5b620026cb86828701620024a2565b9660208601359650604090950135949350505050565b60008060408385031215620026f557600080fd5b620027008362002396565b9150620024066020840162002396565b60208082526013908201527210db185a5b48191bd95cdb89dd08195e1a5cdd606a1b604082015260600190565b600181811c908216806200275257607f821691505b60208210811415620005dd57634e487b7160e01b600052602260045260246000fd5b60208082526031908201527f4552433732313a207472616e736665722063616c6c6572206973206e6f74206f6040820152701ddb995c881b9bdc88185c1c1c9bdd9959607a1b606082015260800190565b60008351620027d981846020880162002324565b835190830190620027ef81836020880162002324565b01949350505050565b644646444e2d60d81b8152600082516200281a81600585016020870162002324565b9190910160050192915050565b634e487b7160e01b600052603260045260246000fd5b64464644542d60d81b8152600082516200281a81600585016020870162002324565b64464643462d60d81b8152600082516200281a81600585016020870162002324565b600081518084526020808501945080840160005b83811015620028bc5781516001600160a01b03168752958201959082019060010162002895565b509495945050505050565b600081518084526020808501945080840160005b83811015620028bc57815187529582019590820190600101620028db565b600081518084526020808501808196508360051b8101915082860160005b85811015620029455782840389526200293284835162002353565b9885019893509084019060010162002917565b5091979650505050505050565b600060a083018251845260208084015160a08287015282815180855260c08801915060c08160051b8901019450838301925060005b81811015620029b95760bf19898703018352620029a686855162002353565b9550928401929184019160010162002987565b505050505060408301518482036040860152620029d7828262002881565b91505060608301518482036060860152620029f38282620028c7565b9150506080830151848203608086015262002a0f8282620028f9565b95945050505050565b60018060a01b038151168252600060208201516060602085015262002a41606085018262002881565b90506040830151848203604086015262002a0f8282620028c7565b60808152600062002a71608083018762002353565b8281036020840152855160c0825262002a8e60c083018262002353565b90506020870151828203602084015262002aa9828262002353565b915050604087015160408301526060870151828203606084015262002acf828262002353565b60808981015115159085015260a0808a01516001600160a01b0316908501528581036040870152915062002b069050818762002952565b915050828103606084015262002b1d818562002a18565b979650505050505050565b634e487b7160e01b600052601160045260246000fd5b60008282101562002b535762002b5362002b28565b500390565b6000821982111562002b6e5762002b6e62002b28565b500190565b60208082526032908201527f4552433732313a207472616e7366657220746f206e6f6e20455243373231526560408201527131b2b4bb32b91034b6b83632b6b2b73a32b960711b606082015260800190565b600060001982141562002bdc5762002bdc62002b28565b5060010190565b634e487b7160e01b600052601260045260246000fd5b60008262002c0b5762002c0b62002be3565b500490565b60008262002c225762002c2262002be3565b500690565b6001600160a01b038581168252841660208201526040810183905260806060820181905260009062002c5c9083018462002353565b9695505050505050565b60006020828403121562002c7957600080fd5b815162001da6816200228a56fe60806040523480156200001157600080fd5b5060405162001b5238038062001b52833981016040819052620000349162000833565b60405180606001604052806022815260200162001b3060229139805185906200006590600390602085019062000256565b5080516200007b90600490602084019062000256565b50505062000098620000926200020060201b60201c565b62000204565b3060a0840181905260408301518051600090620000b957620000b96200099d565b60200260200101906001600160a01b031690816001600160a01b031681525050308260400151600181518110620000f457620000f46200099d565b60200260200101906001600160a01b031690816001600160a01b0316815250503081602001516001815181106200012f576200012f6200099d565b6001600160a01b03909216602092830291909101909101526040517fd282aa8600000000000000000000000000000000000000000000000000000000815273e8c6dc39602031a152440311e364818ba25c2bc19063d282aa86906200019d9086908690869060040162000bd5565b606060405180830381600087803b158015620001b857600080fd5b505af1158015620001cd573d6000803e3d6000fd5b505050506040513d601f19601f82011682018060405250810190620001f3919062000c96565b5050505050505062000d2d565b3390565b600580546001600160a01b038381166001600160a01b0319831681179093556040519116919082907f8be0079c531659141344cd1fd0a4f28419497f9722a3daafe3b4186f6b6457e090600090a35050565b828054620002649062000cd7565b90600052602060002090601f016020900481019282620002885760008555620002d3565b82601f10620002a357805160ff1916838001178555620002d3565b82800160010185558215620002d3579182015b82811115620002d3578251825591602001919060010190620002b6565b50620002e1929150620002e5565b5090565b5b80821115620002e15760008155600101620002e6565b7f4e487b7100000000000000000000000000000000000000000000000000000000600052604160045260246000fd5b60405160a081016001600160401b0381118282101715620003505762000350620002fc565b60405290565b60405160c081016001600160401b0381118282101715620003505762000350620002fc565b604051601f8201601f191681016001600160401b0381118282101715620003a657620003a6620002fc565b604052919050565b60005b83811015620003cb578181015183820152602001620003b1565b83811115620003db576000848401525b50505050565b60006001600160401b03831115620003fd57620003fd620002fc565b62000412601f8401601f19166020016200037b565b90508281528383830111156200042757600080fd5b62000437836020830184620003ae565b9392505050565b600082601f8301126200045057600080fd5b6200043783835160208501620003e1565b805180151581146200047257600080fd5b919050565b80516001600160a01b03811681146200047257600080fd5b60006001600160401b03821115620004ab57620004ab620002fc565b5060051b60200190565b600082601f830112620004c757600080fd5b81516020620004e0620004da836200048f565b6200037b565b82815260059290921b840181019181810190868411156200050057600080fd5b8286015b84811015620005445780516001600160401b03811115620005255760008081fd5b620005358986838b01016200043e565b84525091830191830162000504565b509695505050505050565b600082601f8301126200056157600080fd5b8151602062000574620004da836200048f565b82815260059290921b840181019181810190868411156200059457600080fd5b8286015b848110156200054457620005ac8162000477565b835291830191830162000598565b600082601f830112620005cc57600080fd5b81516020620005df620004da836200048f565b82815260059290921b84018101918181019086841115620005ff57600080fd5b8286015b8481101562000544578051835291830191830162000603565b600082601f8301126200062e57600080fd5b8151602062000641620004da836200048f565b82815260059290921b840181019181810190868411156200066157600080fd5b8286015b84811015620005445780516001600160401b03811115620006865760008081fd5b8701603f81018913620006995760008081fd5b620006ac898683015160408401620003e1565b84525091830191830162000665565b600060a08284031215620006ce57600080fd5b620006d86200032b565b8251815260208301519091506001600160401b0380821115620006fa57600080fd5b6200070885838601620004b5565b602084015260408401519150808211156200072257600080fd5b62000730858386016200054f565b604084015260608401519150808211156200074a57600080fd5b6200075885838601620005ba565b606084015260808401519150808211156200077257600080fd5b5062000781848285016200061c565b60808301525092915050565b600060608284031215620007a057600080fd5b604051606081016001600160401b038082118383101715620007c657620007c6620002fc565b81604052829350620007d88562000477565b83526020850151915080821115620007ef57600080fd5b620007fd868387016200054f565b602084015260408501519150808211156200081757600080fd5b506200082685828601620005ba565b6040830152505092915050565b600080600080608085870312156200084a57600080fd5b84516001600160401b03808211156200086257600080fd5b62000870888389016200043e565b955060208701519150808211156200088757600080fd5b9086019060c082890312156200089c57600080fd5b620008a662000356565b825182811115620008b657600080fd5b620008c48a8286016200043e565b825250602083015182811115620008da57600080fd5b620008e88a8286016200043e565b602083015250604083015160408201526060830151828111156200090b57600080fd5b620009198a8286016200043e565b6060830152506200092d6080840162000461565b60808201526200094060a0840162000477565b60a082015260408801519095509150808211156200095d57600080fd5b6200096b88838901620006bb565b935060608701519150808211156200098257600080fd5b5062000991878288016200078d565b91505092959194509250565b7f4e487b7100000000000000000000000000000000000000000000000000000000600052603260045260246000fd5b60008151808452620009e6816020860160208601620003ae565b601f01601f19169290920160200192915050565b600081518084526020808501945080840160005b8381101562000a355781516001600160a01b03168752958201959082019060010162000a0e565b509495945050505050565b600081518084526020808501945080840160005b8381101562000a355781518752958201959082019060010162000a54565b600081518084526020808501808196508360051b8101915082860160005b8581101562000abe57828403895262000aab848351620009cc565b9885019893509084019060010162000a90565b5091979650505050505050565b600060a083018251845260208084015160a08287015282815180855260c08801915060c08160051b8901019450838301925060005b8181101562000b325760bf1989870301835262000b1f868551620009cc565b9550928401929184019160010162000b00565b50505050506040830151848203604086015262000b508282620009fa565b9150506060830151848203606086015262000b6c828262000a40565b9150506080830151848203608086015262000b88828262000a72565b95945050505050565b60018060a01b038151168252600060208201516060602085015262000bba6060850182620009fa565b90506040830151848203604086015262000b88828262000a40565b606081526000845160c0606084015262000bf4610120840182620009cc565b90506020860151605f198085840301608086015262000c148383620009cc565b9250604088015160a086015260608801519150808584030160c08601525062000c3e8282620009cc565b6080880151151560e086015260a08801516001600160a01b03166101008601528481036020860152915062000c769050818662000acb565b9050828103604084015262000c8c818562000b91565b9695505050505050565b60008060006060848603121562000cac57600080fd5b62000cb78462000477565b925062000cc76020850162000477565b9150604084015190509250925092565b600181811c9082168062000cec57607f821691505b6020821081141562000d27577f4e487b7100000000000000000000000000000000000000000000000000000000600052602260045260246000fd5b50919050565b610df38062000d3d6000396000f3fe608060405234801561001057600080fd5b50600436106101005760003560e01c806370a0823111610097578063a457c2d711610066578063a457c2d71461022d578063a9059cbb14610240578063dd62ed3e14610253578063f2fde38b1461026657600080fd5b806370a08231146101d9578063715018a6146102025780638da5cb5b1461020a57806395d89b411461022557600080fd5b806323b872dd116100d357806323b872dd1461018f578063313ce567146101a257806339509351146101b157806340c10f19146101c457600080fd5b806306fdde0314610105578063095ea7b314610123578063150b7a021461014657806318160ddd1461017d575b600080fd5b61010d610279565b60405161011a91906109f2565b60405180910390f35b610136610131366004610a63565b61030b565b604051901515815260200161011a565b610164610154366004610aa3565b630a85bd0160e11b949350505050565b6040516001600160e01b0319909116815260200161011a565b6002545b60405190815260200161011a565b61013661019d366004610b7f565b610325565b6040516012815260200161011a565b6101366101bf366004610a63565b610349565b6101d76101d2366004610a63565b61036b565b005b6101816101e7366004610bbb565b6001600160a01b031660009081526020819052604090205490565b6101d76103c1565b6005546040516001600160a01b03909116815260200161011a565b61010d6103f7565b61013661023b366004610a63565b610406565b61013661024e366004610a63565b610481565b610181610261366004610bdd565b61048f565b6101d7610274366004610bbb565b6104ba565b60606003805461028890610c10565b80601f01602080910402602001604051908101604052809291908181526020018280546102b490610c10565b80156103015780601f106102d657610100808354040283529160200191610301565b820191906000526020600020905b8154815290600101906020018083116102e457829003601f168201915b5050505050905090565b600033610319818585610555565b60019150505b92915050565b600033610333858285610679565b61033e8585856106f3565b506001949350505050565b60003361031981858561035c838361048f565b6103669190610c61565b610555565b6005546001600160a01b0316331461039e5760405162461bcd60e51b815260040161039590610c79565b60405180910390fd5b6103bd826103ae6012600a610d92565b6103b89084610d9e565b6108c1565b5050565b6005546001600160a01b031633146103eb5760405162461bcd60e51b815260040161039590610c79565b6103f560006109a0565b565b60606004805461028890610c10565b60003381610414828661048f565b9050838110156104745760405162461bcd60e51b815260206004820152602560248201527f45524332303a2064656372656173656420616c6c6f77616e63652062656c6f77604482015264207a65726f60d81b6064820152608401610395565b61033e8286868403610555565b6000336103198185856106f3565b6001600160a01b03918216600090815260016020908152604080832093909416825291909152205490565b6005546001600160a01b031633146104e45760405162461bcd60e51b815260040161039590610c79565b6001600160a01b0381166105495760405162461bcd60e51b815260206004820152602660248201527f4f776e61626c653a206e6577206f776e657220697320746865207a65726f206160448201526564647265737360d01b6064820152608401610395565b610552816109a0565b50565b6001600160a01b0383166105b75760405162461bcd60e51b8152602060048201526024808201527f45524332303a20617070726f76652066726f6d20746865207a65726f206164646044820152637265737360e01b6064820152608401610395565b6001600160a01b0382166106185760405162461bcd60e51b815260206004820152602260248201527f45524332303a20617070726f766520746f20746865207a65726f206164647265604482015261737360f01b6064820152608401610395565b6001600160a01b0383811660008181526001602090815260408083209487168084529482529182902085905590518481527f8c5be1e5ebec7d5bd14f71427d1e84f3dd0314c0f7b2291e5b200ac8c7c3b925910160405180910390a3505050565b6000610685848461048f565b905060001981146106ed57818110156106e05760405162461bcd60e51b815260206004820152601d60248201527f45524332303a20696e73756666696369656e7420616c6c6f77616e63650000006044820152606401610395565b6106ed8484848403610555565b50505050565b6001600160a01b0383166107575760405162461bcd60e51b815260206004820152602560248201527f45524332303a207472616e736665722066726f6d20746865207a65726f206164604482015264647265737360d81b6064820152608401610395565b6001600160a01b0382166107b95760405162461bcd60e51b815260206004820152602360248201527f45524332303a207472616e7366657220746f20746865207a65726f206164647260448201526265737360e81b6064820152608401610395565b6001600160a01b038316600090815260208190526040902054818110156108315760405162461bcd60e51b815260206004820152602660248201527f45524332303a207472616e7366657220616d6f756e7420657863656564732062604482015265616c616e636560d01b6064820152608401610395565b6001600160a01b03808516600090815260208190526040808220858503905591851681529081208054849290610868908490610c61565b92505081905550826001600160a01b0316846001600160a01b03167fddf252ad1be2c89b69c2b068fc378daa952ba7f163c4a11628f55a4df523b3ef846040516108b491815260200190565b60405180910390a36106ed565b6001600160a01b0382166109175760405162461bcd60e51b815260206004820152601f60248201527f45524332303a206d696e7420746f20746865207a65726f2061646472657373006044820152606401610395565b80600260008282546109299190610c61565b90915550506001600160a01b03821660009081526020819052604081208054839290610956908490610c61565b90915550506040518181526001600160a01b038316906000907fddf252ad1be2c89b69c2b068fc378daa952ba7f163c4a11628f55a4df523b3ef9060200160405180910390a35050565b600580546001600160a01b038381166001600160a01b0319831681179093556040519116919082907f8be0079c531659141344cd1fd0a4f28419497f9722a3daafe3b4186f6b6457e090600090a35050565b600060208083528351808285015260005b81811015610a1f57858101830151858201604001528201610a03565b81811115610a31576000604083870101525b50601f01601f1916929092016040019392505050565b80356001600160a01b0381168114610a5e57600080fd5b919050565b60008060408385031215610a7657600080fd5b610a7f83610a47565b946020939093013593505050565b634e487b7160e01b600052604160045260246000fd5b60008060008060808587031215610ab957600080fd5b610ac285610a47565b9350610ad060208601610a47565b925060408501359150606085013567ffffffffffffffff80821115610af457600080fd5b818701915087601f830112610b0857600080fd5b813581811115610b1a57610b1a610a8d565b604051601f8201601f19908116603f01168101908382118183101715610b4257610b42610a8d565b816040528281528a6020848701011115610b5b57600080fd5b82602086016020830137600060208483010152809550505050505092959194509250565b600080600060608486031215610b9457600080fd5b610b9d84610a47565b9250610bab60208501610a47565b9150604084013590509250925092565b600060208284031215610bcd57600080fd5b610bd682610a47565b9392505050565b60008060408385031215610bf057600080fd5b610bf983610a47565b9150610c0760208401610a47565b90509250929050565b600181811c90821680610c2457607f821691505b60208210811415610c4557634e487b7160e01b600052602260045260246000fd5b50919050565b634e487b7160e01b600052601160045260246000fd5b60008219821115610c7457610c74610c4b565b500190565b6020808252818101527f4f776e61626c653a2063616c6c6572206973206e6f7420746865206f776e6572604082015260600190565b600181815b80851115610ce9578160001904821115610ccf57610ccf610c4b565b80851615610cdc57918102915b93841c9390800290610cb3565b509250929050565b600082610d005750600161031f565b81610d0d5750600061031f565b8160018114610d235760028114610d2d57610d49565b600191505061031f565b60ff841115610d3e57610d3e610c4b565b50506001821b61031f565b5060208310610133831016604e8410600b8410161715610d6c575081810a61031f565b610d768383610cae565b8060001904821115610d8a57610d8a610c4b565b029392505050565b6000610bd68383610cf1565b6000816000190483118215151615610db857610db8610c4b565b50029056fea2646970667358221220b6557ec5fb8c236f9891216cafc1be0cfd509a1d48eb884b3dc24402994885e464736f6c634300080900334672616374616c20466c6f777320436c61696d204672616374696f6e616c697a6572a26469706673582212202f73fbba65f4abbdd3e551ea8cadb135417389c56a335997e4fa07d125670e0164736f6c63430008090033",
  "linkReferences": {},
  "deployedLinkReferences": {}
}