{
  "_format": "hh-sol-artifact-1",
  "contractName": "Claim",
  "sourceName": "contracts/Claim.sol",
  "abi": [
    {
      "inputs": [],
      "stateMutability": "nonpayable",
      "type": "constructor"
    },
    {
      "anonymous": false,
      "inputs": [
        {
          "indexed": true,
          "internalType": "address",
          "name": "owner",
          "type": "address"
        },
        {
          "indexed": true,
          "internalType": "address",
          "name": "approved",
          "type": "address"
        },
        {
          "indexed": true,
          "internalType": "uint256",
          "name": "tokenId",
          "type": "uint256"
        }
      ],
      "name": "Approval",
      "type": "event"
    },
    {
      "anonymous": false,
      "inputs": [
        {
          "indexed": true,
          "internalType": "address",
          "name": "owner",
          "type": "address"
        },
        {
          "indexed": true,
          "internalType": "address",
          "name": "operator",
          "type": "address"
        },
        {
          "indexed": false,
          "internalType": "bool",
          "name": "approved",
          "type": "bool"
        }
      ],
      "name": "ApprovalForAll",
      "type": "event"
    },
    {
      "anonymous": false,
      "inputs": [
        {
          "indexed": true,
          "internalType": "address",
          "name": "from",
          "type": "address"
        },
        {
          "indexed": true,
          "internalType": "address",
          "name": "to",
          "type": "address"
        },
        {
          "indexed": true,
          "internalType": "uint256",
          "name": "tokenId",
          "type": "uint256"
        }
      ],
      "name": "Transfer",
      "type": "event"
    },
    {
      "inputs": [
        {
          "internalType": "uint256",
          "name": "tokenId",
          "type": "uint256"
        },
        {
          "internalType": "uint256",
          "name": "argumentTokenId",
          "type": "uint256"
        },
        {
          "internalType": "address",
          "name": "account",
          "type": "address"
        }
      ],
      "name": "addArgument",
      "outputs": [],
      "stateMutability": "nonpayable",
      "type": "function"
    },
    {
      "inputs": [
        {
          "internalType": "uint256",
          "name": "tokenId",
          "type": "uint256"
        },
        {
          "internalType": "address",
          "name": "account",
          "type": "address"
        }
      ],
      "name": "addArgumentComment",
      "outputs": [],
      "stateMutability": "nonpayable",
      "type": "function"
    },
    {
      "inputs": [
        {
          "internalType": "uint256",
          "name": "tokenId",
          "type": "uint256"
        },
        {
          "internalType": "uint256",
          "name": "knowledgeBitTokenId",
          "type": "uint256"
        },
        {
          "internalType": "address",
          "name": "account",
          "type": "address"
        }
      ],
      "name": "addKnowledgeBit",
      "outputs": [],
      "stateMutability": "nonpayable",
      "type": "function"
    },
    {
      "inputs": [
        {
          "internalType": "uint256",
          "name": "tokenId",
          "type": "uint256"
        },
        {
          "internalType": "address",
          "name": "account",
          "type": "address"
        }
      ],
      "name": "addKnowledgeBitVote",
      "outputs": [],
      "stateMutability": "nonpayable",
      "type": "function"
    },
    {
      "inputs": [
        {
          "internalType": "uint256",
          "name": "tokenId",
          "type": "uint256"
        },
        {
          "internalType": "uint256",
          "name": "opinionTokenId",
          "type": "uint256"
        },
        {
          "internalType": "address",
          "name": "account",
          "type": "address"
        }
      ],
      "name": "addOpinion",
      "outputs": [],
      "stateMutability": "nonpayable",
      "type": "function"
    },
    {
      "inputs": [
        {
          "internalType": "address",
          "name": "to",
          "type": "address"
        },
        {
          "internalType": "uint256",
          "name": "tokenId",
          "type": "uint256"
        }
      ],
      "name": "approve",
      "outputs": [],
      "stateMutability": "nonpayable",
      "type": "function"
    },
    {
      "inputs": [
        {
          "internalType": "uint256",
          "name": "tokenId",
          "type": "uint256"
        },
        {
          "internalType": "uint256",
          "name": "argumentTokenId",
          "type": "uint256"
        }
      ],
      "name": "argumentIndexOf",
      "outputs": [
        {
          "internalType": "uint256",
          "name": "",
          "type": "uint256"
        }
      ],
      "stateMutability": "view",
      "type": "function"
    },
    {
      "inputs": [
        {
          "internalType": "uint256",
          "name": "tokenId",
          "type": "uint256"
        }
      ],
      "name": "argumentsOf",
      "outputs": [
        {
          "internalType": "uint256[]",
          "name": "",
          "type": "uint256[]"
        }
      ],
      "stateMutability": "view",
      "type": "function"
    },
    {
      "inputs": [
        {
          "internalType": "address",
          "name": "owner",
          "type": "address"
        }
      ],
      "name": "balanceOf",
      "outputs": [
        {
          "internalType": "uint256",
          "name": "",
          "type": "uint256"
        }
      ],
      "stateMutability": "view",
      "type": "function"
    },
    {
      "inputs": [
        {
          "internalType": "uint256",
          "name": "argumentTokenId",
          "type": "uint256"
        }
      ],
      "name": "claimOfArgument",
      "outputs": [
        {
          "internalType": "uint256",
          "name": "",
          "type": "uint256"
        }
      ],
      "stateMutability": "view",
      "type": "function"
    },
    {
      "inputs": [
        {
          "internalType": "uint256",
          "name": "opinionTokenId",
          "type": "uint256"
        }
      ],
      "name": "claimOfOpinion",
      "outputs": [
        {
          "internalType": "uint256",
          "name": "",
          "type": "uint256"
        }
      ],
      "stateMutability": "view",
      "type": "function"
    },
    {
      "inputs": [
        {
          "internalType": "uint256",
          "name": "tokenId",
          "type": "uint256"
        }
      ],
      "name": "fractionalizationContractOf",
      "outputs": [
        {
          "internalType": "address",
          "name": "",
          "type": "address"
        }
      ],
      "stateMutability": "view",
      "type": "function"
    },
    {
      "inputs": [
        {
          "internalType": "uint256",
          "name": "tokenId",
          "type": "uint256"
        }
      ],
      "name": "getApproved",
      "outputs": [
        {
          "internalType": "address",
          "name": "",
          "type": "address"
        }
      ],
      "stateMutability": "view",
      "type": "function"
    },
    {
      "inputs": [
        {
          "internalType": "address",
          "name": "owner",
          "type": "address"
        },
        {
          "internalType": "address",
          "name": "operator",
          "type": "address"
        }
      ],
      "name": "isApprovedForAll",
      "outputs": [
        {
          "internalType": "bool",
          "name": "",
          "type": "bool"
        }
      ],
      "stateMutability": "view",
      "type": "function"
    },
    {
      "inputs": [
        {
          "internalType": "uint256",
          "name": "tokenId",
          "type": "uint256"
        },
        {
          "internalType": "uint256",
          "name": "knowledgeBitTokenId",
          "type": "uint256"
        }
      ],
      "name": "knowledgeBitIndexOf",
      "outputs": [
        {
          "internalType": "uint256",
          "name": "",
          "type": "uint256"
        }
      ],
      "stateMutability": "view",
      "type": "function"
    },
    {
      "inputs": [
        {
          "internalType": "uint256",
          "name": "tokenId",
          "type": "uint256"
        }
      ],
      "name": "knowledgeBitsOf",
      "outputs": [
        {
          "internalType": "uint256[]",
          "name": "",
          "type": "uint256[]"
        }
      ],
      "stateMutability": "view",
      "type": "function"
    },
    {
      "inputs": [
        {
          "internalType": "string",
          "name": "metadataURI",
          "type": "string"
        },
        {
          "internalType": "uint256",
          "name": "tokenId",
          "type": "uint256"
        },
        {
          "internalType": "uint256",
          "name": "fee",
          "type": "uint256"
        }
      ],
      "name": "mintToken",
      "outputs": [],
      "stateMutability": "nonpayable",
      "type": "function"
    },
    {
      "inputs": [],
      "name": "name",
      "outputs": [
        {
          "internalType": "string",
          "name": "",
          "type": "string"
        }
      ],
      "stateMutability": "view",
      "type": "function"
    },
    {
      "inputs": [
        {
          "internalType": "uint256",
          "name": "tokenId",
          "type": "uint256"
        }
      ],
      "name": "opinionsOf",
      "outputs": [
        {
          "internalType": "uint256[]",
          "name": "",
          "type": "uint256[]"
        }
      ],
      "stateMutability": "view",
      "type": "function"
    },
    {
      "inputs": [
        {
          "internalType": "uint256",
          "name": "tokenId",
          "type": "uint256"
        }
      ],
      "name": "ownerOf",
      "outputs": [
        {
          "internalType": "address",
          "name": "",
          "type": "address"
        }
      ],
      "stateMutability": "view",
      "type": "function"
    },
    {
      "inputs": [
        {
          "internalType": "address",
          "name": "from",
          "type": "address"
        },
        {
          "internalType": "address",
          "name": "to",
          "type": "address"
        },
        {
          "internalType": "uint256",
          "name": "tokenId",
          "type": "uint256"
        }
      ],
      "name": "safeTransferFrom",
      "outputs": [],
      "stateMutability": "nonpayable",
      "type": "function"
    },
    {
      "inputs": [
        {
          "internalType": "address",
          "name": "from",
          "type": "address"
        },
        {
          "internalType": "address",
          "name": "to",
          "type": "address"
        },
        {
          "internalType": "uint256",
          "name": "tokenId",
          "type": "uint256"
        },
        {
          "internalType": "bytes",
          "name": "_data",
          "type": "bytes"
        }
      ],
      "name": "safeTransferFrom",
      "outputs": [],
      "stateMutability": "nonpayable",
      "type": "function"
    },
    {
      "inputs": [
        {
          "internalType": "address",
          "name": "operator",
          "type": "address"
        },
        {
          "internalType": "bool",
          "name": "approved",
          "type": "bool"
        }
      ],
      "name": "setApprovalForAll",
      "outputs": [],
      "stateMutability": "nonpayable",
      "type": "function"
    },
    {
      "inputs": [
        {
          "internalType": "uint256",
          "name": "tokenId",
          "type": "uint256"
        },
        {
          "components": [
            {
              "internalType": "uint8",
              "name": "metaDataState",
              "type": "uint8"
            },
            {
              "internalType": "string",
              "name": "metaDataDecryptorUrl",
              "type": "string"
            },
            {
              "internalType": "string",
              "name": "metaDataDecryptorAddress",
              "type": "string"
            },
            {
              "internalType": "bytes",
              "name": "flags",
              "type": "bytes"
            },
            {
              "internalType": "bytes",
              "name": "data",
              "type": "bytes"
            },
            {
              "internalType": "bytes32",
              "name": "metaDataHash",
              "type": "bytes32"
            },
            {
              "internalType": "uint256",
              "name": "tokenId",
              "type": "uint256"
            },
            {
              "internalType": "string",
              "name": "tokenURI",
              "type": "string"
            },
            {
              "components": [
                {
                  "internalType": "address",
                  "name": "validatorAddress",
                  "type": "address"
                },
                {
                  "internalType": "uint8",
                  "name": "v",
                  "type": "uint8"
                },
                {
                  "internalType": "bytes32",
                  "name": "r",
                  "type": "bytes32"
                },
                {
                  "internalType": "bytes32",
                  "name": "s",
                  "type": "bytes32"
                }
              ],
              "internalType": "struct OceanERC721Template.MetaDataProof[]",
              "name": "metadataProofs",
              "type": "tuple[]"
            }
          ],
          "internalType": "struct OceanERC721Template.MetaDataAndTokenURI",
          "name": "_MetaDataAndTokenURI",
          "type": "tuple"
        }
      ],
      "name": "setOceanNFTMetadataAndTokenURI",
      "outputs": [],
      "stateMutability": "nonpayable",
      "type": "function"
    },
    {
      "inputs": [
        {
          "internalType": "uint256",
          "name": "tokenId",
          "type": "uint256"
        },
        {
          "internalType": "string",
          "name": "metadataURI",
          "type": "string"
        }
      ],
      "name": "setTokenURI",
      "outputs": [],
      "stateMutability": "nonpayable",
      "type": "function"
    },
    {
      "inputs": [
        {
          "internalType": "bytes4",
          "name": "interfaceId",
          "type": "bytes4"
        }
      ],
      "name": "supportsInterface",
      "outputs": [
        {
          "internalType": "bool",
          "name": "",
          "type": "bool"
        }
      ],
      "stateMutability": "view",
      "type": "function"
    },
    {
      "inputs": [],
      "name": "symbol",
      "outputs": [
        {
          "internalType": "string",
          "name": "",
          "type": "string"
        }
      ],
      "stateMutability": "view",
      "type": "function"
    },
    {
      "inputs": [
        {
          "internalType": "uint256",
          "name": "tokenId",
          "type": "uint256"
        }
      ],
      "name": "tokenURI",
      "outputs": [
        {
          "internalType": "string",
          "name": "",
          "type": "string"
        }
      ],
      "stateMutability": "view",
      "type": "function"
    },
    {
      "inputs": [
        {
          "internalType": "address",
          "name": "from",
          "type": "address"
        },
        {
          "internalType": "address",
          "name": "to",
          "type": "address"
        },
        {
          "internalType": "uint256",
          "name": "tokenId",
          "type": "uint256"
        }
      ],
      "name": "transferFrom",
      "outputs": [],
      "stateMutability": "nonpayable",
      "type": "function"
    }
  ],
  "bytecode": "0x60806040523480156200001157600080fd5b50604080518082018252601481527f4672616374616c20466c6f777320436c61696d7300000000000000000000000060208083019182528351808501909452600384527f46464300000000000000000000000000000000000000000000000000000000009084015281519192916200008c91600091620000ab565b508051620000a2906001906020840190620000ab565b505050620001a7565b828054620000b99062000151565b90600052602060002090601f016020900481019282620000dd576000855562000128565b82601f10620000f857805160ff191683800117855562000128565b8280016001018555821562000128579182015b82811115620001285782518255916020019190600101906200010b565b50620001369291506200013a565b5090565b5b808211156200013657600081556001016200013b565b600181811c908216806200016657607f821691505b60208210811415620001a1577f4e487b7100000000000000000000000000000000000000000000000000000000600052602260045260246000fd5b50919050565b614eee80620001b76000396000f3fe60806040523480156200001157600080fd5b5060043610620001f55760003560e01c80636b4535fc1162000119578063a7fdd65c11620000af578063c87b56dd116200007a578063c87b56dd1462000494578063cb97bd8014620004ab578063e376562014620004c2578063e985e9c514620004d957600080fd5b8063a7fdd65c1462000438578063b88d4fde146200044f578063c0b612141462000466578063c403a03c146200047d57600080fd5b8063724686c111620000f0578063724686c114620003e9578063924a901b146200040057806395d89b411462000417578063a22cb465146200042157600080fd5b80636b4535fc14620003a4578063704d62c514620003bb57806370a0823114620003d257600080fd5b806323b872dd116200018f5780634619d59011620001665780634619d590146200032157806361217ba714620003535780636352211e146200037657806368f7ca9c146200038d57600080fd5b806323b872dd14620002dc5780633bbdee4e14620002f357806342842e0e146200030a57600080fd5b8063081812fc11620001d0578063081812fc1462000265578063095ea7b3146200029557806312db332714620002ae578063162094c414620002c557600080fd5b806301ffc9a714620001fa57806306d6732e146200022657806306fdde03146200024c575b600080fd5b620002116200020b3660046200233e565b62000518565b60405190151581526020015b60405180910390f35b6200023d620002373660046200235e565b6200056c565b6040516200021d919062002378565b6200025662000606565b6040516200021d91906200241b565b6200027c620002763660046200235e565b620006a0565b6040516001600160a01b0390911681526020016200021d565b620002ac620002a63660046200244d565b6200072c565b005b620002ac620002bf3660046200247a565b6200084d565b620002ac620002d63660046200255f565b62000886565b620002ac620002ed366004620025aa565b62000896565b620002ac62000304366004620025eb565b620008ce565b620002ac6200031b366004620025aa565b62000971565b62000344620003323660046200235e565b6000908152600f602052604090205490565b6040519081526020016200021d565b62000344620003643660046200235e565b6000908152600c602052604090205490565b6200027c620003873660046200235e565b6200098e565b620002ac6200039e3660046200263d565b62000a07565b620002ac620003b53660046200247a565b62000b01565b6200023d620003cc3660046200235e565b62000b3a565b62000344620003e336600462002675565b62000bc8565b62000344620003fa36600462002693565b62000c51565b620003446200041136600462002693565b62000c9d565b6200025662000ce9565b620002ac62000432366004620026b6565b62000cfa565b6200027c620004493660046200235e565b62000d07565b620002ac62000460366004620026eb565b62000d51565b6200023d620004773660046200235e565b62000d8a565b620002ac6200048e3660046200263d565b62000e18565b62000256620004a53660046200235e565b62000f08565b620002ac620004bc3660046200263d565b620010a1565b620002ac620004d336600462002770565b62001194565b62000211620004ea366004620027c2565b6001600160a01b03918216600090815260056020908152604080832093909416825291909152205460ff1690565b60006001600160e01b031982166380ac58cd60e01b14806200054a57506001600160e01b03198216635b5e139f60e01b145b806200056657506301ffc9a760e01b6001600160e01b03198316145b92915050565b6060816200057a816200183d565b620005a25760405162461bcd60e51b81526004016200059990620027f1565b60405180910390fd5b6000838152600a602090815260409182902080548351818402810184019094528084529091830182828015620005f857602002820191906000526020600020905b815481526020019060010190808311620005e3575b505050505091505b50919050565b60606000805462000617906200281e565b80601f016020809104026020016040519081016040528092919081815260200182805462000645906200281e565b8015620006965780601f106200066a5761010080835404028352916020019162000696565b820191906000526020600020905b8154815290600101906020018083116200067857829003601f168201915b5050505050905090565b6000620006ad826200183d565b620007105760405162461bcd60e51b815260206004820152602c60248201527f4552433732313a20617070726f76656420717565727920666f72206e6f6e657860448201526b34b9ba32b73a103a37b5b2b760a11b606482015260840162000599565b506000908152600460205260409020546001600160a01b031690565b600062000739826200098e565b9050806001600160a01b0316836001600160a01b03161415620007a95760405162461bcd60e51b815260206004820152602160248201527f4552433732313a20617070726f76616c20746f2063757272656e74206f776e656044820152603960f91b606482015260840162000599565b336001600160a01b0382161480620007c85750620007c88133620004ea565b6200083c5760405162461bcd60e51b815260206004820152603860248201527f4552433732313a20617070726f76652063616c6c6572206973206e6f74206f7760448201527f6e6572206e6f7220617070726f76656420666f7220616c6c0000000000000000606482015260840162000599565b6200084883836200185a565b505050565b8162000859816200183d565b620008785760405162461bcd60e51b81526004016200059990620027f1565b6200084883836001620018ca565b62000892828262001911565b5050565b620008a23382620019a2565b620008c15760405162461bcd60e51b8152600401620005999062002855565b6200084883838362001a95565b81620008da816200183d565b620008f95760405162461bcd60e51b81526004016200059990620027f1565b600083815260076020526040908190205490516310273d4160e01b81526001600160a01b03909116906310273d419062000938908590600401620029f2565b600060405180830381600087803b1580156200095357600080fd5b505af115801562000968573d6000803e3d6000fd5b50505050505050565b620008488383836040518060200160405280600081525062000d51565b6000818152600260205260408120546001600160a01b031680620005665760405162461bcd60e51b815260206004820152602960248201527f4552433732313a206f776e657220717565727920666f72206e6f6e657869737460448201526832b73a103a37b5b2b760b91b606482015260840162000599565b8262000a13816200183d565b62000a325760405162461bcd60e51b81526004016200059990620027f1565b6000848152600b602090815260408083208684529091529020541562000aac5760405162461bcd60e51b815260206004820152602860248201527f417267756d656e742068617320616c7265616479206265656e20616464656420604482015267746f20636c61696d60c01b606482015260840162000599565b6000848152600a6020908152604080832080546001810182558185528385200187905587845254600b8352818420878552835281842055600c909152902084905562000afb8483600f620018ca565b50505050565b8162000b0d816200183d565b62000b2c5760405162461bcd60e51b81526004016200059990620027f1565b6200084883836003620018ca565b60608162000b48816200183d565b62000b675760405162461bcd60e51b81526004016200059990620027f1565b6000838152600d602090815260409182902080548351818402810184019094528084529091830182828015620005f85760200282019190600052602060002090815481526020019060010190808311620005e3575050505050915050919050565b60006001600160a01b03821662000c355760405162461bcd60e51b815260206004820152602a60248201527f4552433732313a2062616c616e636520717565727920666f7220746865207a65604482015269726f206164647265737360b01b606482015260840162000599565b506001600160a01b031660009081526003602052604090205490565b60008262000c5f816200183d565b62000c7e5760405162461bcd60e51b81526004016200059990620027f1565b50506000918252600b6020908152604080842092845291905290205490565b60008262000cab816200183d565b62000cca5760405162461bcd60e51b81526004016200059990620027f1565b5050600091825260096020908152604080842092845291905290205490565b60606001805462000617906200281e565b6200089233838362001c4a565b60008162000d15816200183d565b62000d345760405162461bcd60e51b81526004016200059990620027f1565b50506000908152600760205260409020546001600160a01b031690565b62000d5d3383620019a2565b62000d7c5760405162461bcd60e51b8152600401620005999062002855565b62000afb8484848462001d1b565b60608162000d98816200183d565b62000db75760405162461bcd60e51b81526004016200059990620027f1565b60008381526008602090815260409182902080548351818402810184019094528084529091830182828015620005f85760200282019190600052602060002090815481526020019060010190808311620005e3575050505050915050919050565b8262000e24816200183d565b62000e435760405162461bcd60e51b81526004016200059990620027f1565b60008481526009602090815260408083208684529091529020541562000ec25760405162461bcd60e51b815260206004820152602d60248201527f4b6e6f776c65646765206269742068617320616c7265616479206265656e206160448201526c6464656420746f20636c61696d60981b606482015260840162000599565b600084815260086020908152604080832080546001810182558185528385200187905587845254600983528184208785529092529091205562000afb848360c8620018ca565b606062000f15826200183d565b62000f7d5760405162461bcd60e51b815260206004820152603160248201527f45524337323155524953746f726167653a2055524920717565727920666f72206044820152703737b732bc34b9ba32b73a103a37b5b2b760791b606482015260840162000599565b6000828152600660205260408120805462000f98906200281e565b80601f016020809104026020016040519081016040528092919081815260200182805462000fc6906200281e565b8015620010175780601f1062000feb5761010080835404028352916020019162001017565b820191906000526020600020905b81548152906001019060200180831162000ff957829003601f168201915b50505050509050600062001045604080518082019091526007815266697066733a2f2f60c81b602082015290565b905080516000141562001059575092915050565b8151156200108e5780826040516020016200107692919062002b39565b60405160208183030381529060405292505050919050565b620010998462001d55565b949350505050565b82620010ad816200183d565b620010cc5760405162461bcd60e51b81526004016200059990620027f1565b6000848152600e6020908152604080832086845290915290205415620011455760405162461bcd60e51b815260206004820152602760248201527f4f70696e696f6e2068617320616c7265616479206265656e20616464656420746044820152666f20636c61696d60c81b606482015260840162000599565b6000848152600d6020908152604080832080546001810182558185528385200187905587845254600e8352818420878552835281842055600f909152902084905562000afb84836005620018ca565b620011a0338362001e47565b620011ac828462001911565b604080516101008101909152601660c0820190815275119c9858dd185b08119b1bdddcc811185d184813919560521b60e0830152815260009060208101620011f48562001e63565b60405160200162001206919062002b6c565b60408051808303601f19018152918152908252600160208084019190915281519081018252600080825283830191909152606080840182905260809093018190528151600280825293810190925292935090816020015b60608152602001906001900390816200125d5790505090506040518060400160405280601881526020017f4672616374616c20466c6f7773204461746120546f6b656e000000000000000081525081600081518110620012c157620012c162002b9b565b6020026020010181905250620012d78462001e63565b604051602001620012e9919062002bb1565b604051602081830303815290604052816001815181106200130e576200130e62002b9b565b602090810291909101015260408051600480825260a0820190925260009181602001602082028036833701905050905060008160008151811062001356576200135662002b9b565b60200260200101906001600160a01b031690816001600160a01b0316815250506000816001815181106200138e576200138e62002b9b565b60200260200101906001600160a01b031690816001600160a01b0316815250507305585ed45a9db5e3d0623c2e6dcdea4aae04ebe181600281518110620013d957620013d962002b9b565b60200260200101906001600160a01b031690816001600160a01b03168152505073819b194b69bc7a56c0571c2c5520c594efab27938160038151811062001424576200142462002b9b565b6001600160a01b039290921660209283029190910182015260408051600280825260608201835260009391929091830190803683370190505090506b033b2e3c9fd0803ce80000008160008151811062001482576200148262002b9b565b60200260200101818152505066038d7ea4c6800081600181518110620014ac57620014ac62002b9b565b602002602001018181525050606060006040518060a00160405280600281526020018681526020018581526020018481526020018381525090506000600467ffffffffffffffff811115620015055762001505620024a9565b6040519080825280602002602001820160405280156200152f578160200160208202803683370190505b50905073819b194b69bc7a56c0571c2c5520c594efab2793816000815181106200155d576200155d62002b9b565b60200260200101906001600160a01b031690816001600160a01b03168152505060008160018151811062001595576200159562002b9b565b60200260200101906001600160a01b031690816001600160a01b0316815250507305585ed45a9db5e3d0623c2e6dcdea4aae04ebe181600281518110620015e057620015e062002b9b565b60200260200101906001600160a01b031690816001600160a01b03168152505060008160038151811062001618576200161862002b9b565b6001600160a01b039290921660209283029190910182015260408051600580825260c08201909252600092909190820160a0803683370190505090506012816000815181106200166c576200166c62002b9b565b60200260200101818152505060128160018151811062001690576200169062002b9b565b6020026020010181815250508881600281518110620016b357620016b362002b9b565b60200260200101818152505066038d7ea4c6800081600381518110620016dd57620016dd62002b9b565b60200260200101818152505060018160048151811062001701576200170162002b9b565b6020908102919091018101919091526040805160608101825273c313e19146fc9a04470689c9d41a4d3054693531815291820184905281018290526000620017498c62001e63565b6040516020016200175b919062002bd3565b6040516020818303038152906040528a86846040516200177b9062002270565b6200178a949392919062002dc5565b604051809103906000f080158015620017a7573d6000803e3d6000fd5b5060008d8152600760205260409081902080546001600160a01b0319166001600160a01b03841690811790915590516340c10f1960e01b815233600482015260326024820152919250906340c10f1990604401600060405180830381600087803b1580156200181557600080fd5b505af11580156200182a573d6000803e3d6000fd5b5050505050505050505050505050505050565b6000908152600260205260409020546001600160a01b0316151590565b600081815260046020526040902080546001600160a01b0319166001600160a01b038416908117909155819062001891826200098e565b6001600160a01b03167f8c5be1e5ebec7d5bd14f71427d1e84f3dd0314c0f7b2291e5b200ac8c7c3b92560405160405180910390a45050565b600083815260076020526040908190205490516340c10f1960e01b81526001600160a01b03848116600483015260248201849052909116906340c10f199060440162000938565b6200191c826200183d565b620019815760405162461bcd60e51b815260206004820152602e60248201527f45524337323155524953746f726167653a2055524920736574206f66206e6f6e60448201526d32bc34b9ba32b73a103a37b5b2b760911b606482015260840162000599565b6000828152600660209081526040909120825162000848928401906200227e565b6000620019af826200183d565b62001a125760405162461bcd60e51b815260206004820152602c60248201527f4552433732313a206f70657261746f7220717565727920666f72206e6f6e657860448201526b34b9ba32b73a103a37b5b2b760a11b606482015260840162000599565b600062001a1f836200098e565b9050806001600160a01b0316846001600160a01b0316148062001a6757506001600160a01b0380821660009081526005602090815260408083209388168352929052205460ff165b80620010995750836001600160a01b031662001a8384620006a0565b6001600160a01b031614949350505050565b826001600160a01b031662001aaa826200098e565b6001600160a01b03161462001b105760405162461bcd60e51b815260206004820152602560248201527f4552433732313a207472616e736665722066726f6d20696e636f72726563742060448201526437bbb732b960d91b606482015260840162000599565b6001600160a01b03821662001b745760405162461bcd60e51b8152602060048201526024808201527f4552433732313a207472616e7366657220746f20746865207a65726f206164646044820152637265737360e01b606482015260840162000599565b62001b8183838362001f79565b62001b8e6000826200185a565b6001600160a01b038316600090815260036020526040812080546001929062001bb990849062002e9c565b90915550506001600160a01b038216600090815260036020526040812080546001929062001be990849062002eb6565b909155505060008181526002602052604080822080546001600160a01b0319166001600160a01b0386811691821790925591518493918716917fddf252ad1be2c89b69c2b068fc378daa952ba7f163c4a11628f55a4df523b3ef91a4505050565b816001600160a01b0316836001600160a01b0316141562001cae5760405162461bcd60e51b815260206004820152601960248201527f4552433732313a20617070726f766520746f2063616c6c657200000000000000604482015260640162000599565b6001600160a01b03838116600081815260056020908152604080832094871680845294825291829020805460ff191686151590811790915591519182527f17307eab39ab6107e8899845ad3d59bd9653f200f220920489ca2b5937696c31910160405180910390a3505050565b62001d2884848462001a95565b62001d368484848462001fd2565b62000afb5760405162461bcd60e51b8152600401620005999062002ed1565b606062001d62826200183d565b62001dc85760405162461bcd60e51b815260206004820152602f60248201527f4552433732314d657461646174613a2055524920717565727920666f72206e6f60448201526e3732bc34b9ba32b73a103a37b5b2b760891b606482015260840162000599565b600062001def604080518082019091526007815266697066733a2f2f60c81b602082015290565b9050600081511162001e11576040518060200160405280600081525062001e40565b8062001e1d8462001e63565b60405160200162001e3092919062002b39565b6040516020818303038152906040525b9392505050565b62000892828260405180602001604052806000815250620020ed565b60608162001e885750506040805180820190915260018152600360fc1b602082015290565b8160005b811562001eb8578062001e9f8162002f23565b915062001eb09050600a8362002f57565b915062001e8c565b60008167ffffffffffffffff81111562001ed65762001ed6620024a9565b6040519080825280601f01601f19166020018201604052801562001f01576020820181803683370190505b5090505b8415620010995762001f1960018362002e9c565b915062001f28600a8662002f6e565b62001f3590603062002eb6565b60f81b81838151811062001f4d5762001f4d62002b9b565b60200101906001600160f81b031916908160001a90535062001f71600a8662002f57565b945062001f05565b6001600160a01b03831615620008485760405162461bcd60e51b815260206004820152601960248201527f546f6b656e207472616e7366657220697320626c6f636b656400000000000000604482015260640162000599565b60006001600160a01b0384163b15620020e257604051630a85bd0160e11b81526001600160a01b0385169063150b7a02906200201990339089908890889060040162002f85565b602060405180830381600087803b1580156200203457600080fd5b505af192505050801562002067575060408051601f3d908101601f19168201909252620020649181019062002fc4565b60015b620020c7573d80801562002098576040519150601f19603f3d011682016040523d82523d6000602084013e6200209d565b606091505b508051620020bf5760405162461bcd60e51b8152600401620005999062002ed1565b805181602001fd5b6001600160e01b031916630a85bd0160e11b14905062001099565b506001949350505050565b620020f9838362002127565b62002108600084848462001fd2565b620008485760405162461bcd60e51b8152600401620005999062002ed1565b6001600160a01b0382166200217f5760405162461bcd60e51b815260206004820181905260248201527f4552433732313a206d696e7420746f20746865207a65726f2061646472657373604482015260640162000599565b6200218a816200183d565b15620021d95760405162461bcd60e51b815260206004820152601c60248201527f4552433732313a20746f6b656e20616c7265616479206d696e74656400000000604482015260640162000599565b620021e76000838362001f79565b6001600160a01b03821660009081526003602052604081208054600192906200221290849062002eb6565b909155505060008181526002602052604080822080546001600160a01b0319166001600160a01b03861690811790915590518392907fddf252ad1be2c89b69c2b068fc378daa952ba7f163c4a11628f55a4df523b3ef908290a45050565b611ed48062002fe583390190565b8280546200228c906200281e565b90600052602060002090601f016020900481019282620022b05760008555620022fb565b82601f10620022cb57805160ff1916838001178555620022fb565b82800160010185558215620022fb579182015b82811115620022fb578251825591602001919060010190620022de565b50620023099291506200230d565b5090565b5b808211156200230957600081556001016200230e565b6001600160e01b0319811681146200233b57600080fd5b50565b6000602082840312156200235157600080fd5b813562001e408162002324565b6000602082840312156200237157600080fd5b5035919050565b6020808252825182820181905260009190848201906040850190845b81811015620023b25783518352928401929184019160010162002394565b50909695505050505050565b60005b83811015620023db578181015183820152602001620023c1565b8381111562000afb5750506000910152565b6000815180845262002407816020860160208601620023be565b601f01601f19169290920160200192915050565b60208152600062001e406020830184620023ed565b80356001600160a01b03811681146200244857600080fd5b919050565b600080604083850312156200246157600080fd5b6200246c8362002430565b946020939093013593505050565b600080604083850312156200248e57600080fd5b82359150620024a06020840162002430565b90509250929050565b634e487b7160e01b600052604160045260246000fd5b600067ffffffffffffffff80841115620024dd57620024dd620024a9565b604051601f8501601f19908116603f01168101908282118183101715620025085762002508620024a9565b816040528093508581528686860111156200252257600080fd5b858560208301376000602087830101525050509392505050565b600082601f8301126200254e57600080fd5b62001e4083833560208501620024bf565b600080604083850312156200257357600080fd5b82359150602083013567ffffffffffffffff8111156200259257600080fd5b620025a0858286016200253c565b9150509250929050565b600080600060608486031215620025c057600080fd5b620025cb8462002430565b9250620025db6020850162002430565b9150604084013590509250925092565b60008060408385031215620025ff57600080fd5b82359150602083013567ffffffffffffffff8111156200261e57600080fd5b830161012081860312156200263257600080fd5b809150509250929050565b6000806000606084860312156200265357600080fd5b83359250602084013591506200266c6040850162002430565b90509250925092565b6000602082840312156200268857600080fd5b62001e408262002430565b60008060408385031215620026a757600080fd5b50508035926020909101359150565b60008060408385031215620026ca57600080fd5b620026d58362002430565b9150602083013580151581146200263257600080fd5b600080600080608085870312156200270257600080fd5b6200270d8562002430565b93506200271d6020860162002430565b925060408501359150606085013567ffffffffffffffff8111156200274157600080fd5b8501601f810187136200275357600080fd5b6200276487823560208401620024bf565b91505092959194509250565b6000806000606084860312156200278657600080fd5b833567ffffffffffffffff8111156200279e57600080fd5b620027ac868287016200253c565b9660208601359650604090950135949350505050565b60008060408385031215620027d657600080fd5b620027e18362002430565b9150620024a06020840162002430565b60208082526013908201527210db185a5b48191bd95cdb89dd08195e1a5cdd606a1b604082015260600190565b600181811c908216806200283357607f821691505b602082108114156200060057634e487b7160e01b600052602260045260246000fd5b60208082526031908201527f4552433732313a207472616e736665722063616c6c6572206973206e6f74206f6040820152701ddb995c881b9bdc88185c1c1c9bdd9959607a1b606082015260800190565b803560ff811681146200244857600080fd5b6000808335601e19843603018112620028d057600080fd5b830160208101925035905067ffffffffffffffff811115620028f157600080fd5b8036038313156200290157600080fd5b9250929050565b81835281816020850137506000828201602090810191909152601f909101601f19169091010190565b6000808335601e198436030181126200294957600080fd5b830160208101925035905067ffffffffffffffff8111156200296a57600080fd5b8060071b36038313156200290157600080fd5b8183526000602080850194508260005b85811015620029e7576001600160a01b03620029a98362002430565b16875260ff620029bb848401620028a6565b16878401526040828101359088015260608083013590880152608096870196909101906001016200298d565b509495945050505050565b6020815262002a106020820162002a0984620028a6565b60ff169052565b600062002a216020840184620028b8565b61012080604086015262002a3b6101408601838562002908565b925062002a4c6040870187620028b8565b9250601f198087860301606088015262002a6885858462002908565b945062002a796060890189620028b8565b945091508087860301608088015262002a9485858462002908565b945062002aa56080890189620028b8565b94509150808786030160a088015262002ac085858462002908565b945060a088013560c088015260c088013560e088015262002ae560e0890189620028b8565b9450915061010081888703018189015262002b0286868562002908565b955062002b12818a018a62002931565b95509250508087860301838801525062002b2e8484836200297d565b979650505050505050565b6000835162002b4d818460208801620023be565b83519083019062002b63818360208801620023be565b01949350505050565b644646444e2d60d81b81526000825162002b8e816005850160208701620023be565b9190910160050192915050565b634e487b7160e01b600052603260045260246000fd5b64464644542d60d81b81526000825162002b8e816005850160208701620023be565b64464643462d60d81b81526000825162002b8e816005850160208701620023be565b600081518084526020808501945080840160005b83811015620029e75781516001600160a01b03168752958201959082019060010162002c09565b600081518084526020808501945080840160005b83811015620029e75781518752958201959082019060010162002c44565b600081518084526020808501808196508360051b8101915082860160005b8581101562002cae57828403895262002c9b848351620023ed565b9885019893509084019060010162002c80565b5091979650505050505050565b600060a083018251845260208084015160a08287015282815180855260c08801915060c08160051b8901019450838301925060005b8181101562002d225760bf1989870301835262002d0f868551620023ed565b9550928401929184019160010162002cf0565b50505050506040830151848203604086015262002d40828262002bf5565b9150506060830151848203606086015262002d5c828262002c30565b9150506080830151848203608086015262002d78828262002c62565b95945050505050565b60018060a01b038151168252600060208201516060602085015262002daa606085018262002bf5565b90506040830151848203604086015262002d78828262002c30565b60808152600062002dda6080830187620023ed565b8281036020840152855160c0825262002df760c0830182620023ed565b90506020870151828203602084015262002e128282620023ed565b915050604087015160408301526060870151828203606084015262002e388282620023ed565b60808981015115159085015260a0808a01516001600160a01b0316908501528581036040870152915062002e6f9050818762002cbb565b915050828103606084015262002b2e818562002d81565b634e487b7160e01b600052601160045260246000fd5b60008282101562002eb15762002eb162002e86565b500390565b6000821982111562002ecc5762002ecc62002e86565b500190565b60208082526032908201527f4552433732313a207472616e7366657220746f206e6f6e20455243373231526560408201527131b2b4bb32b91034b6b83632b6b2b73a32b960711b606082015260800190565b600060001982141562002f3a5762002f3a62002e86565b5060010190565b634e487b7160e01b600052601260045260246000fd5b60008262002f695762002f6962002f41565b500490565b60008262002f805762002f8062002f41565b500690565b6001600160a01b038581168252841660208201526040810183905260806060820181905260009062002fba90830184620023ed565b9695505050505050565b60006020828403121562002fd757600080fd5b815162001e40816200232456fe60806040523480156200001157600080fd5b5060405162001ed438038062001ed4833981016040819052620000349162000861565b60405180606001604052806022815260200162001eb260229139805185906200006590600390602085019062000284565b5080516200007b90600490602084019062000284565b50505062000098620000926200022e60201b60201c565b62000232565b3060a0840181905260408301518051600090620000b957620000b9620009cb565b60200260200101906001600160a01b031690816001600160a01b031681525050308260400151600181518110620000f457620000f4620009cb565b60200260200101906001600160a01b031690816001600160a01b0316815250503081602001516001815181106200012f576200012f620009cb565b6001600160a01b03909216602092830291909101909101526040517fd282aa8600000000000000000000000000000000000000000000000000000000815273e8c6dc39602031a152440311e364818ba25c2bc19063d282aa86906200019d9086908690869060040162000c03565b606060405180830381600087803b158015620001b857600080fd5b505af1158015620001cd573d6000803e3d6000fd5b505050506040513d601f19601f82011682018060405250810190620001f3919062000cc4565b50600780546001600160a01b039283166001600160a01b031991821617909155600680549390921692169190911790555062000d5b92505050565b3390565b600580546001600160a01b038381166001600160a01b0319831681179093556040519116919082907f8be0079c531659141344cd1fd0a4f28419497f9722a3daafe3b4186f6b6457e090600090a35050565b828054620002929062000d05565b90600052602060002090601f016020900481019282620002b6576000855562000301565b82601f10620002d157805160ff191683800117855562000301565b8280016001018555821562000301579182015b8281111562000301578251825591602001919060010190620002e4565b506200030f92915062000313565b5090565b5b808211156200030f576000815560010162000314565b7f4e487b7100000000000000000000000000000000000000000000000000000000600052604160045260246000fd5b60405160a081016001600160401b03811182821017156200037e576200037e6200032a565b60405290565b60405160c081016001600160401b03811182821017156200037e576200037e6200032a565b604051601f8201601f191681016001600160401b0381118282101715620003d457620003d46200032a565b604052919050565b60005b83811015620003f9578181015183820152602001620003df565b8381111562000409576000848401525b50505050565b60006001600160401b038311156200042b576200042b6200032a565b62000440601f8401601f1916602001620003a9565b90508281528383830111156200045557600080fd5b62000465836020830184620003dc565b9392505050565b600082601f8301126200047e57600080fd5b62000465838351602085016200040f565b80518015158114620004a057600080fd5b919050565b80516001600160a01b0381168114620004a057600080fd5b60006001600160401b03821115620004d957620004d96200032a565b5060051b60200190565b600082601f830112620004f557600080fd5b815160206200050e6200050883620004bd565b620003a9565b82815260059290921b840181019181810190868411156200052e57600080fd5b8286015b84811015620005725780516001600160401b03811115620005535760008081fd5b620005638986838b01016200046c565b84525091830191830162000532565b509695505050505050565b600082601f8301126200058f57600080fd5b81516020620005a26200050883620004bd565b82815260059290921b84018101918181019086841115620005c257600080fd5b8286015b848110156200057257620005da81620004a5565b8352918301918301620005c6565b600082601f830112620005fa57600080fd5b815160206200060d6200050883620004bd565b82815260059290921b840181019181810190868411156200062d57600080fd5b8286015b8481101562000572578051835291830191830162000631565b600082601f8301126200065c57600080fd5b815160206200066f6200050883620004bd565b82815260059290921b840181019181810190868411156200068f57600080fd5b8286015b84811015620005725780516001600160401b03811115620006b45760008081fd5b8701603f81018913620006c75760008081fd5b620006da8986830151604084016200040f565b84525091830191830162000693565b600060a08284031215620006fc57600080fd5b6200070662000359565b8251815260208301519091506001600160401b03808211156200072857600080fd5b6200073685838601620004e3565b602084015260408401519150808211156200075057600080fd5b6200075e858386016200057d565b604084015260608401519150808211156200077857600080fd5b6200078685838601620005e8565b60608401526080840151915080821115620007a057600080fd5b50620007af848285016200064a565b60808301525092915050565b600060608284031215620007ce57600080fd5b604051606081016001600160401b038082118383101715620007f457620007f46200032a565b816040528293506200080685620004a5565b835260208501519150808211156200081d57600080fd5b6200082b868387016200057d565b602084015260408501519150808211156200084557600080fd5b506200085485828601620005e8565b6040830152505092915050565b600080600080608085870312156200087857600080fd5b84516001600160401b03808211156200089057600080fd5b6200089e888389016200046c565b95506020870151915080821115620008b557600080fd5b9086019060c08289031215620008ca57600080fd5b620008d462000384565b825182811115620008e457600080fd5b620008f28a8286016200046c565b8252506020830151828111156200090857600080fd5b620009168a8286016200046c565b602083015250604083015160408201526060830151828111156200093957600080fd5b620009478a8286016200046c565b6060830152506200095b608084016200048f565b60808201526200096e60a08401620004a5565b60a082015260408801519095509150808211156200098b57600080fd5b6200099988838901620006e9565b93506060870151915080821115620009b057600080fd5b50620009bf87828801620007bb565b91505092959194509250565b7f4e487b7100000000000000000000000000000000000000000000000000000000600052603260045260246000fd5b6000815180845262000a14816020860160208601620003dc565b601f01601f19169290920160200192915050565b600081518084526020808501945080840160005b8381101562000a635781516001600160a01b03168752958201959082019060010162000a3c565b509495945050505050565b600081518084526020808501945080840160005b8381101562000a635781518752958201959082019060010162000a82565b600081518084526020808501808196508360051b8101915082860160005b8581101562000aec57828403895262000ad9848351620009fa565b9885019893509084019060010162000abe565b5091979650505050505050565b600060a083018251845260208084015160a08287015282815180855260c08801915060c08160051b8901019450838301925060005b8181101562000b605760bf1989870301835262000b4d868551620009fa565b9550928401929184019160010162000b2e565b50505050506040830151848203604086015262000b7e828262000a28565b9150506060830151848203606086015262000b9a828262000a6e565b9150506080830151848203608086015262000bb6828262000aa0565b95945050505050565b60018060a01b038151168252600060208201516060602085015262000be8606085018262000a28565b90506040830151848203604086015262000bb6828262000a6e565b606081526000845160c0606084015262000c22610120840182620009fa565b90506020860151605f198085840301608086015262000c428383620009fa565b9250604088015160a086015260608801519150808584030160c08601525062000c6c8282620009fa565b6080880151151560e086015260a08801516001600160a01b03166101008601528481036020860152915062000ca49050818662000af9565b9050828103604084015262000cba818562000bbf565b9695505050505050565b60008060006060848603121562000cda57600080fd5b62000ce584620004a5565b925062000cf560208501620004a5565b9150604084015190509250925092565b600181811c9082168062000d1a57607f821691505b6020821081141562000d55577f4e487b7100000000000000000000000000000000000000000000000000000000600052602260045260246000fd5b50919050565b6111478062000d6b6000396000f3fe608060405234801561001057600080fd5b506004361061010b5760003560e01c806340c10f19116100a257806395d89b411161007157806395d89b4114610243578063a457c2d71461024b578063a9059cbb1461025e578063dd62ed3e14610271578063f2fde38b1461028457600080fd5b806340c10f19146101e457806370a08231146101f7578063715018a6146102205780638da5cb5b1461022857600080fd5b806318160ddd116100de57806318160ddd1461019d57806323b872dd146101af578063313ce567146101c257806339509351146101d157600080fd5b806306fdde0314610110578063095ea7b31461012e57806310273d4114610151578063150b7a0214610166575b600080fd5b610118610297565b6040516101259190610a9f565b60405180910390f35b61014161013c366004610b10565b610329565b6040519015158152602001610125565b61016461015f366004610b3a565b610343565b005b610184610174366004610b93565b630a85bd0160e11b949350505050565b6040516001600160e01b03199091168152602001610125565b6002545b604051908152602001610125565b6101416101bd366004610c6f565b6103db565b60405160128152602001610125565b6101416101df366004610b10565b6103ff565b6101646101f2366004610b10565b610421565b6101a1610205366004610cab565b6001600160a01b031660009081526020819052604090205490565b61016461046e565b6005546040516001600160a01b039091168152602001610125565b6101186104a4565b610141610259366004610b10565b6104b3565b61014161026c366004610b10565b61052e565b6101a161027f366004610cc6565b61053c565b610164610292366004610cab565b610567565b6060600380546102a690610cf9565b80601f01602080910402602001604051908101604052809291908181526020018280546102d290610cf9565b801561031f5780601f106102f45761010080835404028352916020019161031f565b820191906000526020600020905b81548152906001019060200180831161030257829003601f168201915b5050505050905090565b600033610337818585610602565b60019150505b92915050565b6005546001600160a01b031633146103765760405162461bcd60e51b815260040161036d90610d34565b60405180910390fd5b6006546040516319a18a8560e01b81526001600160a01b03909116906319a18a85906103a6908490600401610ea8565b600060405180830381600087803b1580156103c057600080fd5b505af11580156103d4573d6000803e3d6000fd5b5050505050565b6000336103e9858285610726565b6103f48585856107a0565b506001949350505050565b600033610337818585610412838361053c565b61041c9190610fea565b610602565b6005546001600160a01b0316331461044b5760405162461bcd60e51b815260040161036d90610d34565b61046a8261045b6012600a6110e6565b61046590846110f2565b61096e565b5050565b6005546001600160a01b031633146104985760405162461bcd60e51b815260040161036d90610d34565b6104a26000610a4d565b565b6060600480546102a690610cf9565b600033816104c1828661053c565b9050838110156105215760405162461bcd60e51b815260206004820152602560248201527f45524332303a2064656372656173656420616c6c6f77616e63652062656c6f77604482015264207a65726f60d81b606482015260840161036d565b6103f48286868403610602565b6000336103378185856107a0565b6001600160a01b03918216600090815260016020908152604080832093909416825291909152205490565b6005546001600160a01b031633146105915760405162461bcd60e51b815260040161036d90610d34565b6001600160a01b0381166105f65760405162461bcd60e51b815260206004820152602660248201527f4f776e61626c653a206e6577206f776e657220697320746865207a65726f206160448201526564647265737360d01b606482015260840161036d565b6105ff81610a4d565b50565b6001600160a01b0383166106645760405162461bcd60e51b8152602060048201526024808201527f45524332303a20617070726f76652066726f6d20746865207a65726f206164646044820152637265737360e01b606482015260840161036d565b6001600160a01b0382166106c55760405162461bcd60e51b815260206004820152602260248201527f45524332303a20617070726f766520746f20746865207a65726f206164647265604482015261737360f01b606482015260840161036d565b6001600160a01b0383811660008181526001602090815260408083209487168084529482529182902085905590518481527f8c5be1e5ebec7d5bd14f71427d1e84f3dd0314c0f7b2291e5b200ac8c7c3b925910160405180910390a3505050565b6000610732848461053c565b9050600019811461079a578181101561078d5760405162461bcd60e51b815260206004820152601d60248201527f45524332303a20696e73756666696369656e7420616c6c6f77616e6365000000604482015260640161036d565b61079a8484848403610602565b50505050565b6001600160a01b0383166108045760405162461bcd60e51b815260206004820152602560248201527f45524332303a207472616e736665722066726f6d20746865207a65726f206164604482015264647265737360d81b606482015260840161036d565b6001600160a01b0382166108665760405162461bcd60e51b815260206004820152602360248201527f45524332303a207472616e7366657220746f20746865207a65726f206164647260448201526265737360e81b606482015260840161036d565b6001600160a01b038316600090815260208190526040902054818110156108de5760405162461bcd60e51b815260206004820152602660248201527f45524332303a207472616e7366657220616d6f756e7420657863656564732062604482015265616c616e636560d01b606482015260840161036d565b6001600160a01b03808516600090815260208190526040808220858503905591851681529081208054849290610915908490610fea565b92505081905550826001600160a01b0316846001600160a01b03167fddf252ad1be2c89b69c2b068fc378daa952ba7f163c4a11628f55a4df523b3ef8460405161096191815260200190565b60405180910390a361079a565b6001600160a01b0382166109c45760405162461bcd60e51b815260206004820152601f60248201527f45524332303a206d696e7420746f20746865207a65726f206164647265737300604482015260640161036d565b80600260008282546109d69190610fea565b90915550506001600160a01b03821660009081526020819052604081208054839290610a03908490610fea565b90915550506040518181526001600160a01b038316906000907fddf252ad1be2c89b69c2b068fc378daa952ba7f163c4a11628f55a4df523b3ef9060200160405180910390a35050565b600580546001600160a01b038381166001600160a01b0319831681179093556040519116919082907f8be0079c531659141344cd1fd0a4f28419497f9722a3daafe3b4186f6b6457e090600090a35050565b600060208083528351808285015260005b81811015610acc57858101830151858201604001528201610ab0565b81811115610ade576000604083870101525b50601f01601f1916929092016040019392505050565b80356001600160a01b0381168114610b0b57600080fd5b919050565b60008060408385031215610b2357600080fd5b610b2c83610af4565b946020939093013593505050565b600060208284031215610b4c57600080fd5b813567ffffffffffffffff811115610b6357600080fd5b82016101208185031215610b7657600080fd5b9392505050565b634e487b7160e01b600052604160045260246000fd5b60008060008060808587031215610ba957600080fd5b610bb285610af4565b9350610bc060208601610af4565b925060408501359150606085013567ffffffffffffffff80821115610be457600080fd5b818701915087601f830112610bf857600080fd5b813581811115610c0a57610c0a610b7d565b604051601f8201601f19908116603f01168101908382118183101715610c3257610c32610b7d565b816040528281528a6020848701011115610c4b57600080fd5b82602086016020830137600060208483010152809550505050505092959194509250565b600080600060608486031215610c8457600080fd5b610c8d84610af4565b9250610c9b60208501610af4565b9150604084013590509250925092565b600060208284031215610cbd57600080fd5b610b7682610af4565b60008060408385031215610cd957600080fd5b610ce283610af4565b9150610cf060208401610af4565b90509250929050565b600181811c90821680610d0d57607f821691505b60208210811415610d2e57634e487b7160e01b600052602260045260246000fd5b50919050565b6020808252818101527f4f776e61626c653a2063616c6c6572206973206e6f7420746865206f776e6572604082015260600190565b803560ff81168114610b0b57600080fd5b6000808335601e19843603018112610d9157600080fd5b830160208101925035905067ffffffffffffffff811115610db157600080fd5b803603831315610dc057600080fd5b9250929050565b81835281816020850137506000828201602090810191909152601f909101601f19169091010190565b6000808335601e19843603018112610e0757600080fd5b830160208101925035905067ffffffffffffffff811115610e2757600080fd5b8060071b3603831315610dc057600080fd5b8183526000602080850194508260005b85811015610e9d576001600160a01b03610e6283610af4565b16875260ff610e72848401610d69565b1687840152604082810135908801526060808301359088015260809687019690910190600101610e49565b509495945050505050565b60208152610ec360208201610ebc84610d69565b60ff169052565b6000610ed26020840184610d7a565b610120806040860152610eea61014086018385610dc7565b9250610ef96040870187610d7a565b9250601f1980878603016060880152610f13858584610dc7565b9450610f226060890189610d7a565b9450915080878603016080880152610f3b858584610dc7565b9450610f4a6080890189610d7a565b94509150808786030160a0880152610f63858584610dc7565b945060a088013560c088015260c088013560e0880152610f8660e0890189610d7a565b94509150610100818887030181890152610fa1868685610dc7565b9550610faf818a018a610df0565b955092505080878603018388015250610fc9848483610e39565b979650505050505050565b634e487b7160e01b600052601160045260246000fd5b60008219821115610ffd57610ffd610fd4565b500190565b600181815b8085111561103d57816000190482111561102357611023610fd4565b8085161561103057918102915b93841c9390800290611007565b509250929050565b6000826110545750600161033d565b816110615750600061033d565b816001811461107757600281146110815761109d565b600191505061033d565b60ff84111561109257611092610fd4565b50506001821b61033d565b5060208310610133831016604e8410600b84101617156110c0575081810a61033d565b6110ca8383611002565b80600019048211156110de576110de610fd4565b029392505050565b6000610b768383611045565b600081600019048311821515161561110c5761110c610fd4565b50029056fea26469706673582212206fb3989bef386c973f987c90a82e0d6aec2ab54d0149c549379fad14e1bac3d664736f6c634300080900334672616374616c20466c6f777320436c61696d204672616374696f6e616c697a6572a2646970667358221220ff50e8f785558f99f86de5eb9d80b60ccf9cabc0f2dc3a6841e021a4f074710064736f6c63430008090033",
  "linkReferences": {},
  "deployedLinkReferences": {}
}