{
  "_format": "hh-sol-artifact-1",
  "contractName": "Claim",
  "sourceName": "contracts/Claim.sol",
  "abi": [
    {
      "inputs": [],
      "stateMutability": "nonpayable",
      "type": "constructor"
    },
    {
      "anonymous": false,
      "inputs": [
        {
          "indexed": true,
          "internalType": "address",
          "name": "owner",
          "type": "address"
        },
        {
          "indexed": true,
          "internalType": "address",
          "name": "approved",
          "type": "address"
        },
        {
          "indexed": true,
          "internalType": "uint256",
          "name": "tokenId",
          "type": "uint256"
        }
      ],
      "name": "Approval",
      "type": "event"
    },
    {
      "anonymous": false,
      "inputs": [
        {
          "indexed": true,
          "internalType": "address",
          "name": "owner",
          "type": "address"
        },
        {
          "indexed": true,
          "internalType": "address",
          "name": "operator",
          "type": "address"
        },
        {
          "indexed": false,
          "internalType": "bool",
          "name": "approved",
          "type": "bool"
        }
      ],
      "name": "ApprovalForAll",
      "type": "event"
    },
    {
      "anonymous": false,
      "inputs": [
        {
          "indexed": true,
          "internalType": "address",
          "name": "from",
          "type": "address"
        },
        {
          "indexed": true,
          "internalType": "address",
          "name": "to",
          "type": "address"
        },
        {
          "indexed": true,
          "internalType": "uint256",
          "name": "tokenId",
          "type": "uint256"
        }
      ],
      "name": "Transfer",
      "type": "event"
    },
    {
      "inputs": [
        {
          "internalType": "uint256",
          "name": "tokenId",
          "type": "uint256"
        },
        {
          "internalType": "uint256",
          "name": "argumentTokenId",
          "type": "uint256"
        },
        {
          "internalType": "address",
          "name": "account",
          "type": "address"
        }
      ],
      "name": "addArgument",
      "outputs": [],
      "stateMutability": "nonpayable",
      "type": "function"
    },
    {
      "inputs": [
        {
          "internalType": "uint256",
          "name": "tokenId",
          "type": "uint256"
        },
        {
          "internalType": "address",
          "name": "account",
          "type": "address"
        }
      ],
      "name": "addArgumentComment",
      "outputs": [],
      "stateMutability": "nonpayable",
      "type": "function"
    },
    {
      "inputs": [
        {
          "internalType": "uint256",
          "name": "tokenId",
          "type": "uint256"
        },
        {
          "internalType": "uint256",
          "name": "knowledgeBitTokenId",
          "type": "uint256"
        },
        {
          "internalType": "address",
          "name": "account",
          "type": "address"
        }
      ],
      "name": "addKnowledgeBit",
      "outputs": [],
      "stateMutability": "nonpayable",
      "type": "function"
    },
    {
      "inputs": [
        {
          "internalType": "uint256",
          "name": "tokenId",
          "type": "uint256"
        },
        {
          "internalType": "address",
          "name": "account",
          "type": "address"
        }
      ],
      "name": "addKnowledgeBitVote",
      "outputs": [],
      "stateMutability": "nonpayable",
      "type": "function"
    },
    {
      "inputs": [
        {
          "internalType": "uint256",
          "name": "tokenId",
          "type": "uint256"
        },
        {
          "internalType": "uint256",
          "name": "opinionTokenId",
          "type": "uint256"
        },
        {
          "internalType": "address",
          "name": "account",
          "type": "address"
        }
      ],
      "name": "addOpinion",
      "outputs": [],
      "stateMutability": "nonpayable",
      "type": "function"
    },
    {
      "inputs": [
        {
          "internalType": "address",
          "name": "to",
          "type": "address"
        },
        {
          "internalType": "uint256",
          "name": "tokenId",
          "type": "uint256"
        }
      ],
      "name": "approve",
      "outputs": [],
      "stateMutability": "nonpayable",
      "type": "function"
    },
    {
      "inputs": [
        {
          "internalType": "uint256",
          "name": "tokenId",
          "type": "uint256"
        },
        {
          "internalType": "uint256",
          "name": "argumentTokenId",
          "type": "uint256"
        }
      ],
      "name": "argumentIndexOf",
      "outputs": [
        {
          "internalType": "uint256",
          "name": "",
          "type": "uint256"
        }
      ],
      "stateMutability": "view",
      "type": "function"
    },
    {
      "inputs": [
        {
          "internalType": "uint256",
          "name": "tokenId",
          "type": "uint256"
        }
      ],
      "name": "argumentsOf",
      "outputs": [
        {
          "internalType": "uint256[]",
          "name": "",
          "type": "uint256[]"
        }
      ],
      "stateMutability": "view",
      "type": "function"
    },
    {
      "inputs": [
        {
          "internalType": "address",
          "name": "owner",
          "type": "address"
        }
      ],
      "name": "balanceOf",
      "outputs": [
        {
          "internalType": "uint256",
          "name": "",
          "type": "uint256"
        }
      ],
      "stateMutability": "view",
      "type": "function"
    },
    {
      "inputs": [
        {
          "internalType": "uint256",
          "name": "argumentTokenId",
          "type": "uint256"
        }
      ],
      "name": "claimOfArgument",
      "outputs": [
        {
          "internalType": "uint256",
          "name": "",
          "type": "uint256"
        }
      ],
      "stateMutability": "view",
      "type": "function"
    },
    {
      "inputs": [
        {
          "internalType": "uint256",
          "name": "opinionTokenId",
          "type": "uint256"
        }
      ],
      "name": "claimOfOpinion",
      "outputs": [
        {
          "internalType": "uint256",
          "name": "",
          "type": "uint256"
        }
      ],
      "stateMutability": "view",
      "type": "function"
    },
    {
      "inputs": [
        {
          "internalType": "uint256",
          "name": "tokenId",
          "type": "uint256"
        }
      ],
      "name": "fractionalizationContractOf",
      "outputs": [
        {
          "internalType": "address",
          "name": "",
          "type": "address"
        }
      ],
      "stateMutability": "view",
      "type": "function"
    },
    {
      "inputs": [
        {
          "internalType": "uint256",
          "name": "tokenId",
          "type": "uint256"
        }
      ],
      "name": "getApproved",
      "outputs": [
        {
          "internalType": "address",
          "name": "",
          "type": "address"
        }
      ],
      "stateMutability": "view",
      "type": "function"
    },
    {
      "inputs": [
        {
          "internalType": "address",
          "name": "owner",
          "type": "address"
        },
        {
          "internalType": "address",
          "name": "operator",
          "type": "address"
        }
      ],
      "name": "isApprovedForAll",
      "outputs": [
        {
          "internalType": "bool",
          "name": "",
          "type": "bool"
        }
      ],
      "stateMutability": "view",
      "type": "function"
    },
    {
      "inputs": [
        {
          "internalType": "uint256",
          "name": "tokenId",
          "type": "uint256"
        },
        {
          "internalType": "uint256",
          "name": "knowledgeBitTokenId",
          "type": "uint256"
        }
      ],
      "name": "knowledgeBitIndexOf",
      "outputs": [
        {
          "internalType": "uint256",
          "name": "",
          "type": "uint256"
        }
      ],
      "stateMutability": "view",
      "type": "function"
    },
    {
      "inputs": [
        {
          "internalType": "uint256",
          "name": "tokenId",
          "type": "uint256"
        }
      ],
      "name": "knowledgeBitsOf",
      "outputs": [
        {
          "internalType": "uint256[]",
          "name": "",
          "type": "uint256[]"
        }
      ],
      "stateMutability": "view",
      "type": "function"
    },
    {
      "inputs": [
        {
          "internalType": "string",
          "name": "metadataURI",
          "type": "string"
        },
        {
          "internalType": "uint256",
          "name": "tokenId",
          "type": "uint256"
        },
        {
          "components": [
            {
              "internalType": "string",
              "name": "name",
              "type": "string"
            },
            {
              "internalType": "string",
              "name": "symbol",
              "type": "string"
            },
            {
              "internalType": "uint256",
              "name": "templateIndex",
              "type": "uint256"
            },
            {
              "internalType": "string",
              "name": "tokenURI",
              "type": "string"
            },
            {
              "internalType": "bool",
              "name": "transferable",
              "type": "bool"
            },
            {
              "internalType": "address",
              "name": "owner",
              "type": "address"
            }
          ],
          "internalType": "struct OceanERC721Factory.NftCreateData",
          "name": "_NftCreateData",
          "type": "tuple"
        },
        {
          "components": [
            {
              "internalType": "uint256",
              "name": "templateIndex",
              "type": "uint256"
            },
            {
              "internalType": "string[]",
              "name": "strings",
              "type": "string[]"
            },
            {
              "internalType": "address[]",
              "name": "addresses",
              "type": "address[]"
            },
            {
              "internalType": "uint256[]",
              "name": "uints",
              "type": "uint256[]"
            },
            {
              "internalType": "bytes[]",
              "name": "bytess",
              "type": "bytes[]"
            }
          ],
          "internalType": "struct OceanERC721Factory.ErcCreateData",
          "name": "_ErcCreateData",
          "type": "tuple"
        }
      ],
      "name": "mintToken",
      "outputs": [],
      "stateMutability": "nonpayable",
      "type": "function"
    },
    {
      "inputs": [],
      "name": "name",
      "outputs": [
        {
          "internalType": "string",
          "name": "",
          "type": "string"
        }
      ],
      "stateMutability": "view",
      "type": "function"
    },
    {
      "inputs": [
        {
          "internalType": "uint256",
          "name": "tokenId",
          "type": "uint256"
        }
      ],
      "name": "opinionsOf",
      "outputs": [
        {
          "internalType": "uint256[]",
          "name": "",
          "type": "uint256[]"
        }
      ],
      "stateMutability": "view",
      "type": "function"
    },
    {
      "inputs": [
        {
          "internalType": "uint256",
          "name": "tokenId",
          "type": "uint256"
        }
      ],
      "name": "ownerOf",
      "outputs": [
        {
          "internalType": "address",
          "name": "",
          "type": "address"
        }
      ],
      "stateMutability": "view",
      "type": "function"
    },
    {
      "inputs": [
        {
          "internalType": "address",
          "name": "from",
          "type": "address"
        },
        {
          "internalType": "address",
          "name": "to",
          "type": "address"
        },
        {
          "internalType": "uint256",
          "name": "tokenId",
          "type": "uint256"
        }
      ],
      "name": "safeTransferFrom",
      "outputs": [],
      "stateMutability": "nonpayable",
      "type": "function"
    },
    {
      "inputs": [
        {
          "internalType": "address",
          "name": "from",
          "type": "address"
        },
        {
          "internalType": "address",
          "name": "to",
          "type": "address"
        },
        {
          "internalType": "uint256",
          "name": "tokenId",
          "type": "uint256"
        },
        {
          "internalType": "bytes",
          "name": "_data",
          "type": "bytes"
        }
      ],
      "name": "safeTransferFrom",
      "outputs": [],
      "stateMutability": "nonpayable",
      "type": "function"
    },
    {
      "inputs": [
        {
          "internalType": "address",
          "name": "operator",
          "type": "address"
        },
        {
          "internalType": "bool",
          "name": "approved",
          "type": "bool"
        }
      ],
      "name": "setApprovalForAll",
      "outputs": [],
      "stateMutability": "nonpayable",
      "type": "function"
    },
    {
      "inputs": [
        {
          "internalType": "uint256",
          "name": "tokenId",
          "type": "uint256"
        },
        {
          "internalType": "string",
          "name": "metadataURI",
          "type": "string"
        }
      ],
      "name": "setTokenURI",
      "outputs": [],
      "stateMutability": "nonpayable",
      "type": "function"
    },
    {
      "inputs": [
        {
          "internalType": "bytes4",
          "name": "interfaceId",
          "type": "bytes4"
        }
      ],
      "name": "supportsInterface",
      "outputs": [
        {
          "internalType": "bool",
          "name": "",
          "type": "bool"
        }
      ],
      "stateMutability": "view",
      "type": "function"
    },
    {
      "inputs": [],
      "name": "symbol",
      "outputs": [
        {
          "internalType": "string",
          "name": "",
          "type": "string"
        }
      ],
      "stateMutability": "view",
      "type": "function"
    },
    {
      "inputs": [
        {
          "internalType": "uint256",
          "name": "tokenId",
          "type": "uint256"
        }
      ],
      "name": "tokenURI",
      "outputs": [
        {
          "internalType": "string",
          "name": "",
          "type": "string"
        }
      ],
      "stateMutability": "view",
      "type": "function"
    },
    {
      "inputs": [
        {
          "internalType": "address",
          "name": "from",
          "type": "address"
        },
        {
          "internalType": "address",
          "name": "to",
          "type": "address"
        },
        {
          "internalType": "uint256",
          "name": "tokenId",
          "type": "uint256"
        }
      ],
      "name": "transferFrom",
      "outputs": [],
      "stateMutability": "nonpayable",
      "type": "function"
    }
  ],
  "bytecode": "0x60806040523480156200001157600080fd5b50604080518082018252601481527f4672616374616c20466c6f777320436c61696d7300000000000000000000000060208083019182528351808501909452600384527f46464300000000000000000000000000000000000000000000000000000000009084015281519192916200008c91600091620000ab565b508051620000a2906001906020840190620000ab565b505050620001a7565b828054620000b99062000151565b90600052602060002090601f016020900481019282620000dd576000855562000128565b82601f10620000f857805160ff191683800117855562000128565b8280016001018555821562000128579182015b82811115620001285782518255916020019190600101906200010b565b50620001369291506200013a565b5090565b5b808211156200013657600081556001016200013b565b600181811c908216806200016657607f821691505b60208210811415620001a1577f4e487b7100000000000000000000000000000000000000000000000000000000600052602260045260246000fd5b50919050565b6145eb80620001b76000396000f3fe60806040523480156200001157600080fd5b5060043610620001e95760003560e01c8063704d62c5116200010d578063b88d4fde11620000a3578063c87b56dd116200007a578063c87b56dd1462000471578063c9da07181462000488578063cb97bd80146200049f578063e985e9c514620004b657600080fd5b8063b88d4fde146200042c578063c0b612141462000443578063c403a03c146200045a57600080fd5b8063924a901b11620000e4578063924a901b14620003dd57806395d89b4114620003f4578063a22cb46514620003fe578063a7fdd65c146200041557600080fd5b8063704d62c5146200039857806370a0823114620003af578063724686c114620003c657600080fd5b806323b872dd116200018357806361217ba7116200015a57806361217ba714620003305780636352211e146200035357806368f7ca9c146200036a5780636b4535fc146200038157600080fd5b806323b872dd14620002d057806342842e0e14620002e75780634619d59014620002fe57600080fd5b8063081812fc11620001c4578063081812fc1462000259578063095ea7b3146200028957806312db332714620002a2578063162094c414620002b957600080fd5b806301ffc9a714620001ee57806306d6732e146200021a57806306fdde031462000240575b600080fd5b62000205620001ff36600462001d0d565b620004f5565b60405190151581526020015b60405180910390f35b620002316200022b36600462001d2d565b62000549565b60405162000211919062001d47565b6200024a620005e3565b60405162000211919062001dea565b620002706200026a36600462001d2d565b6200067d565b6040516001600160a01b03909116815260200162000211565b620002a06200029a36600462001e1c565b62000709565b005b620002a0620002b336600462001e49565b6200082a565b620002a0620002ca36600462001f8b565b62000863565b620002a0620002e136600462001fd6565b62000873565b620002a0620002f836600462001fd6565b620008ab565b620003216200030f36600462001d2d565b6000908152600f602052604090205490565b60405190815260200162000211565b620003216200034136600462001d2d565b6000908152600c602052604090205490565b620002706200036436600462001d2d565b620008c8565b620002a06200037b36600462002017565b62000941565b620002a06200039236600462001e49565b62000a3b565b62000231620003a936600462001d2d565b62000a74565b62000321620003c03660046200204f565b62000b02565b62000321620003d73660046200206d565b62000b8b565b62000321620003ee3660046200206d565b62000bd7565b6200024a62000c23565b620002a06200040f366004620020a1565b62000c34565b620002706200042636600462001d2d565b62000c41565b620002a06200043d366004620020d0565b62000c8b565b620002316200045436600462001d2d565b62000cc4565b620002a06200046b36600462002017565b62000d52565b6200024a6200048236600462001d2d565b62000e42565b620002a062000499366004620023a1565b62000fdb565b620002a0620004b036600462002017565b620010e6565b62000205620004c7366004620024e1565b6001600160a01b03918216600090815260056020908152604080832093909416825291909152205460ff1690565b60006001600160e01b031982166380ac58cd60e01b14806200052757506001600160e01b03198216635b5e139f60e01b145b806200054357506301ffc9a760e01b6001600160e01b03198316145b92915050565b6060816200055781620011d9565b6200057f5760405162461bcd60e51b8152600401620005769062002510565b60405180910390fd5b6000838152600a602090815260409182902080548351818402810184019094528084529091830182828015620005d557602002820191906000526020600020905b815481526020019060010190808311620005c0575b505050505091505b50919050565b606060008054620005f4906200253d565b80601f016020809104026020016040519081016040528092919081815260200182805462000622906200253d565b8015620006735780601f10620006475761010080835404028352916020019162000673565b820191906000526020600020905b8154815290600101906020018083116200065557829003601f168201915b5050505050905090565b60006200068a82620011d9565b620006ed5760405162461bcd60e51b815260206004820152602c60248201527f4552433732313a20617070726f76656420717565727920666f72206e6f6e657860448201526b34b9ba32b73a103a37b5b2b760a11b606482015260840162000576565b506000908152600460205260409020546001600160a01b031690565b60006200071682620008c8565b9050806001600160a01b0316836001600160a01b03161415620007865760405162461bcd60e51b815260206004820152602160248201527f4552433732313a20617070726f76616c20746f2063757272656e74206f776e656044820152603960f91b606482015260840162000576565b336001600160a01b0382161480620007a55750620007a58133620004c7565b620008195760405162461bcd60e51b815260206004820152603860248201527f4552433732313a20617070726f76652063616c6c6572206973206e6f74206f7760448201527f6e6572206e6f7220617070726f76656420666f7220616c6c0000000000000000606482015260840162000576565b620008258383620011f6565b505050565b816200083681620011d9565b620008555760405162461bcd60e51b8152600401620005769062002510565b620008258383600162001266565b6200086f8282620012e0565b5050565b6200087f338262001371565b6200089e5760405162461bcd60e51b8152600401620005769062002574565b6200082583838362001464565b620008258383836040518060200160405280600081525062000c8b565b6000818152600260205260408120546001600160a01b031680620005435760405162461bcd60e51b815260206004820152602960248201527f4552433732313a206f776e657220717565727920666f72206e6f6e657869737460448201526832b73a103a37b5b2b760b91b606482015260840162000576565b826200094d81620011d9565b6200096c5760405162461bcd60e51b8152600401620005769062002510565b6000848152600b6020908152604080832086845290915290205415620009e65760405162461bcd60e51b815260206004820152602860248201527f417267756d656e742068617320616c7265616479206265656e20616464656420604482015267746f20636c61696d60c01b606482015260840162000576565b6000848152600a6020908152604080832080546001810182558185528385200187905587845254600b8352818420878552835281842055600c909152902084905562000a358483600f62001266565b50505050565b8162000a4781620011d9565b62000a665760405162461bcd60e51b8152600401620005769062002510565b620008258383600362001266565b60608162000a8281620011d9565b62000aa15760405162461bcd60e51b8152600401620005769062002510565b6000838152600d602090815260409182902080548351818402810184019094528084529091830182828015620005d55760200282019190600052602060002090815481526020019060010190808311620005c0575050505050915050919050565b60006001600160a01b03821662000b6f5760405162461bcd60e51b815260206004820152602a60248201527f4552433732313a2062616c616e636520717565727920666f7220746865207a65604482015269726f206164647265737360b01b606482015260840162000576565b506001600160a01b031660009081526003602052604090205490565b60008262000b9981620011d9565b62000bb85760405162461bcd60e51b8152600401620005769062002510565b50506000918252600b6020908152604080842092845291905290205490565b60008262000be581620011d9565b62000c045760405162461bcd60e51b8152600401620005769062002510565b5050600091825260096020908152604080842092845291905290205490565b606060018054620005f4906200253d565b6200086f33838362001619565b60008162000c4f81620011d9565b62000c6e5760405162461bcd60e51b8152600401620005769062002510565b50506000908152600760205260409020546001600160a01b031690565b62000c97338362001371565b62000cb65760405162461bcd60e51b8152600401620005769062002574565b62000a3584848484620016ea565b60608162000cd281620011d9565b62000cf15760405162461bcd60e51b8152600401620005769062002510565b60008381526008602090815260409182902080548351818402810184019094528084529091830182828015620005d55760200282019190600052602060002090815481526020019060010190808311620005c0575050505050915050919050565b8262000d5e81620011d9565b62000d7d5760405162461bcd60e51b8152600401620005769062002510565b60008481526009602090815260408083208684529091529020541562000dfc5760405162461bcd60e51b815260206004820152602d60248201527f4b6e6f776c65646765206269742068617320616c7265616479206265656e206160448201526c6464656420746f20636c61696d60981b606482015260840162000576565b600084815260086020908152604080832080546001810182558185528385200187905587845254600983528184208785529092529091205562000a35848360c862001266565b606062000e4f82620011d9565b62000eb75760405162461bcd60e51b815260206004820152603160248201527f45524337323155524953746f726167653a2055524920717565727920666f72206044820152703737b732bc34b9ba32b73a103a37b5b2b760791b606482015260840162000576565b6000828152600660205260408120805462000ed2906200253d565b80601f016020809104026020016040519081016040528092919081815260200182805462000f00906200253d565b801562000f515780601f1062000f255761010080835404028352916020019162000f51565b820191906000526020600020905b81548152906001019060200180831162000f3357829003601f168201915b50505050509050600062000f7f604080518082019091526007815266697066733a2f2f60c81b602082015290565b905080516000141562000f93575092915050565b81511562000fc857808260405160200162000fb0929190620025c5565b60405160208183030381529060405292505050919050565b62000fd38462001724565b949350505050565b62000fe7338462001816565b62000ff38385620012e0565b6000620010008462001832565b604051602001620010129190620025f8565b6040516020818303038152906040526040516200102f9062001c3f565b6200103b919062002627565b604051809103906000f08015801562001058573d6000803e3d6000fd5b506000858152600760205260409081902080546001600160a01b0319166001600160a01b03841690811790915590516340c10f1960e01b815233600482015260326024820152919250906340c10f1990604401600060405180830381600087803b158015620010c657600080fd5b505af1158015620010db573d6000803e3d6000fd5b505050505050505050565b82620010f281620011d9565b620011115760405162461bcd60e51b8152600401620005769062002510565b6000848152600e60209081526040808320868452909152902054156200118a5760405162461bcd60e51b815260206004820152602760248201527f4f70696e696f6e2068617320616c7265616479206265656e20616464656420746044820152666f20636c61696d60c81b606482015260840162000576565b6000848152600d6020908152604080832080546001810182558185528385200187905587845254600e8352818420878552835281842055600f909152902084905562000a358483600562001266565b6000908152600260205260409020546001600160a01b0316151590565b600081815260046020526040902080546001600160a01b0319166001600160a01b03841690811790915581906200122d82620008c8565b6001600160a01b03167f8c5be1e5ebec7d5bd14f71427d1e84f3dd0314c0f7b2291e5b200ac8c7c3b92560405160405180910390a45050565b600083815260076020526040908190205490516340c10f1960e01b81526001600160a01b03848116600483015260248201849052909116906340c10f1990604401600060405180830381600087803b158015620012c257600080fd5b505af1158015620012d7573d6000803e3d6000fd5b50505050505050565b620012eb82620011d9565b620013505760405162461bcd60e51b815260206004820152602e60248201527f45524337323155524953746f726167653a2055524920736574206f66206e6f6e60448201526d32bc34b9ba32b73a103a37b5b2b760911b606482015260840162000576565b60008281526006602090815260409091208251620008259284019062001c4d565b60006200137e82620011d9565b620013e15760405162461bcd60e51b815260206004820152602c60248201527f4552433732313a206f70657261746f7220717565727920666f72206e6f6e657860448201526b34b9ba32b73a103a37b5b2b760a11b606482015260840162000576565b6000620013ee83620008c8565b9050806001600160a01b0316846001600160a01b031614806200143657506001600160a01b0380821660009081526005602090815260408083209388168352929052205460ff165b8062000fd35750836001600160a01b031662001452846200067d565b6001600160a01b031614949350505050565b826001600160a01b03166200147982620008c8565b6001600160a01b031614620014df5760405162461bcd60e51b815260206004820152602560248201527f4552433732313a207472616e736665722066726f6d20696e636f72726563742060448201526437bbb732b960d91b606482015260840162000576565b6001600160a01b038216620015435760405162461bcd60e51b8152602060048201526024808201527f4552433732313a207472616e7366657220746f20746865207a65726f206164646044820152637265737360e01b606482015260840162000576565b6200155083838362001948565b6200155d600082620011f6565b6001600160a01b03831660009081526003602052604081208054600192906200158890849062002691565b90915550506001600160a01b0382166000908152600360205260408120805460019290620015b8908490620026ab565b909155505060008181526002602052604080822080546001600160a01b0319166001600160a01b0386811691821790925591518493918716917fddf252ad1be2c89b69c2b068fc378daa952ba7f163c4a11628f55a4df523b3ef91a4505050565b816001600160a01b0316836001600160a01b031614156200167d5760405162461bcd60e51b815260206004820152601960248201527f4552433732313a20617070726f766520746f2063616c6c657200000000000000604482015260640162000576565b6001600160a01b03838116600081815260056020908152604080832094871680845294825291829020805460ff191686151590811790915591519182527f17307eab39ab6107e8899845ad3d59bd9653f200f220920489ca2b5937696c31910160405180910390a3505050565b620016f784848462001464565b6200170584848484620019a1565b62000a355760405162461bcd60e51b81526004016200057690620026c6565b60606200173182620011d9565b620017975760405162461bcd60e51b815260206004820152602f60248201527f4552433732314d657461646174613a2055524920717565727920666f72206e6f60448201526e3732bc34b9ba32b73a103a37b5b2b760891b606482015260840162000576565b6000620017be604080518082019091526007815266697066733a2f2f60c81b602082015290565b90506000815111620017e057604051806020016040528060008152506200180f565b80620017ec8462001832565b604051602001620017ff929190620025c5565b6040516020818303038152906040525b9392505050565b6200086f82826040518060200160405280600081525062001abc565b606081620018575750506040805180820190915260018152600360fc1b602082015290565b8160005b81156200188757806200186e8162002718565b91506200187f9050600a836200274c565b91506200185b565b60008167ffffffffffffffff811115620018a557620018a562001e78565b6040519080825280601f01601f191660200182016040528015620018d0576020820181803683370190505b5090505b841562000fd357620018e860018362002691565b9150620018f7600a8662002763565b62001904906030620026ab565b60f81b8183815181106200191c576200191c6200277a565b60200101906001600160f81b031916908160001a90535062001940600a866200274c565b9450620018d4565b6001600160a01b03831615620008255760405162461bcd60e51b815260206004820152601960248201527f546f6b656e207472616e7366657220697320626c6f636b656400000000000000604482015260640162000576565b60006001600160a01b0384163b1562001ab157604051630a85bd0160e11b81526001600160a01b0385169063150b7a0290620019e890339089908890889060040162002790565b602060405180830381600087803b15801562001a0357600080fd5b505af192505050801562001a36575060408051601f3d908101601f1916820190925262001a3391810190620027cf565b60015b62001a96573d80801562001a67576040519150601f19603f3d011682016040523d82523d6000602084013e62001a6c565b606091505b50805162001a8e5760405162461bcd60e51b81526004016200057690620026c6565b805181602001fd5b6001600160e01b031916630a85bd0160e11b14905062000fd3565b506001949350505050565b62001ac8838362001af6565b62001ad76000848484620019a1565b620008255760405162461bcd60e51b81526004016200057690620026c6565b6001600160a01b03821662001b4e5760405162461bcd60e51b815260206004820181905260248201527f4552433732313a206d696e7420746f20746865207a65726f2061646472657373604482015260640162000576565b62001b5981620011d9565b1562001ba85760405162461bcd60e51b815260206004820152601c60248201527f4552433732313a20746f6b656e20616c7265616479206d696e74656400000000604482015260640162000576565b62001bb66000838362001948565b6001600160a01b038216600090815260036020526040812080546001929062001be1908490620026ab565b909155505060008181526002602052604080822080546001600160a01b0319166001600160a01b03861690811790915590518392907fddf252ad1be2c89b69c2b068fc378daa952ba7f163c4a11628f55a4df523b3ef908290a45050565b611dc680620027f083390190565b82805462001c5b906200253d565b90600052602060002090601f01602090048101928262001c7f576000855562001cca565b82601f1062001c9a57805160ff191683800117855562001cca565b8280016001018555821562001cca579182015b8281111562001cca57825182559160200191906001019062001cad565b5062001cd892915062001cdc565b5090565b5b8082111562001cd8576000815560010162001cdd565b6001600160e01b03198116811462001d0a57600080fd5b50565b60006020828403121562001d2057600080fd5b81356200180f8162001cf3565b60006020828403121562001d4057600080fd5b5035919050565b6020808252825182820181905260009190848201906040850190845b8181101562001d815783518352928401929184019160010162001d63565b50909695505050505050565b60005b8381101562001daa57818101518382015260200162001d90565b8381111562000a355750506000910152565b6000815180845262001dd681602086016020860162001d8d565b601f01601f19169290920160200192915050565b6020815260006200180f602083018462001dbc565b80356001600160a01b038116811462001e1757600080fd5b919050565b6000806040838503121562001e3057600080fd5b62001e3b8362001dff565b946020939093013593505050565b6000806040838503121562001e5d57600080fd5b8235915062001e6f6020840162001dff565b90509250929050565b634e487b7160e01b600052604160045260246000fd5b60405160a0810167ffffffffffffffff8111828210171562001eb45762001eb462001e78565b60405290565b60405160c0810167ffffffffffffffff8111828210171562001eb45762001eb462001e78565b604051601f8201601f1916810167ffffffffffffffff8111828210171562001f0c5762001f0c62001e78565b604052919050565b600082601f83011262001f2657600080fd5b813567ffffffffffffffff81111562001f435762001f4362001e78565b62001f58601f8201601f191660200162001ee0565b81815284602083860101111562001f6e57600080fd5b816020850160208301376000918101602001919091529392505050565b6000806040838503121562001f9f57600080fd5b82359150602083013567ffffffffffffffff81111562001fbe57600080fd5b62001fcc8582860162001f14565b9150509250929050565b60008060006060848603121562001fec57600080fd5b62001ff78462001dff565b9250620020076020850162001dff565b9150604084013590509250925092565b6000806000606084860312156200202d57600080fd5b8335925060208401359150620020466040850162001dff565b90509250925092565b6000602082840312156200206257600080fd5b6200180f8262001dff565b600080604083850312156200208157600080fd5b50508035926020909101359150565b8035801515811462001e1757600080fd5b60008060408385031215620020b557600080fd5b620020c08362001dff565b915062001e6f6020840162002090565b60008060008060808587031215620020e757600080fd5b620020f28562001dff565b9350620021026020860162001dff565b925060408501359150606085013567ffffffffffffffff8111156200212657600080fd5b620021348782880162001f14565b91505092959194509250565b600067ffffffffffffffff8211156200215d576200215d62001e78565b5060051b60200190565b600082601f8301126200217957600080fd5b81356020620021926200218c8362002140565b62001ee0565b82815260059290921b84018101918181019086841115620021b257600080fd5b8286015b84811015620021f757803567ffffffffffffffff811115620021d85760008081fd5b620021e88986838b010162001f14565b845250918301918301620021b6565b509695505050505050565b600082601f8301126200221457600080fd5b81356020620022276200218c8362002140565b82815260059290921b840181019181810190868411156200224757600080fd5b8286015b84811015620021f7576200225f8162001dff565b83529183019183016200224b565b600082601f8301126200227f57600080fd5b81356020620022926200218c8362002140565b82815260059290921b84018101918181019086841115620022b257600080fd5b8286015b84811015620021f75780358352918301918301620022b6565b600060a08284031215620022e257600080fd5b620022ec62001e8e565b905081358152602082013567ffffffffffffffff808211156200230e57600080fd5b6200231c8583860162002167565b602084015260408401359150808211156200233657600080fd5b620023448583860162002202565b604084015260608401359150808211156200235e57600080fd5b6200236c858386016200226d565b606084015260808401359150808211156200238657600080fd5b50620023958482850162002167565b60808301525092915050565b60008060008060808587031215620023b857600080fd5b843567ffffffffffffffff80821115620023d157600080fd5b620023df8883890162001f14565b9550602087013594506040870135915080821115620023fd57600080fd5b9086019060c082890312156200241257600080fd5b6200241c62001eba565b8235828111156200242c57600080fd5b6200243a8a82860162001f14565b8252506020830135828111156200245057600080fd5b6200245e8a82860162001f14565b602083015250604083013560408201526060830135828111156200248157600080fd5b6200248f8a82860162001f14565b606083015250620024a36080840162002090565b6080820152620024b660a0840162001dff565b60a082015293506060870135915080821115620024d257600080fd5b506200213487828801620022cf565b60008060408385031215620024f557600080fd5b620025008362001dff565b915062001e6f6020840162001dff565b60208082526013908201527210db185a5b48191bd95cdb89dd08195e1a5cdd606a1b604082015260600190565b600181811c908216806200255257607f821691505b60208210811415620005dd57634e487b7160e01b600052602260045260246000fd5b60208082526031908201527f4552433732313a207472616e736665722063616c6c6572206973206e6f74206f6040820152701ddb995c881b9bdc88185c1c1c9bdd9959607a1b606082015260800190565b60008351620025d981846020880162001d8d565b835190830190620025ef81836020880162001d8d565b01949350505050565b64464643462d60d81b8152600082516200261a81600585016020870162001d8d565b9190910160050192915050565b60408152602260408201527f4672616374616c20466c6f777320436c61696d204672616374696f6e616c697a60608201526132b960f11b608082015260a0602082015260006200180f60a083018462001dbc565b634e487b7160e01b600052601160045260246000fd5b600082821015620026a657620026a66200267b565b500390565b60008219821115620026c157620026c16200267b565b500190565b60208082526032908201527f4552433732313a207472616e7366657220746f206e6f6e20455243373231526560408201527131b2b4bb32b91034b6b83632b6b2b73a32b960711b606082015260800190565b60006000198214156200272f576200272f6200267b565b5060010190565b634e487b7160e01b600052601260045260246000fd5b6000826200275e576200275e62002736565b500490565b60008262002775576200277562002736565b500690565b634e487b7160e01b600052603260045260246000fd5b6001600160a01b0385811682528416602082015260408101839052608060608201819052600090620027c59083018462001dbc565b9695505050505050565b600060208284031215620027e257600080fd5b81516200180f8162001cf356fe60806040523480156200001157600080fd5b5060405162001dc638038062001dc683398101604081905262000034916200026a565b8151829082906200004d906003906020850190620000de565b50805162000063906004906020840190620000de565b505050620000806200007a6200008860201b60201c565b6200008c565b50506200032a565b3390565b600580546001600160a01b038381166001600160a01b0319831681179093556040519116919082907f8be0079c531659141344cd1fd0a4f28419497f9722a3daafe3b4186f6b6457e090600090a35050565b828054620000ec90620002d4565b90600052602060002090601f0160209004810192826200011057600085556200015b565b82601f106200012b57805160ff19168380011785556200015b565b828001600101855582156200015b579182015b828111156200015b5782518255916020019190600101906200013e565b50620001699291506200016d565b5090565b5b808211156200016957600081556001016200016e565b7f4e487b7100000000000000000000000000000000000000000000000000000000600052604160045260246000fd5b600082601f830112620001c557600080fd5b81516001600160401b0380821115620001e257620001e262000184565b604051601f8301601f19908116603f011681019082821181831017156200020d576200020d62000184565b816040528381526020925086838588010111156200022a57600080fd5b600091505b838210156200024e57858201830151818301840152908201906200022f565b83821115620002605760008385830101525b9695505050505050565b600080604083850312156200027e57600080fd5b82516001600160401b03808211156200029657600080fd5b620002a486838701620001b3565b93506020850151915080821115620002bb57600080fd5b50620002ca85828601620001b3565b9150509250929050565b600181811c90821680620002e957607f821691505b6020821081141562000324577f4e487b7100000000000000000000000000000000000000000000000000000000600052602260045260246000fd5b50919050565b611a8c806200033a6000396000f3fe608060405234801561001057600080fd5b50600436106101215760003560e01c8063715018a6116100ad578063a457c2d711610071578063a457c2d714610274578063a9059cbb14610287578063c9227ffd1461029a578063dd62ed3e146102ad578063f2fde38b146102c057600080fd5b8063715018a6146102235780637ac4ef8b1461022b5780638da5cb5b1461023e57806395d89b41146102595780639660ca451461026157600080fd5b806323b872dd116100f457806323b872dd146101b0578063313ce567146101c357806339509351146101d257806340c10f19146101e557806370a08231146101fa57600080fd5b806306fdde0314610126578063095ea7b314610144578063150b7a021461016757806318160ddd1461019e575b600080fd5b61012e6102d3565b60405161013b9190610dea565b60405180910390f35b610157610152366004610e29565b610365565b604051901515815260200161013b565b610185610175366004610f54565b630a85bd0160e11b949350505050565b6040516001600160e01b0319909116815260200161013b565b6002545b60405190815260200161013b565b6101576101be366004610fbf565b61037f565b6040516012815260200161013b565b6101576101e0366004610e29565b6103a3565b6101f86101f3366004610e29565b6103c5565b005b6101a2610208366004611000565b6001600160a01b031660009081526020819052604090205490565b6101f861041b565b6101f86102393660046113bd565b610451565b6005546040516001600160a01b03909116815260200161013b565b61012e6105b7565b6101f861026f366004611444565b6105c6565b610157610282366004610e29565b610658565b610157610295366004610e29565b6106d3565b6101f86102a8366004611493565b6106e1565b6101a26102bb3660046114ec565b6107d6565b6101f86102ce366004611000565b610801565b6060600380546102e290611525565b80601f016020809104026020016040519081016040528092919081815260200182805461030e90611525565b801561035b5780601f106103305761010080835404028352916020019161035b565b820191906000526020600020905b81548152906001019060200180831161033e57829003601f168201915b5050505050905090565b60003361037381858561089c565b60019150505b92915050565b60003361038d8582856109c0565b610398858585610a3a565b506001949350505050565b6000336103738185856103b683836107d6565b6103c09190611576565b61089c565b6005546001600160a01b031633146103f85760405162461bcd60e51b81526004016103ef9061158e565b60405180910390fd5b610417826104086012600a6116a7565b61041290846116b3565b610c08565b5050565b6005546001600160a01b031633146104455760405162461bcd60e51b81526004016103ef9061158e565b61044f6000610ce7565b565b3060a0840181905260208201518051600092839290916001908110610478576104786116d2565b60200260200101906001600160a01b031690816001600160a01b0316815250503083602001516002815181106104b0576104b06116d2565b6001600160a01b0390921660209283029190910190910152604051636941554360e11b815273e8c6dc39602031a152440311e364818ba25c2bc19063d282aa8690610503908890889088906004016118ed565b606060405180830381600087803b15801561051d57600080fd5b505af1158015610531573d6000803e3d6000fd5b505050506040513d601f19601f820116820180604052508101906105559190611966565b50909250905061056482610d39565b61056d81610d39565b604080516001600160a01b038085168252831660208201527fec89f5028137f6e2218f9178e2ddfa454a509f4778d9cf323e96f42a902d307f910160405180910390a15050505050565b6060600480546102e290611525565b805160208201516040808401519051638b96412b60e01b81526001600160a01b03861693638b96412b936106019391929091906004016119a9565b602060405180830381600087803b15801561061b57600080fd5b505af115801561062f573d6000803e3d6000fd5b505050506040513d601f19601f8201168201806040525081019061065391906119e9565b505050565b6000338161066682866107d6565b9050838110156106c65760405162461bcd60e51b815260206004820152602560248201527f45524332303a2064656372656173656420616c6c6f77616e63652062656c6f77604482015264207a65726f60d81b60648201526084016103ef565b610398828686840361089c565b600033610373818585610a3a565b3060a083015260405163f86b2bcf60e01b8152600090819073e8c6dc39602031a152440311e364818ba25c2bc19063f86b2bcf906107259087908790600401611a02565b6040805180830381600087803b15801561073e57600080fd5b505af1158015610752573d6000803e3d6000fd5b505050506040513d601f19601f820116820180604052508101906107769190611a27565b909250905061078482610d39565b61078d81610d39565b604080516001600160a01b038085168252831660208201527fec89f5028137f6e2218f9178e2ddfa454a509f4778d9cf323e96f42a902d307f910160405180910390a150505050565b6001600160a01b03918216600090815260016020908152604080832093909416825291909152205490565b6005546001600160a01b0316331461082b5760405162461bcd60e51b81526004016103ef9061158e565b6001600160a01b0381166108905760405162461bcd60e51b815260206004820152602660248201527f4f776e61626c653a206e6577206f776e657220697320746865207a65726f206160448201526564647265737360d01b60648201526084016103ef565b61089981610ce7565b50565b6001600160a01b0383166108fe5760405162461bcd60e51b8152602060048201526024808201527f45524332303a20617070726f76652066726f6d20746865207a65726f206164646044820152637265737360e01b60648201526084016103ef565b6001600160a01b03821661095f5760405162461bcd60e51b815260206004820152602260248201527f45524332303a20617070726f766520746f20746865207a65726f206164647265604482015261737360f01b60648201526084016103ef565b6001600160a01b0383811660008181526001602090815260408083209487168084529482529182902085905590518481527f8c5be1e5ebec7d5bd14f71427d1e84f3dd0314c0f7b2291e5b200ac8c7c3b925910160405180910390a3505050565b60006109cc84846107d6565b90506000198114610a345781811015610a275760405162461bcd60e51b815260206004820152601d60248201527f45524332303a20696e73756666696369656e7420616c6c6f77616e636500000060448201526064016103ef565b610a34848484840361089c565b50505050565b6001600160a01b038316610a9e5760405162461bcd60e51b815260206004820152602560248201527f45524332303a207472616e736665722066726f6d20746865207a65726f206164604482015264647265737360d81b60648201526084016103ef565b6001600160a01b038216610b005760405162461bcd60e51b815260206004820152602360248201527f45524332303a207472616e7366657220746f20746865207a65726f206164647260448201526265737360e81b60648201526084016103ef565b6001600160a01b03831660009081526020819052604090205481811015610b785760405162461bcd60e51b815260206004820152602660248201527f45524332303a207472616e7366657220616d6f756e7420657863656564732062604482015265616c616e636560d01b60648201526084016103ef565b6001600160a01b03808516600090815260208190526040808220858503905591851681529081208054849290610baf908490611576565b92505081905550826001600160a01b0316846001600160a01b03167fddf252ad1be2c89b69c2b068fc378daa952ba7f163c4a11628f55a4df523b3ef84604051610bfb91815260200190565b60405180910390a3610a34565b6001600160a01b038216610c5e5760405162461bcd60e51b815260206004820152601f60248201527f45524332303a206d696e7420746f20746865207a65726f20616464726573730060448201526064016103ef565b8060026000828254610c709190611576565b90915550506001600160a01b03821660009081526020819052604081208054839290610c9d908490611576565b90915550506040518181526001600160a01b038316906000907fddf252ad1be2c89b69c2b068fc378daa952ba7f163c4a11628f55a4df523b3ef9060200160405180910390a35050565b600580546001600160a01b038381166001600160a01b0319831681179093556040519116919082907f8be0079c531659141344cd1fd0a4f28419497f9722a3daafe3b4186f6b6457e090600090a35050565b6040516001600160a01b03821660248201526108999060440160408051601f198184030181529190526020810180516001600160e01b031663161765e160e11b17905280516a636f6e736f6c652e6c6f67602083016000808483855afa5050505050565b6000815180845260005b81811015610dc357602081850181015186830182015201610da7565b81811115610dd5576000602083870101525b50601f01601f19169290920160200192915050565b602081526000610dfd6020830184610d9d565b9392505050565b6001600160a01b038116811461089957600080fd5b8035610e2481610e04565b919050565b60008060408385031215610e3c57600080fd5b8235610e4781610e04565b946020939093013593505050565b634e487b7160e01b600052604160045260246000fd5b60405160c081016001600160401b0381118282101715610e8d57610e8d610e55565b60405290565b60405160a081016001600160401b0381118282101715610e8d57610e8d610e55565b604051601f8201601f191681016001600160401b0381118282101715610edd57610edd610e55565b604052919050565b600082601f830112610ef657600080fd5b81356001600160401b03811115610f0f57610f0f610e55565b610f22601f8201601f1916602001610eb5565b818152846020838601011115610f3757600080fd5b816020850160208301376000918101602001919091529392505050565b60008060008060808587031215610f6a57600080fd5b8435610f7581610e04565b93506020850135610f8581610e04565b92506040850135915060608501356001600160401b03811115610fa757600080fd5b610fb387828801610ee5565b91505092959194509250565b600080600060608486031215610fd457600080fd5b8335610fdf81610e04565b92506020840135610fef81610e04565b929592945050506040919091013590565b60006020828403121561101257600080fd5b8135610dfd81610e04565b80358015158114610e2457600080fd5b600060c0828403121561103f57600080fd5b611047610e6b565b905081356001600160401b038082111561106057600080fd5b61106c85838601610ee5565b8352602084013591508082111561108257600080fd5b61108e85838601610ee5565b60208401526040840135604084015260608401359150808211156110b157600080fd5b506110be84828501610ee5565b6060830152506110d06080830161101d565b60808201526110e160a08301610e19565b60a082015292915050565b60006001600160401b0382111561110557611105610e55565b5060051b60200190565b600082601f83011261112057600080fd5b81356020611135611130836110ec565b610eb5565b82815260059290921b8401810191818101908684111561115457600080fd5b8286015b848110156111935780356001600160401b038111156111775760008081fd5b6111858986838b0101610ee5565b845250918301918301611158565b509695505050505050565b600082601f8301126111af57600080fd5b813560206111bf611130836110ec565b82815260059290921b840181019181810190868411156111de57600080fd5b8286015b848110156111935780356111f581610e04565b83529183019183016111e2565b600082601f83011261121357600080fd5b81356020611223611130836110ec565b82815260059290921b8401810191818101908684111561124257600080fd5b8286015b848110156111935780358352918301918301611246565b600060a0828403121561126f57600080fd5b611277610e93565b90508135815260208201356001600160401b038082111561129757600080fd5b6112a38583860161110f565b602084015260408401359150808211156112bc57600080fd5b6112c88583860161119e565b604084015260608401359150808211156112e157600080fd5b6112ed85838601611202565b6060840152608084013591508082111561130657600080fd5b506113138482850161110f565b60808301525092915050565b60006060828403121561133157600080fd5b604051606081016001600160401b03828210818311171561135457611354610e55565b816040528293508435915061136882610e04565b9082526020840135908082111561137e57600080fd5b61138a8683870161119e565b602084015260408501359150808211156113a357600080fd5b506113b085828601611202565b6040830152505092915050565b6000806000606084860312156113d257600080fd5b83356001600160401b03808211156113e957600080fd5b6113f58783880161102d565b9450602086013591508082111561140b57600080fd5b6114178783880161125d565b9350604086013591508082111561142d57600080fd5b5061143a8682870161131f565b9150509250925092565b6000806040838503121561145757600080fd5b823561146281610e04565b915060208301356001600160401b0381111561147d57600080fd5b6114898582860161131f565b9150509250929050565b600080604083850312156114a657600080fd5b82356001600160401b03808211156114bd57600080fd5b6114c98683870161102d565b935060208501359150808211156114df57600080fd5b506114898582860161125d565b600080604083850312156114ff57600080fd5b823561150a81610e04565b9150602083013561151a81610e04565b809150509250929050565b600181811c9082168061153957607f821691505b6020821081141561155a57634e487b7160e01b600052602260045260246000fd5b50919050565b634e487b7160e01b600052601160045260246000fd5b6000821982111561158957611589611560565b500190565b6020808252818101527f4f776e61626c653a2063616c6c6572206973206e6f7420746865206f776e6572604082015260600190565b600181815b808511156115fe5781600019048211156115e4576115e4611560565b808516156115f157918102915b93841c93908002906115c8565b509250929050565b60008261161557506001610379565b8161162257506000610379565b816001811461163857600281146116425761165e565b6001915050610379565b60ff84111561165357611653611560565b50506001821b610379565b5060208310610133831016604e8410600b8410161715611681575081810a610379565b61168b83836115c3565b806000190482111561169f5761169f611560565b029392505050565b6000610dfd8383611606565b60008160001904831182151516156116cd576116cd611560565b500290565b634e487b7160e01b600052603260045260246000fd5b6000815160c084526116fd60c0850182610d9d565b9050602083015184820360208601526117168282610d9d565b915050604083015160408501526060830151848203606086015261173a8282610d9d565b60808581015115159087015260a0948501516001600160a01b03169490950193909352509192915050565b600081518084526020808501945080840160005b8381101561179e5781516001600160a01b031687529582019590820190600101611779565b509495945050505050565b600081518084526020808501945080840160005b8381101561179e578151875295820195908201906001016117bd565b600082825180855260208086019550808260051b84010181860160005b8481101561182457601f19868403018952611812838351610d9d565b988401989250908301906001016117f6565b5090979650505050505050565b600060a083018251845260208084015160a08287015282815180855260c08801915060c08160051b8901019450838301925060005b818110156118945760bf19898703018352611882868551610d9d565b95509284019291840191600101611866565b5050505050604083015184820360408601526118b08282611765565b915050606083015184820360608601526118ca82826117a9565b915050608083015184820360808601526118e482826117d9565b95945050505050565b60608152600061190060608301866116e8565b82810360208401526119128186611831565b9050828103604084015260018060a01b0384511681526020840151606060208301526119416060830182611765565b90506040850151828203604084015261195a82826117a9565b98975050505050505050565b60008060006060848603121561197b57600080fd5b835161198681610e04565b602085015190935061199781610e04565b80925050604084015190509250925092565b6001600160a01b03841681526060602082018190526000906119cd90830185611765565b82810360408401526119df81856117a9565b9695505050505050565b6000602082840312156119fb57600080fd5b5051919050565b604081526000611a1560408301856116e8565b82810360208401526118e48185611831565b60008060408385031215611a3a57600080fd5b8251611a4581610e04565b602084015190925061151a81610e0456fea26469706673582212208de4d0df88f6155c50a2a8de8360da271f711eb52727d4c2dde771bb6b44a0c964736f6c63430008090033a26469706673582212201c3e8c4d1596bbead5cc9c2b6f1ee1704e410bc004724e76f216af46ba66a0b064736f6c63430008090033",
  "linkReferences": {},
  "deployedLinkReferences": {}
}