{
  "_format": "hh-sol-artifact-1",
  "contractName": "ClaimFractionalizer",
  "sourceName": "contracts/ClaimFractionalizer.sol",
  "abi": [
    {
      "inputs": [
        {
          "internalType": "string",
          "name": "name",
          "type": "string"
        },
        {
          "internalType": "string",
          "name": "symbol",
          "type": "string"
        }
      ],
      "stateMutability": "nonpayable",
      "type": "constructor"
    },
    {
      "anonymous": false,
      "inputs": [
        {
          "indexed": false,
          "internalType": "address",
          "name": "",
          "type": "address"
        },
        {
          "indexed": false,
          "internalType": "address",
          "name": "",
          "type": "address"
        }
      ],
      "name": "A",
      "type": "event"
    },
    {
      "anonymous": false,
      "inputs": [
        {
          "indexed": true,
          "internalType": "address",
          "name": "owner",
          "type": "address"
        },
        {
          "indexed": true,
          "internalType": "address",
          "name": "spender",
          "type": "address"
        },
        {
          "indexed": false,
          "internalType": "uint256",
          "name": "value",
          "type": "uint256"
        }
      ],
      "name": "Approval",
      "type": "event"
    },
    {
      "anonymous": false,
      "inputs": [
        {
          "indexed": true,
          "internalType": "address",
          "name": "previousOwner",
          "type": "address"
        },
        {
          "indexed": true,
          "internalType": "address",
          "name": "newOwner",
          "type": "address"
        }
      ],
      "name": "OwnershipTransferred",
      "type": "event"
    },
    {
      "anonymous": false,
      "inputs": [
        {
          "indexed": true,
          "internalType": "address",
          "name": "from",
          "type": "address"
        },
        {
          "indexed": true,
          "internalType": "address",
          "name": "to",
          "type": "address"
        },
        {
          "indexed": false,
          "internalType": "uint256",
          "name": "value",
          "type": "uint256"
        }
      ],
      "name": "Transfer",
      "type": "event"
    },
    {
      "inputs": [
        {
          "components": [
            {
              "internalType": "string",
              "name": "name",
              "type": "string"
            },
            {
              "internalType": "string",
              "name": "symbol",
              "type": "string"
            },
            {
              "internalType": "uint256",
              "name": "templateIndex",
              "type": "uint256"
            },
            {
              "internalType": "string",
              "name": "tokenURI",
              "type": "string"
            },
            {
              "internalType": "bool",
              "name": "transferable",
              "type": "bool"
            },
            {
              "internalType": "address",
              "name": "owner",
              "type": "address"
            }
          ],
          "internalType": "struct OceanERC721Factory.NftCreateData",
          "name": "_NftCreateData",
          "type": "tuple"
        },
        {
          "components": [
            {
              "internalType": "uint256",
              "name": "templateIndex",
              "type": "uint256"
            },
            {
              "internalType": "string[]",
              "name": "strings",
              "type": "string[]"
            },
            {
              "internalType": "address[]",
              "name": "addresses",
              "type": "address[]"
            },
            {
              "internalType": "uint256[]",
              "name": "uints",
              "type": "uint256[]"
            },
            {
              "internalType": "bytes[]",
              "name": "bytess",
              "type": "bytes[]"
            }
          ],
          "internalType": "struct OceanERC721Factory.ErcCreateData",
          "name": "_ErcCreateData",
          "type": "tuple"
        }
      ],
      "name": "a",
      "outputs": [],
      "stateMutability": "nonpayable",
      "type": "function"
    },
    {
      "inputs": [
        {
          "internalType": "address",
          "name": "owner",
          "type": "address"
        },
        {
          "internalType": "address",
          "name": "spender",
          "type": "address"
        }
      ],
      "name": "allowance",
      "outputs": [
        {
          "internalType": "uint256",
          "name": "",
          "type": "uint256"
        }
      ],
      "stateMutability": "view",
      "type": "function"
    },
    {
      "inputs": [
        {
          "internalType": "address",
          "name": "spender",
          "type": "address"
        },
        {
          "internalType": "uint256",
          "name": "amount",
          "type": "uint256"
        }
      ],
      "name": "approve",
      "outputs": [
        {
          "internalType": "bool",
          "name": "",
          "type": "bool"
        }
      ],
      "stateMutability": "nonpayable",
      "type": "function"
    },
    {
      "inputs": [
        {
          "internalType": "address",
          "name": "template",
          "type": "address"
        },
        {
          "components": [
            {
              "internalType": "address",
              "name": "fixedPriceAddress",
              "type": "address"
            },
            {
              "internalType": "address[]",
              "name": "addresses",
              "type": "address[]"
            },
            {
              "internalType": "uint256[]",
              "name": "uints",
              "type": "uint256[]"
            }
          ],
          "internalType": "struct OceanERC721Factory.FixedData",
          "name": "_FixedData",
          "type": "tuple"
        }
      ],
      "name": "b",
      "outputs": [],
      "stateMutability": "nonpayable",
      "type": "function"
    },
    {
      "inputs": [
        {
          "internalType": "address",
          "name": "account",
          "type": "address"
        }
      ],
      "name": "balanceOf",
      "outputs": [
        {
          "internalType": "uint256",
          "name": "",
          "type": "uint256"
        }
      ],
      "stateMutability": "view",
      "type": "function"
    },
    {
      "inputs": [
        {
          "components": [
            {
              "internalType": "string",
              "name": "name",
              "type": "string"
            },
            {
              "internalType": "string",
              "name": "symbol",
              "type": "string"
            },
            {
              "internalType": "uint256",
              "name": "templateIndex",
              "type": "uint256"
            },
            {
              "internalType": "string",
              "name": "tokenURI",
              "type": "string"
            },
            {
              "internalType": "bool",
              "name": "transferable",
              "type": "bool"
            },
            {
              "internalType": "address",
              "name": "owner",
              "type": "address"
            }
          ],
          "internalType": "struct OceanERC721Factory.NftCreateData",
          "name": "_NftCreateData",
          "type": "tuple"
        },
        {
          "components": [
            {
              "internalType": "uint256",
              "name": "templateIndex",
              "type": "uint256"
            },
            {
              "internalType": "string[]",
              "name": "strings",
              "type": "string[]"
            },
            {
              "internalType": "address[]",
              "name": "addresses",
              "type": "address[]"
            },
            {
              "internalType": "uint256[]",
              "name": "uints",
              "type": "uint256[]"
            },
            {
              "internalType": "bytes[]",
              "name": "bytess",
              "type": "bytes[]"
            }
          ],
          "internalType": "struct OceanERC721Factory.ErcCreateData",
          "name": "_ErcCreateData",
          "type": "tuple"
        },
        {
          "components": [
            {
              "internalType": "address",
              "name": "fixedPriceAddress",
              "type": "address"
            },
            {
              "internalType": "address[]",
              "name": "addresses",
              "type": "address[]"
            },
            {
              "internalType": "uint256[]",
              "name": "uints",
              "type": "uint256[]"
            }
          ],
          "internalType": "struct OceanERC721Factory.FixedData",
          "name": "_FixedData",
          "type": "tuple"
        }
      ],
      "name": "c",
      "outputs": [],
      "stateMutability": "nonpayable",
      "type": "function"
    },
    {
      "inputs": [],
      "name": "decimals",
      "outputs": [
        {
          "internalType": "uint8",
          "name": "",
          "type": "uint8"
        }
      ],
      "stateMutability": "view",
      "type": "function"
    },
    {
      "inputs": [
        {
          "internalType": "address",
          "name": "spender",
          "type": "address"
        },
        {
          "internalType": "uint256",
          "name": "subtractedValue",
          "type": "uint256"
        }
      ],
      "name": "decreaseAllowance",
      "outputs": [
        {
          "internalType": "bool",
          "name": "",
          "type": "bool"
        }
      ],
      "stateMutability": "nonpayable",
      "type": "function"
    },
    {
      "inputs": [
        {
          "internalType": "address",
          "name": "spender",
          "type": "address"
        },
        {
          "internalType": "uint256",
          "name": "addedValue",
          "type": "uint256"
        }
      ],
      "name": "increaseAllowance",
      "outputs": [
        {
          "internalType": "bool",
          "name": "",
          "type": "bool"
        }
      ],
      "stateMutability": "nonpayable",
      "type": "function"
    },
    {
      "inputs": [
        {
          "internalType": "address",
          "name": "account",
          "type": "address"
        },
        {
          "internalType": "uint256",
          "name": "amount",
          "type": "uint256"
        }
      ],
      "name": "mint",
      "outputs": [],
      "stateMutability": "nonpayable",
      "type": "function"
    },
    {
      "inputs": [],
      "name": "name",
      "outputs": [
        {
          "internalType": "string",
          "name": "",
          "type": "string"
        }
      ],
      "stateMutability": "view",
      "type": "function"
    },
    {
      "inputs": [
        {
          "internalType": "address",
          "name": "_operator",
          "type": "address"
        },
        {
          "internalType": "address",
          "name": "_from",
          "type": "address"
        },
        {
          "internalType": "uint256",
          "name": "_tokenId",
          "type": "uint256"
        },
        {
          "internalType": "bytes",
          "name": "_data",
          "type": "bytes"
        }
      ],
      "name": "onERC721Received",
      "outputs": [
        {
          "internalType": "bytes4",
          "name": "",
          "type": "bytes4"
        }
      ],
      "stateMutability": "pure",
      "type": "function"
    },
    {
      "inputs": [],
      "name": "owner",
      "outputs": [
        {
          "internalType": "address",
          "name": "",
          "type": "address"
        }
      ],
      "stateMutability": "view",
      "type": "function"
    },
    {
      "inputs": [],
      "name": "renounceOwnership",
      "outputs": [],
      "stateMutability": "nonpayable",
      "type": "function"
    },
    {
      "inputs": [],
      "name": "symbol",
      "outputs": [
        {
          "internalType": "string",
          "name": "",
          "type": "string"
        }
      ],
      "stateMutability": "view",
      "type": "function"
    },
    {
      "inputs": [],
      "name": "totalSupply",
      "outputs": [
        {
          "internalType": "uint256",
          "name": "",
          "type": "uint256"
        }
      ],
      "stateMutability": "view",
      "type": "function"
    },
    {
      "inputs": [
        {
          "internalType": "address",
          "name": "to",
          "type": "address"
        },
        {
          "internalType": "uint256",
          "name": "amount",
          "type": "uint256"
        }
      ],
      "name": "transfer",
      "outputs": [
        {
          "internalType": "bool",
          "name": "",
          "type": "bool"
        }
      ],
      "stateMutability": "nonpayable",
      "type": "function"
    },
    {
      "inputs": [
        {
          "internalType": "address",
          "name": "from",
          "type": "address"
        },
        {
          "internalType": "address",
          "name": "to",
          "type": "address"
        },
        {
          "internalType": "uint256",
          "name": "amount",
          "type": "uint256"
        }
      ],
      "name": "transferFrom",
      "outputs": [
        {
          "internalType": "bool",
          "name": "",
          "type": "bool"
        }
      ],
      "stateMutability": "nonpayable",
      "type": "function"
    },
    {
      "inputs": [
        {
          "internalType": "address",
          "name": "newOwner",
          "type": "address"
        }
      ],
      "name": "transferOwnership",
      "outputs": [],
      "stateMutability": "nonpayable",
      "type": "function"
    }
  ],
  "bytecode": "0x60806040523480156200001157600080fd5b5060405162001dc638038062001dc683398101604081905262000034916200026a565b8151829082906200004d906003906020850190620000de565b50805162000063906004906020840190620000de565b505050620000806200007a6200008860201b60201c565b6200008c565b50506200032a565b3390565b600580546001600160a01b038381166001600160a01b0319831681179093556040519116919082907f8be0079c531659141344cd1fd0a4f28419497f9722a3daafe3b4186f6b6457e090600090a35050565b828054620000ec90620002d4565b90600052602060002090601f0160209004810192826200011057600085556200015b565b82601f106200012b57805160ff19168380011785556200015b565b828001600101855582156200015b579182015b828111156200015b5782518255916020019190600101906200013e565b50620001699291506200016d565b5090565b5b808211156200016957600081556001016200016e565b7f4e487b7100000000000000000000000000000000000000000000000000000000600052604160045260246000fd5b600082601f830112620001c557600080fd5b81516001600160401b0380821115620001e257620001e262000184565b604051601f8301601f19908116603f011681019082821181831017156200020d576200020d62000184565b816040528381526020925086838588010111156200022a57600080fd5b600091505b838210156200024e57858201830151818301840152908201906200022f565b83821115620002605760008385830101525b9695505050505050565b600080604083850312156200027e57600080fd5b82516001600160401b03808211156200029657600080fd5b620002a486838701620001b3565b93506020850151915080821115620002bb57600080fd5b50620002ca85828601620001b3565b9150509250929050565b600181811c90821680620002e957607f821691505b6020821081141562000324577f4e487b7100000000000000000000000000000000000000000000000000000000600052602260045260246000fd5b50919050565b611a8c806200033a6000396000f3fe608060405234801561001057600080fd5b50600436106101215760003560e01c8063715018a6116100ad578063a457c2d711610071578063a457c2d714610274578063a9059cbb14610287578063c9227ffd1461029a578063dd62ed3e146102ad578063f2fde38b146102c057600080fd5b8063715018a6146102235780637ac4ef8b1461022b5780638da5cb5b1461023e57806395d89b41146102595780639660ca451461026157600080fd5b806323b872dd116100f457806323b872dd146101b0578063313ce567146101c357806339509351146101d257806340c10f19146101e557806370a08231146101fa57600080fd5b806306fdde0314610126578063095ea7b314610144578063150b7a021461016757806318160ddd1461019e575b600080fd5b61012e6102d3565b60405161013b9190610dea565b60405180910390f35b610157610152366004610e29565b610365565b604051901515815260200161013b565b610185610175366004610f54565b630a85bd0160e11b949350505050565b6040516001600160e01b0319909116815260200161013b565b6002545b60405190815260200161013b565b6101576101be366004610fbf565b61037f565b6040516012815260200161013b565b6101576101e0366004610e29565b6103a3565b6101f86101f3366004610e29565b6103c5565b005b6101a2610208366004611000565b6001600160a01b031660009081526020819052604090205490565b6101f861041b565b6101f86102393660046113bd565b610451565b6005546040516001600160a01b03909116815260200161013b565b61012e6105b7565b6101f861026f366004611444565b6105c6565b610157610282366004610e29565b610658565b610157610295366004610e29565b6106d3565b6101f86102a8366004611493565b6106e1565b6101a26102bb3660046114ec565b6107d6565b6101f86102ce366004611000565b610801565b6060600380546102e290611525565b80601f016020809104026020016040519081016040528092919081815260200182805461030e90611525565b801561035b5780601f106103305761010080835404028352916020019161035b565b820191906000526020600020905b81548152906001019060200180831161033e57829003601f168201915b5050505050905090565b60003361037381858561089c565b60019150505b92915050565b60003361038d8582856109c0565b610398858585610a3a565b506001949350505050565b6000336103738185856103b683836107d6565b6103c09190611576565b61089c565b6005546001600160a01b031633146103f85760405162461bcd60e51b81526004016103ef9061158e565b60405180910390fd5b610417826104086012600a6116a7565b61041290846116b3565b610c08565b5050565b6005546001600160a01b031633146104455760405162461bcd60e51b81526004016103ef9061158e565b61044f6000610ce7565b565b3060a0840181905260208201518051600092839290916001908110610478576104786116d2565b60200260200101906001600160a01b031690816001600160a01b0316815250503083602001516002815181106104b0576104b06116d2565b6001600160a01b0390921660209283029190910190910152604051636941554360e11b815273e8c6dc39602031a152440311e364818ba25c2bc19063d282aa8690610503908890889088906004016118ed565b606060405180830381600087803b15801561051d57600080fd5b505af1158015610531573d6000803e3d6000fd5b505050506040513d601f19601f820116820180604052508101906105559190611966565b50909250905061056482610d39565b61056d81610d39565b604080516001600160a01b038085168252831660208201527fec89f5028137f6e2218f9178e2ddfa454a509f4778d9cf323e96f42a902d307f910160405180910390a15050505050565b6060600480546102e290611525565b805160208201516040808401519051638b96412b60e01b81526001600160a01b03861693638b96412b936106019391929091906004016119a9565b602060405180830381600087803b15801561061b57600080fd5b505af115801561062f573d6000803e3d6000fd5b505050506040513d601f19601f8201168201806040525081019061065391906119e9565b505050565b6000338161066682866107d6565b9050838110156106c65760405162461bcd60e51b815260206004820152602560248201527f45524332303a2064656372656173656420616c6c6f77616e63652062656c6f77604482015264207a65726f60d81b60648201526084016103ef565b610398828686840361089c565b600033610373818585610a3a565b3060a083015260405163f86b2bcf60e01b8152600090819073e8c6dc39602031a152440311e364818ba25c2bc19063f86b2bcf906107259087908790600401611a02565b6040805180830381600087803b15801561073e57600080fd5b505af1158015610752573d6000803e3d6000fd5b505050506040513d601f19601f820116820180604052508101906107769190611a27565b909250905061078482610d39565b61078d81610d39565b604080516001600160a01b038085168252831660208201527fec89f5028137f6e2218f9178e2ddfa454a509f4778d9cf323e96f42a902d307f910160405180910390a150505050565b6001600160a01b03918216600090815260016020908152604080832093909416825291909152205490565b6005546001600160a01b0316331461082b5760405162461bcd60e51b81526004016103ef9061158e565b6001600160a01b0381166108905760405162461bcd60e51b815260206004820152602660248201527f4f776e61626c653a206e6577206f776e657220697320746865207a65726f206160448201526564647265737360d01b60648201526084016103ef565b61089981610ce7565b50565b6001600160a01b0383166108fe5760405162461bcd60e51b8152602060048201526024808201527f45524332303a20617070726f76652066726f6d20746865207a65726f206164646044820152637265737360e01b60648201526084016103ef565b6001600160a01b03821661095f5760405162461bcd60e51b815260206004820152602260248201527f45524332303a20617070726f766520746f20746865207a65726f206164647265604482015261737360f01b60648201526084016103ef565b6001600160a01b0383811660008181526001602090815260408083209487168084529482529182902085905590518481527f8c5be1e5ebec7d5bd14f71427d1e84f3dd0314c0f7b2291e5b200ac8c7c3b925910160405180910390a3505050565b60006109cc84846107d6565b90506000198114610a345781811015610a275760405162461bcd60e51b815260206004820152601d60248201527f45524332303a20696e73756666696369656e7420616c6c6f77616e636500000060448201526064016103ef565b610a34848484840361089c565b50505050565b6001600160a01b038316610a9e5760405162461bcd60e51b815260206004820152602560248201527f45524332303a207472616e736665722066726f6d20746865207a65726f206164604482015264647265737360d81b60648201526084016103ef565b6001600160a01b038216610b005760405162461bcd60e51b815260206004820152602360248201527f45524332303a207472616e7366657220746f20746865207a65726f206164647260448201526265737360e81b60648201526084016103ef565b6001600160a01b03831660009081526020819052604090205481811015610b785760405162461bcd60e51b815260206004820152602660248201527f45524332303a207472616e7366657220616d6f756e7420657863656564732062604482015265616c616e636560d01b60648201526084016103ef565b6001600160a01b03808516600090815260208190526040808220858503905591851681529081208054849290610baf908490611576565b92505081905550826001600160a01b0316846001600160a01b03167fddf252ad1be2c89b69c2b068fc378daa952ba7f163c4a11628f55a4df523b3ef84604051610bfb91815260200190565b60405180910390a3610a34565b6001600160a01b038216610c5e5760405162461bcd60e51b815260206004820152601f60248201527f45524332303a206d696e7420746f20746865207a65726f20616464726573730060448201526064016103ef565b8060026000828254610c709190611576565b90915550506001600160a01b03821660009081526020819052604081208054839290610c9d908490611576565b90915550506040518181526001600160a01b038316906000907fddf252ad1be2c89b69c2b068fc378daa952ba7f163c4a11628f55a4df523b3ef9060200160405180910390a35050565b600580546001600160a01b038381166001600160a01b0319831681179093556040519116919082907f8be0079c531659141344cd1fd0a4f28419497f9722a3daafe3b4186f6b6457e090600090a35050565b6040516001600160a01b03821660248201526108999060440160408051601f198184030181529190526020810180516001600160e01b031663161765e160e11b17905280516a636f6e736f6c652e6c6f67602083016000808483855afa5050505050565b6000815180845260005b81811015610dc357602081850181015186830182015201610da7565b81811115610dd5576000602083870101525b50601f01601f19169290920160200192915050565b602081526000610dfd6020830184610d9d565b9392505050565b6001600160a01b038116811461089957600080fd5b8035610e2481610e04565b919050565b60008060408385031215610e3c57600080fd5b8235610e4781610e04565b946020939093013593505050565b634e487b7160e01b600052604160045260246000fd5b60405160c081016001600160401b0381118282101715610e8d57610e8d610e55565b60405290565b60405160a081016001600160401b0381118282101715610e8d57610e8d610e55565b604051601f8201601f191681016001600160401b0381118282101715610edd57610edd610e55565b604052919050565b600082601f830112610ef657600080fd5b81356001600160401b03811115610f0f57610f0f610e55565b610f22601f8201601f1916602001610eb5565b818152846020838601011115610f3757600080fd5b816020850160208301376000918101602001919091529392505050565b60008060008060808587031215610f6a57600080fd5b8435610f7581610e04565b93506020850135610f8581610e04565b92506040850135915060608501356001600160401b03811115610fa757600080fd5b610fb387828801610ee5565b91505092959194509250565b600080600060608486031215610fd457600080fd5b8335610fdf81610e04565b92506020840135610fef81610e04565b929592945050506040919091013590565b60006020828403121561101257600080fd5b8135610dfd81610e04565b80358015158114610e2457600080fd5b600060c0828403121561103f57600080fd5b611047610e6b565b905081356001600160401b038082111561106057600080fd5b61106c85838601610ee5565b8352602084013591508082111561108257600080fd5b61108e85838601610ee5565b60208401526040840135604084015260608401359150808211156110b157600080fd5b506110be84828501610ee5565b6060830152506110d06080830161101d565b60808201526110e160a08301610e19565b60a082015292915050565b60006001600160401b0382111561110557611105610e55565b5060051b60200190565b600082601f83011261112057600080fd5b81356020611135611130836110ec565b610eb5565b82815260059290921b8401810191818101908684111561115457600080fd5b8286015b848110156111935780356001600160401b038111156111775760008081fd5b6111858986838b0101610ee5565b845250918301918301611158565b509695505050505050565b600082601f8301126111af57600080fd5b813560206111bf611130836110ec565b82815260059290921b840181019181810190868411156111de57600080fd5b8286015b848110156111935780356111f581610e04565b83529183019183016111e2565b600082601f83011261121357600080fd5b81356020611223611130836110ec565b82815260059290921b8401810191818101908684111561124257600080fd5b8286015b848110156111935780358352918301918301611246565b600060a0828403121561126f57600080fd5b611277610e93565b90508135815260208201356001600160401b038082111561129757600080fd5b6112a38583860161110f565b602084015260408401359150808211156112bc57600080fd5b6112c88583860161119e565b604084015260608401359150808211156112e157600080fd5b6112ed85838601611202565b6060840152608084013591508082111561130657600080fd5b506113138482850161110f565b60808301525092915050565b60006060828403121561133157600080fd5b604051606081016001600160401b03828210818311171561135457611354610e55565b816040528293508435915061136882610e04565b9082526020840135908082111561137e57600080fd5b61138a8683870161119e565b602084015260408501359150808211156113a357600080fd5b506113b085828601611202565b6040830152505092915050565b6000806000606084860312156113d257600080fd5b83356001600160401b03808211156113e957600080fd5b6113f58783880161102d565b9450602086013591508082111561140b57600080fd5b6114178783880161125d565b9350604086013591508082111561142d57600080fd5b5061143a8682870161131f565b9150509250925092565b6000806040838503121561145757600080fd5b823561146281610e04565b915060208301356001600160401b0381111561147d57600080fd5b6114898582860161131f565b9150509250929050565b600080604083850312156114a657600080fd5b82356001600160401b03808211156114bd57600080fd5b6114c98683870161102d565b935060208501359150808211156114df57600080fd5b506114898582860161125d565b600080604083850312156114ff57600080fd5b823561150a81610e04565b9150602083013561151a81610e04565b809150509250929050565b600181811c9082168061153957607f821691505b6020821081141561155a57634e487b7160e01b600052602260045260246000fd5b50919050565b634e487b7160e01b600052601160045260246000fd5b6000821982111561158957611589611560565b500190565b6020808252818101527f4f776e61626c653a2063616c6c6572206973206e6f7420746865206f776e6572604082015260600190565b600181815b808511156115fe5781600019048211156115e4576115e4611560565b808516156115f157918102915b93841c93908002906115c8565b509250929050565b60008261161557506001610379565b8161162257506000610379565b816001811461163857600281146116425761165e565b6001915050610379565b60ff84111561165357611653611560565b50506001821b610379565b5060208310610133831016604e8410600b8410161715611681575081810a610379565b61168b83836115c3565b806000190482111561169f5761169f611560565b029392505050565b6000610dfd8383611606565b60008160001904831182151516156116cd576116cd611560565b500290565b634e487b7160e01b600052603260045260246000fd5b6000815160c084526116fd60c0850182610d9d565b9050602083015184820360208601526117168282610d9d565b915050604083015160408501526060830151848203606086015261173a8282610d9d565b60808581015115159087015260a0948501516001600160a01b03169490950193909352509192915050565b600081518084526020808501945080840160005b8381101561179e5781516001600160a01b031687529582019590820190600101611779565b509495945050505050565b600081518084526020808501945080840160005b8381101561179e578151875295820195908201906001016117bd565b600082825180855260208086019550808260051b84010181860160005b8481101561182457601f19868403018952611812838351610d9d565b988401989250908301906001016117f6565b5090979650505050505050565b600060a083018251845260208084015160a08287015282815180855260c08801915060c08160051b8901019450838301925060005b818110156118945760bf19898703018352611882868551610d9d565b95509284019291840191600101611866565b5050505050604083015184820360408601526118b08282611765565b915050606083015184820360608601526118ca82826117a9565b915050608083015184820360808601526118e482826117d9565b95945050505050565b60608152600061190060608301866116e8565b82810360208401526119128186611831565b9050828103604084015260018060a01b0384511681526020840151606060208301526119416060830182611765565b90506040850151828203604084015261195a82826117a9565b98975050505050505050565b60008060006060848603121561197b57600080fd5b835161198681610e04565b602085015190935061199781610e04565b80925050604084015190509250925092565b6001600160a01b03841681526060602082018190526000906119cd90830185611765565b82810360408401526119df81856117a9565b9695505050505050565b6000602082840312156119fb57600080fd5b5051919050565b604081526000611a1560408301856116e8565b82810360208401526118e48185611831565b60008060408385031215611a3a57600080fd5b8251611a4581610e04565b602084015190925061151a81610e0456fea26469706673582212208de4d0df88f6155c50a2a8de8360da271f711eb52727d4c2dde771bb6b44a0c964736f6c63430008090033",
  "linkReferences": {},
  "deployedLinkReferences": {}
}