{
  "_format": "hh-sol-artifact-1",
  "contractName": "ClaimFractionalizer",
  "sourceName": "contracts/ClaimFractionalizer.sol",
  "abi": [
    {
      "inputs": [
        {
          "internalType": "string",
          "name": "symbol",
          "type": "string"
        },
        {
          "components": [
            {
              "internalType": "string",
              "name": "name",
              "type": "string"
            },
            {
              "internalType": "string",
              "name": "symbol",
              "type": "string"
            },
            {
              "internalType": "uint256",
              "name": "templateIndex",
              "type": "uint256"
            },
            {
              "internalType": "string",
              "name": "tokenURI",
              "type": "string"
            },
            {
              "internalType": "bool",
              "name": "transferable",
              "type": "bool"
            },
            {
              "internalType": "address",
              "name": "owner",
              "type": "address"
            }
          ],
          "internalType": "struct OceanERC721Factory.NftCreateData",
          "name": "_NftCreateData",
          "type": "tuple"
        },
        {
          "components": [
            {
              "internalType": "uint256",
              "name": "templateIndex",
              "type": "uint256"
            },
            {
              "internalType": "string[]",
              "name": "strings",
              "type": "string[]"
            },
            {
              "internalType": "address[]",
              "name": "addresses",
              "type": "address[]"
            },
            {
              "internalType": "uint256[]",
              "name": "uints",
              "type": "uint256[]"
            },
            {
              "internalType": "bytes[]",
              "name": "bytess",
              "type": "bytes[]"
            }
          ],
          "internalType": "struct OceanERC721Factory.ErcCreateData",
          "name": "_ErcCreateData",
          "type": "tuple"
        },
        {
          "components": [
            {
              "internalType": "address",
              "name": "fixedPriceAddress",
              "type": "address"
            },
            {
              "internalType": "address[]",
              "name": "addresses",
              "type": "address[]"
            },
            {
              "internalType": "uint256[]",
              "name": "uints",
              "type": "uint256[]"
            }
          ],
          "internalType": "struct OceanERC721Factory.FixedData",
          "name": "_FixedData",
          "type": "tuple"
        }
      ],
      "stateMutability": "nonpayable",
      "type": "constructor"
    },
    {
      "anonymous": false,
      "inputs": [
        {
          "indexed": true,
          "internalType": "address",
          "name": "owner",
          "type": "address"
        },
        {
          "indexed": true,
          "internalType": "address",
          "name": "spender",
          "type": "address"
        },
        {
          "indexed": false,
          "internalType": "uint256",
          "name": "value",
          "type": "uint256"
        }
      ],
      "name": "Approval",
      "type": "event"
    },
    {
      "anonymous": false,
      "inputs": [
        {
          "indexed": true,
          "internalType": "address",
          "name": "previousOwner",
          "type": "address"
        },
        {
          "indexed": true,
          "internalType": "address",
          "name": "newOwner",
          "type": "address"
        }
      ],
      "name": "OwnershipTransferred",
      "type": "event"
    },
    {
      "anonymous": false,
      "inputs": [
        {
          "indexed": true,
          "internalType": "address",
          "name": "from",
          "type": "address"
        },
        {
          "indexed": true,
          "internalType": "address",
          "name": "to",
          "type": "address"
        },
        {
          "indexed": false,
          "internalType": "uint256",
          "name": "value",
          "type": "uint256"
        }
      ],
      "name": "Transfer",
      "type": "event"
    },
    {
      "inputs": [
        {
          "internalType": "address",
          "name": "owner",
          "type": "address"
        },
        {
          "internalType": "address",
          "name": "spender",
          "type": "address"
        }
      ],
      "name": "allowance",
      "outputs": [
        {
          "internalType": "uint256",
          "name": "",
          "type": "uint256"
        }
      ],
      "stateMutability": "view",
      "type": "function"
    },
    {
      "inputs": [
        {
          "internalType": "address",
          "name": "spender",
          "type": "address"
        },
        {
          "internalType": "uint256",
          "name": "amount",
          "type": "uint256"
        }
      ],
      "name": "approve",
      "outputs": [
        {
          "internalType": "bool",
          "name": "",
          "type": "bool"
        }
      ],
      "stateMutability": "nonpayable",
      "type": "function"
    },
    {
      "inputs": [
        {
          "internalType": "address",
          "name": "account",
          "type": "address"
        }
      ],
      "name": "balanceOf",
      "outputs": [
        {
          "internalType": "uint256",
          "name": "",
          "type": "uint256"
        }
      ],
      "stateMutability": "view",
      "type": "function"
    },
    {
      "inputs": [],
      "name": "decimals",
      "outputs": [
        {
          "internalType": "uint8",
          "name": "",
          "type": "uint8"
        }
      ],
      "stateMutability": "view",
      "type": "function"
    },
    {
      "inputs": [
        {
          "internalType": "address",
          "name": "spender",
          "type": "address"
        },
        {
          "internalType": "uint256",
          "name": "subtractedValue",
          "type": "uint256"
        }
      ],
      "name": "decreaseAllowance",
      "outputs": [
        {
          "internalType": "bool",
          "name": "",
          "type": "bool"
        }
      ],
      "stateMutability": "nonpayable",
      "type": "function"
    },
    {
      "inputs": [
        {
          "internalType": "address",
          "name": "spender",
          "type": "address"
        },
        {
          "internalType": "uint256",
          "name": "addedValue",
          "type": "uint256"
        }
      ],
      "name": "increaseAllowance",
      "outputs": [
        {
          "internalType": "bool",
          "name": "",
          "type": "bool"
        }
      ],
      "stateMutability": "nonpayable",
      "type": "function"
    },
    {
      "inputs": [
        {
          "internalType": "address",
          "name": "account",
          "type": "address"
        },
        {
          "internalType": "uint256",
          "name": "amount",
          "type": "uint256"
        }
      ],
      "name": "mint",
      "outputs": [],
      "stateMutability": "nonpayable",
      "type": "function"
    },
    {
      "inputs": [],
      "name": "name",
      "outputs": [
        {
          "internalType": "string",
          "name": "",
          "type": "string"
        }
      ],
      "stateMutability": "view",
      "type": "function"
    },
    {
      "inputs": [
        {
          "internalType": "address",
          "name": "_operator",
          "type": "address"
        },
        {
          "internalType": "address",
          "name": "_from",
          "type": "address"
        },
        {
          "internalType": "uint256",
          "name": "_tokenId",
          "type": "uint256"
        },
        {
          "internalType": "bytes",
          "name": "_data",
          "type": "bytes"
        }
      ],
      "name": "onERC721Received",
      "outputs": [
        {
          "internalType": "bytes4",
          "name": "",
          "type": "bytes4"
        }
      ],
      "stateMutability": "pure",
      "type": "function"
    },
    {
      "inputs": [],
      "name": "owner",
      "outputs": [
        {
          "internalType": "address",
          "name": "",
          "type": "address"
        }
      ],
      "stateMutability": "view",
      "type": "function"
    },
    {
      "inputs": [],
      "name": "renounceOwnership",
      "outputs": [],
      "stateMutability": "nonpayable",
      "type": "function"
    },
    {
      "inputs": [
        {
          "components": [
            {
              "internalType": "uint8",
              "name": "metaDataState",
              "type": "uint8"
            },
            {
              "internalType": "string",
              "name": "metaDataDecryptorUrl",
              "type": "string"
            },
            {
              "internalType": "string",
              "name": "metaDataDecryptorAddress",
              "type": "string"
            },
            {
              "internalType": "bytes",
              "name": "flags",
              "type": "bytes"
            },
            {
              "internalType": "bytes",
              "name": "data",
              "type": "bytes"
            },
            {
              "internalType": "bytes32",
              "name": "metaDataHash",
              "type": "bytes32"
            },
            {
              "internalType": "uint256",
              "name": "tokenId",
              "type": "uint256"
            },
            {
              "internalType": "string",
              "name": "tokenURI",
              "type": "string"
            },
            {
              "components": [
                {
                  "internalType": "address",
                  "name": "validatorAddress",
                  "type": "address"
                },
                {
                  "internalType": "uint8",
                  "name": "v",
                  "type": "uint8"
                },
                {
                  "internalType": "bytes32",
                  "name": "r",
                  "type": "bytes32"
                },
                {
                  "internalType": "bytes32",
                  "name": "s",
                  "type": "bytes32"
                }
              ],
              "internalType": "struct OceanERC721Template.MetaDataProof[]",
              "name": "metadataProofs",
              "type": "tuple[]"
            }
          ],
          "internalType": "struct OceanERC721Template.MetaDataAndTokenURI",
          "name": "_MetaDataAndTokenURI",
          "type": "tuple"
        }
      ],
      "name": "setOceanNFTMetadataAndTokenURI",
      "outputs": [],
      "stateMutability": "nonpayable",
      "type": "function"
    },
    {
      "inputs": [],
      "name": "symbol",
      "outputs": [
        {
          "internalType": "string",
          "name": "",
          "type": "string"
        }
      ],
      "stateMutability": "view",
      "type": "function"
    },
    {
      "inputs": [],
      "name": "totalSupply",
      "outputs": [
        {
          "internalType": "uint256",
          "name": "",
          "type": "uint256"
        }
      ],
      "stateMutability": "view",
      "type": "function"
    },
    {
      "inputs": [
        {
          "internalType": "address",
          "name": "to",
          "type": "address"
        },
        {
          "internalType": "uint256",
          "name": "amount",
          "type": "uint256"
        }
      ],
      "name": "transfer",
      "outputs": [
        {
          "internalType": "bool",
          "name": "",
          "type": "bool"
        }
      ],
      "stateMutability": "nonpayable",
      "type": "function"
    },
    {
      "inputs": [
        {
          "internalType": "address",
          "name": "from",
          "type": "address"
        },
        {
          "internalType": "address",
          "name": "to",
          "type": "address"
        },
        {
          "internalType": "uint256",
          "name": "amount",
          "type": "uint256"
        }
      ],
      "name": "transferFrom",
      "outputs": [
        {
          "internalType": "bool",
          "name": "",
          "type": "bool"
        }
      ],
      "stateMutability": "nonpayable",
      "type": "function"
    },
    {
      "inputs": [
        {
          "internalType": "address",
          "name": "newOwner",
          "type": "address"
        }
      ],
      "name": "transferOwnership",
      "outputs": [],
      "stateMutability": "nonpayable",
      "type": "function"
    }
  ],
  "bytecode": "0x60806040523480156200001157600080fd5b5060405162001ed438038062001ed4833981016040819052620000349162000861565b60405180606001604052806022815260200162001eb260229139805185906200006590600390602085019062000284565b5080516200007b90600490602084019062000284565b50505062000098620000926200022e60201b60201c565b62000232565b3060a0840181905260408301518051600090620000b957620000b9620009cb565b60200260200101906001600160a01b031690816001600160a01b031681525050308260400151600181518110620000f457620000f4620009cb565b60200260200101906001600160a01b031690816001600160a01b0316815250503081602001516001815181106200012f576200012f620009cb565b6001600160a01b03909216602092830291909101909101526040517fd282aa8600000000000000000000000000000000000000000000000000000000815273e8c6dc39602031a152440311e364818ba25c2bc19063d282aa86906200019d9086908690869060040162000c03565b606060405180830381600087803b158015620001b857600080fd5b505af1158015620001cd573d6000803e3d6000fd5b505050506040513d601f19601f82011682018060405250810190620001f3919062000cc4565b50600780546001600160a01b039283166001600160a01b031991821617909155600680549390921692169190911790555062000d5b92505050565b3390565b600580546001600160a01b038381166001600160a01b0319831681179093556040519116919082907f8be0079c531659141344cd1fd0a4f28419497f9722a3daafe3b4186f6b6457e090600090a35050565b828054620002929062000d05565b90600052602060002090601f016020900481019282620002b6576000855562000301565b82601f10620002d157805160ff191683800117855562000301565b8280016001018555821562000301579182015b8281111562000301578251825591602001919060010190620002e4565b506200030f92915062000313565b5090565b5b808211156200030f576000815560010162000314565b7f4e487b7100000000000000000000000000000000000000000000000000000000600052604160045260246000fd5b60405160a081016001600160401b03811182821017156200037e576200037e6200032a565b60405290565b60405160c081016001600160401b03811182821017156200037e576200037e6200032a565b604051601f8201601f191681016001600160401b0381118282101715620003d457620003d46200032a565b604052919050565b60005b83811015620003f9578181015183820152602001620003df565b8381111562000409576000848401525b50505050565b60006001600160401b038311156200042b576200042b6200032a565b62000440601f8401601f1916602001620003a9565b90508281528383830111156200045557600080fd5b62000465836020830184620003dc565b9392505050565b600082601f8301126200047e57600080fd5b62000465838351602085016200040f565b80518015158114620004a057600080fd5b919050565b80516001600160a01b0381168114620004a057600080fd5b60006001600160401b03821115620004d957620004d96200032a565b5060051b60200190565b600082601f830112620004f557600080fd5b815160206200050e6200050883620004bd565b620003a9565b82815260059290921b840181019181810190868411156200052e57600080fd5b8286015b84811015620005725780516001600160401b03811115620005535760008081fd5b620005638986838b01016200046c565b84525091830191830162000532565b509695505050505050565b600082601f8301126200058f57600080fd5b81516020620005a26200050883620004bd565b82815260059290921b84018101918181019086841115620005c257600080fd5b8286015b848110156200057257620005da81620004a5565b8352918301918301620005c6565b600082601f830112620005fa57600080fd5b815160206200060d6200050883620004bd565b82815260059290921b840181019181810190868411156200062d57600080fd5b8286015b8481101562000572578051835291830191830162000631565b600082601f8301126200065c57600080fd5b815160206200066f6200050883620004bd565b82815260059290921b840181019181810190868411156200068f57600080fd5b8286015b84811015620005725780516001600160401b03811115620006b45760008081fd5b8701603f81018913620006c75760008081fd5b620006da8986830151604084016200040f565b84525091830191830162000693565b600060a08284031215620006fc57600080fd5b6200070662000359565b8251815260208301519091506001600160401b03808211156200072857600080fd5b6200073685838601620004e3565b602084015260408401519150808211156200075057600080fd5b6200075e858386016200057d565b604084015260608401519150808211156200077857600080fd5b6200078685838601620005e8565b60608401526080840151915080821115620007a057600080fd5b50620007af848285016200064a565b60808301525092915050565b600060608284031215620007ce57600080fd5b604051606081016001600160401b038082118383101715620007f457620007f46200032a565b816040528293506200080685620004a5565b835260208501519150808211156200081d57600080fd5b6200082b868387016200057d565b602084015260408501519150808211156200084557600080fd5b506200085485828601620005e8565b6040830152505092915050565b600080600080608085870312156200087857600080fd5b84516001600160401b03808211156200089057600080fd5b6200089e888389016200046c565b95506020870151915080821115620008b557600080fd5b9086019060c08289031215620008ca57600080fd5b620008d462000384565b825182811115620008e457600080fd5b620008f28a8286016200046c565b8252506020830151828111156200090857600080fd5b620009168a8286016200046c565b602083015250604083015160408201526060830151828111156200093957600080fd5b620009478a8286016200046c565b6060830152506200095b608084016200048f565b60808201526200096e60a08401620004a5565b60a082015260408801519095509150808211156200098b57600080fd5b6200099988838901620006e9565b93506060870151915080821115620009b057600080fd5b50620009bf87828801620007bb565b91505092959194509250565b7f4e487b7100000000000000000000000000000000000000000000000000000000600052603260045260246000fd5b6000815180845262000a14816020860160208601620003dc565b601f01601f19169290920160200192915050565b600081518084526020808501945080840160005b8381101562000a635781516001600160a01b03168752958201959082019060010162000a3c565b509495945050505050565b600081518084526020808501945080840160005b8381101562000a635781518752958201959082019060010162000a82565b600081518084526020808501808196508360051b8101915082860160005b8581101562000aec57828403895262000ad9848351620009fa565b9885019893509084019060010162000abe565b5091979650505050505050565b600060a083018251845260208084015160a08287015282815180855260c08801915060c08160051b8901019450838301925060005b8181101562000b605760bf1989870301835262000b4d868551620009fa565b9550928401929184019160010162000b2e565b50505050506040830151848203604086015262000b7e828262000a28565b9150506060830151848203606086015262000b9a828262000a6e565b9150506080830151848203608086015262000bb6828262000aa0565b95945050505050565b60018060a01b038151168252600060208201516060602085015262000be8606085018262000a28565b90506040830151848203604086015262000bb6828262000a6e565b606081526000845160c0606084015262000c22610120840182620009fa565b90506020860151605f198085840301608086015262000c428383620009fa565b9250604088015160a086015260608801519150808584030160c08601525062000c6c8282620009fa565b6080880151151560e086015260a08801516001600160a01b03166101008601528481036020860152915062000ca49050818662000af9565b9050828103604084015262000cba818562000bbf565b9695505050505050565b60008060006060848603121562000cda57600080fd5b62000ce584620004a5565b925062000cf560208501620004a5565b9150604084015190509250925092565b600181811c9082168062000d1a57607f821691505b6020821081141562000d55577f4e487b7100000000000000000000000000000000000000000000000000000000600052602260045260246000fd5b50919050565b6111478062000d6b6000396000f3fe608060405234801561001057600080fd5b506004361061010b5760003560e01c806340c10f19116100a257806395d89b411161007157806395d89b4114610243578063a457c2d71461024b578063a9059cbb1461025e578063dd62ed3e14610271578063f2fde38b1461028457600080fd5b806340c10f19146101e457806370a08231146101f7578063715018a6146102205780638da5cb5b1461022857600080fd5b806318160ddd116100de57806318160ddd1461019d57806323b872dd146101af578063313ce567146101c257806339509351146101d157600080fd5b806306fdde0314610110578063095ea7b31461012e57806310273d4114610151578063150b7a0214610166575b600080fd5b610118610297565b6040516101259190610a9f565b60405180910390f35b61014161013c366004610b10565b610329565b6040519015158152602001610125565b61016461015f366004610b3a565b610343565b005b610184610174366004610b93565b630a85bd0160e11b949350505050565b6040516001600160e01b03199091168152602001610125565b6002545b604051908152602001610125565b6101416101bd366004610c6f565b6103db565b60405160128152602001610125565b6101416101df366004610b10565b6103ff565b6101646101f2366004610b10565b610421565b6101a1610205366004610cab565b6001600160a01b031660009081526020819052604090205490565b61016461046e565b6005546040516001600160a01b039091168152602001610125565b6101186104a4565b610141610259366004610b10565b6104b3565b61014161026c366004610b10565b61052e565b6101a161027f366004610cc6565b61053c565b610164610292366004610cab565b610567565b6060600380546102a690610cf9565b80601f01602080910402602001604051908101604052809291908181526020018280546102d290610cf9565b801561031f5780601f106102f45761010080835404028352916020019161031f565b820191906000526020600020905b81548152906001019060200180831161030257829003601f168201915b5050505050905090565b600033610337818585610602565b60019150505b92915050565b6005546001600160a01b031633146103765760405162461bcd60e51b815260040161036d90610d34565b60405180910390fd5b6006546040516319a18a8560e01b81526001600160a01b03909116906319a18a85906103a6908490600401610ea8565b600060405180830381600087803b1580156103c057600080fd5b505af11580156103d4573d6000803e3d6000fd5b5050505050565b6000336103e9858285610726565b6103f48585856107a0565b506001949350505050565b600033610337818585610412838361053c565b61041c9190610fea565b610602565b6005546001600160a01b0316331461044b5760405162461bcd60e51b815260040161036d90610d34565b61046a8261045b6012600a6110e6565b61046590846110f2565b61096e565b5050565b6005546001600160a01b031633146104985760405162461bcd60e51b815260040161036d90610d34565b6104a26000610a4d565b565b6060600480546102a690610cf9565b600033816104c1828661053c565b9050838110156105215760405162461bcd60e51b815260206004820152602560248201527f45524332303a2064656372656173656420616c6c6f77616e63652062656c6f77604482015264207a65726f60d81b606482015260840161036d565b6103f48286868403610602565b6000336103378185856107a0565b6001600160a01b03918216600090815260016020908152604080832093909416825291909152205490565b6005546001600160a01b031633146105915760405162461bcd60e51b815260040161036d90610d34565b6001600160a01b0381166105f65760405162461bcd60e51b815260206004820152602660248201527f4f776e61626c653a206e6577206f776e657220697320746865207a65726f206160448201526564647265737360d01b606482015260840161036d565b6105ff81610a4d565b50565b6001600160a01b0383166106645760405162461bcd60e51b8152602060048201526024808201527f45524332303a20617070726f76652066726f6d20746865207a65726f206164646044820152637265737360e01b606482015260840161036d565b6001600160a01b0382166106c55760405162461bcd60e51b815260206004820152602260248201527f45524332303a20617070726f766520746f20746865207a65726f206164647265604482015261737360f01b606482015260840161036d565b6001600160a01b0383811660008181526001602090815260408083209487168084529482529182902085905590518481527f8c5be1e5ebec7d5bd14f71427d1e84f3dd0314c0f7b2291e5b200ac8c7c3b925910160405180910390a3505050565b6000610732848461053c565b9050600019811461079a578181101561078d5760405162461bcd60e51b815260206004820152601d60248201527f45524332303a20696e73756666696369656e7420616c6c6f77616e6365000000604482015260640161036d565b61079a8484848403610602565b50505050565b6001600160a01b0383166108045760405162461bcd60e51b815260206004820152602560248201527f45524332303a207472616e736665722066726f6d20746865207a65726f206164604482015264647265737360d81b606482015260840161036d565b6001600160a01b0382166108665760405162461bcd60e51b815260206004820152602360248201527f45524332303a207472616e7366657220746f20746865207a65726f206164647260448201526265737360e81b606482015260840161036d565b6001600160a01b038316600090815260208190526040902054818110156108de5760405162461bcd60e51b815260206004820152602660248201527f45524332303a207472616e7366657220616d6f756e7420657863656564732062604482015265616c616e636560d01b606482015260840161036d565b6001600160a01b03808516600090815260208190526040808220858503905591851681529081208054849290610915908490610fea565b92505081905550826001600160a01b0316846001600160a01b03167fddf252ad1be2c89b69c2b068fc378daa952ba7f163c4a11628f55a4df523b3ef8460405161096191815260200190565b60405180910390a361079a565b6001600160a01b0382166109c45760405162461bcd60e51b815260206004820152601f60248201527f45524332303a206d696e7420746f20746865207a65726f206164647265737300604482015260640161036d565b80600260008282546109d69190610fea565b90915550506001600160a01b03821660009081526020819052604081208054839290610a03908490610fea565b90915550506040518181526001600160a01b038316906000907fddf252ad1be2c89b69c2b068fc378daa952ba7f163c4a11628f55a4df523b3ef9060200160405180910390a35050565b600580546001600160a01b038381166001600160a01b0319831681179093556040519116919082907f8be0079c531659141344cd1fd0a4f28419497f9722a3daafe3b4186f6b6457e090600090a35050565b600060208083528351808285015260005b81811015610acc57858101830151858201604001528201610ab0565b81811115610ade576000604083870101525b50601f01601f1916929092016040019392505050565b80356001600160a01b0381168114610b0b57600080fd5b919050565b60008060408385031215610b2357600080fd5b610b2c83610af4565b946020939093013593505050565b600060208284031215610b4c57600080fd5b813567ffffffffffffffff811115610b6357600080fd5b82016101208185031215610b7657600080fd5b9392505050565b634e487b7160e01b600052604160045260246000fd5b60008060008060808587031215610ba957600080fd5b610bb285610af4565b9350610bc060208601610af4565b925060408501359150606085013567ffffffffffffffff80821115610be457600080fd5b818701915087601f830112610bf857600080fd5b813581811115610c0a57610c0a610b7d565b604051601f8201601f19908116603f01168101908382118183101715610c3257610c32610b7d565b816040528281528a6020848701011115610c4b57600080fd5b82602086016020830137600060208483010152809550505050505092959194509250565b600080600060608486031215610c8457600080fd5b610c8d84610af4565b9250610c9b60208501610af4565b9150604084013590509250925092565b600060208284031215610cbd57600080fd5b610b7682610af4565b60008060408385031215610cd957600080fd5b610ce283610af4565b9150610cf060208401610af4565b90509250929050565b600181811c90821680610d0d57607f821691505b60208210811415610d2e57634e487b7160e01b600052602260045260246000fd5b50919050565b6020808252818101527f4f776e61626c653a2063616c6c6572206973206e6f7420746865206f776e6572604082015260600190565b803560ff81168114610b0b57600080fd5b6000808335601e19843603018112610d9157600080fd5b830160208101925035905067ffffffffffffffff811115610db157600080fd5b803603831315610dc057600080fd5b9250929050565b81835281816020850137506000828201602090810191909152601f909101601f19169091010190565b6000808335601e19843603018112610e0757600080fd5b830160208101925035905067ffffffffffffffff811115610e2757600080fd5b8060071b3603831315610dc057600080fd5b8183526000602080850194508260005b85811015610e9d576001600160a01b03610e6283610af4565b16875260ff610e72848401610d69565b1687840152604082810135908801526060808301359088015260809687019690910190600101610e49565b509495945050505050565b60208152610ec360208201610ebc84610d69565b60ff169052565b6000610ed26020840184610d7a565b610120806040860152610eea61014086018385610dc7565b9250610ef96040870187610d7a565b9250601f1980878603016060880152610f13858584610dc7565b9450610f226060890189610d7a565b9450915080878603016080880152610f3b858584610dc7565b9450610f4a6080890189610d7a565b94509150808786030160a0880152610f63858584610dc7565b945060a088013560c088015260c088013560e0880152610f8660e0890189610d7a565b94509150610100818887030181890152610fa1868685610dc7565b9550610faf818a018a610df0565b955092505080878603018388015250610fc9848483610e39565b979650505050505050565b634e487b7160e01b600052601160045260246000fd5b60008219821115610ffd57610ffd610fd4565b500190565b600181815b8085111561103d57816000190482111561102357611023610fd4565b8085161561103057918102915b93841c9390800290611007565b509250929050565b6000826110545750600161033d565b816110615750600061033d565b816001811461107757600281146110815761109d565b600191505061033d565b60ff84111561109257611092610fd4565b50506001821b61033d565b5060208310610133831016604e8410600b84101617156110c0575081810a61033d565b6110ca8383611002565b80600019048211156110de576110de610fd4565b029392505050565b6000610b768383611045565b600081600019048311821515161561110c5761110c610fd4565b50029056fea26469706673582212206fb3989bef386c973f987c90a82e0d6aec2ab54d0149c549379fad14e1bac3d664736f6c634300080900334672616374616c20466c6f777320436c61696d204672616374696f6e616c697a6572",
  "linkReferences": {},
  "deployedLinkReferences": {}
}