{
  "_format": "hh-sol-artifact-1",
  "contractName": "ClaimFractionalizer",
  "sourceName": "contracts/ClaimFractionalizer.sol",
  "abi": [
    {
      "inputs": [
        {
          "internalType": "uint256",
          "name": "claimTokenId",
          "type": "uint256"
        },
        {
          "components": [
            {
              "internalType": "string",
              "name": "tokenURI",
              "type": "string"
            },
            {
              "internalType": "uint256",
              "name": "fee",
              "type": "uint256"
            }
          ],
          "internalType": "struct ClaimFractionalizer.OceanListing",
          "name": "_OceanListing",
          "type": "tuple"
        }
      ],
      "stateMutability": "nonpayable",
      "type": "constructor"
    },
    {
      "anonymous": false,
      "inputs": [
        {
          "indexed": true,
          "internalType": "address",
          "name": "owner",
          "type": "address"
        },
        {
          "indexed": true,
          "internalType": "address",
          "name": "spender",
          "type": "address"
        },
        {
          "indexed": false,
          "internalType": "uint256",
          "name": "value",
          "type": "uint256"
        }
      ],
      "name": "Approval",
      "type": "event"
    },
    {
      "anonymous": false,
      "inputs": [
        {
          "indexed": true,
          "internalType": "address",
          "name": "previousOwner",
          "type": "address"
        },
        {
          "indexed": true,
          "internalType": "address",
          "name": "newOwner",
          "type": "address"
        }
      ],
      "name": "OwnershipTransferred",
      "type": "event"
    },
    {
      "anonymous": false,
      "inputs": [
        {
          "indexed": true,
          "internalType": "address",
          "name": "from",
          "type": "address"
        },
        {
          "indexed": true,
          "internalType": "address",
          "name": "to",
          "type": "address"
        },
        {
          "indexed": false,
          "internalType": "uint256",
          "name": "value",
          "type": "uint256"
        }
      ],
      "name": "Transfer",
      "type": "event"
    },
    {
      "inputs": [
        {
          "internalType": "address",
          "name": "owner",
          "type": "address"
        },
        {
          "internalType": "address",
          "name": "spender",
          "type": "address"
        }
      ],
      "name": "allowance",
      "outputs": [
        {
          "internalType": "uint256",
          "name": "",
          "type": "uint256"
        }
      ],
      "stateMutability": "view",
      "type": "function"
    },
    {
      "inputs": [
        {
          "internalType": "address",
          "name": "spender",
          "type": "address"
        },
        {
          "internalType": "uint256",
          "name": "amount",
          "type": "uint256"
        }
      ],
      "name": "approve",
      "outputs": [
        {
          "internalType": "bool",
          "name": "",
          "type": "bool"
        }
      ],
      "stateMutability": "nonpayable",
      "type": "function"
    },
    {
      "inputs": [
        {
          "internalType": "address",
          "name": "account",
          "type": "address"
        }
      ],
      "name": "balanceOf",
      "outputs": [
        {
          "internalType": "uint256",
          "name": "",
          "type": "uint256"
        }
      ],
      "stateMutability": "view",
      "type": "function"
    },
    {
      "inputs": [],
      "name": "decimals",
      "outputs": [
        {
          "internalType": "uint8",
          "name": "",
          "type": "uint8"
        }
      ],
      "stateMutability": "view",
      "type": "function"
    },
    {
      "inputs": [
        {
          "internalType": "address",
          "name": "spender",
          "type": "address"
        },
        {
          "internalType": "uint256",
          "name": "subtractedValue",
          "type": "uint256"
        }
      ],
      "name": "decreaseAllowance",
      "outputs": [
        {
          "internalType": "bool",
          "name": "",
          "type": "bool"
        }
      ],
      "stateMutability": "nonpayable",
      "type": "function"
    },
    {
      "inputs": [
        {
          "internalType": "address",
          "name": "spender",
          "type": "address"
        },
        {
          "internalType": "uint256",
          "name": "addedValue",
          "type": "uint256"
        }
      ],
      "name": "increaseAllowance",
      "outputs": [
        {
          "internalType": "bool",
          "name": "",
          "type": "bool"
        }
      ],
      "stateMutability": "nonpayable",
      "type": "function"
    },
    {
      "inputs": [
        {
          "internalType": "address",
          "name": "account",
          "type": "address"
        },
        {
          "internalType": "uint256",
          "name": "amount",
          "type": "uint256"
        }
      ],
      "name": "mint",
      "outputs": [],
      "stateMutability": "nonpayable",
      "type": "function"
    },
    {
      "inputs": [],
      "name": "name",
      "outputs": [
        {
          "internalType": "string",
          "name": "",
          "type": "string"
        }
      ],
      "stateMutability": "view",
      "type": "function"
    },
    {
      "inputs": [
        {
          "internalType": "address",
          "name": "_operator",
          "type": "address"
        },
        {
          "internalType": "address",
          "name": "_from",
          "type": "address"
        },
        {
          "internalType": "uint256",
          "name": "_tokenId",
          "type": "uint256"
        },
        {
          "internalType": "bytes",
          "name": "_data",
          "type": "bytes"
        }
      ],
      "name": "onERC721Received",
      "outputs": [
        {
          "internalType": "bytes4",
          "name": "",
          "type": "bytes4"
        }
      ],
      "stateMutability": "pure",
      "type": "function"
    },
    {
      "inputs": [],
      "name": "owner",
      "outputs": [
        {
          "internalType": "address",
          "name": "",
          "type": "address"
        }
      ],
      "stateMutability": "view",
      "type": "function"
    },
    {
      "inputs": [],
      "name": "renounceOwnership",
      "outputs": [],
      "stateMutability": "nonpayable",
      "type": "function"
    },
    {
      "inputs": [],
      "name": "symbol",
      "outputs": [
        {
          "internalType": "string",
          "name": "",
          "type": "string"
        }
      ],
      "stateMutability": "view",
      "type": "function"
    },
    {
      "inputs": [],
      "name": "totalSupply",
      "outputs": [
        {
          "internalType": "uint256",
          "name": "",
          "type": "uint256"
        }
      ],
      "stateMutability": "view",
      "type": "function"
    },
    {
      "inputs": [
        {
          "internalType": "address",
          "name": "to",
          "type": "address"
        },
        {
          "internalType": "uint256",
          "name": "amount",
          "type": "uint256"
        }
      ],
      "name": "transfer",
      "outputs": [
        {
          "internalType": "bool",
          "name": "",
          "type": "bool"
        }
      ],
      "stateMutability": "nonpayable",
      "type": "function"
    },
    {
      "inputs": [
        {
          "internalType": "address",
          "name": "from",
          "type": "address"
        },
        {
          "internalType": "address",
          "name": "to",
          "type": "address"
        },
        {
          "internalType": "uint256",
          "name": "amount",
          "type": "uint256"
        }
      ],
      "name": "transferFrom",
      "outputs": [
        {
          "internalType": "bool",
          "name": "",
          "type": "bool"
        }
      ],
      "stateMutability": "nonpayable",
      "type": "function"
    },
    {
      "inputs": [
        {
          "internalType": "address",
          "name": "newOwner",
          "type": "address"
        }
      ],
      "name": "transferOwnership",
      "outputs": [],
      "stateMutability": "nonpayable",
      "type": "function"
    }
  ],
  "bytecode": "0x60806040523480156200001157600080fd5b50604051620020fc380380620020fc833981016040819052620000349162000ab3565b604051806060016040528060228152602001620020da6022913962000064836200072a60201b620005551760201c565b60405160200162000076919062000b96565b60408051601f1981840301815291905281516200009b9060039060208501906200094d565b508051620000b19060049060208401906200094d565b505050620000ce620000c86200086360201b60201c565b62000867565b604080516101008101909152601660c082019081527f4672616374616c20466c6f77732044617461204e46540000000000000000000060e0830152815273819b194b69bc7a56c0571c2c5520c594efab2793907305585ed45a9db5e3d0623c2e6dcdea4aae04ebe19060009060208082019062000156908890620005556200072a821b17901c565b60405160200162000168919062000bdd565b60408051808303601f190181529181529082526001602083015286518282015260006060808401829052306080909401939093528151600280825293810190925292935090816020015b6060815260200190600190039081620001b25790505090506040518060400160405280601881526020017f4672616374616c20466c6f7773204461746120546f6b656e00000000000000008152508160008151811062000216576200021662000c17565b602002602001018190525062000237866200072a60201b620005551760201c565b60405160200162000249919062000c46565b604051602081830303815290604052816001815181106200026e576200026e62000c17565b602090810291909101015260408051600480825260a082019092526000918160200160208202803683370190505090503081600081518110620002b557620002b562000c17565b60200260200101906001600160a01b031690816001600160a01b0316815250503081600181518110620002ec57620002ec62000c17565b60200260200101906001600160a01b031690816001600160a01b031681525050838160028151811062000323576200032362000c17565b60200260200101906001600160a01b031690816001600160a01b03168152505084816003815181106200035a576200035a62000c17565b6001600160a01b039290921660209283029190910182015260408051600280825260608201835260009391929091830190803683370190505090506b033b2e3c9fd0803ce800000081600081518110620003b857620003b862000c17565b602002602001018181525050600181600181518110620003dc57620003dc62000c17565b602002602001018181525050606060006040518060a0016040528060028152602001868152602001858152602001848152602001838152509050600060046001600160401b03811115620004345762000434620009f3565b6040519080825280602002602001820160405280156200045e578160200160208202803683370190505b509050888160008151811062000478576200047862000c17565b60200260200101906001600160a01b031690816001600160a01b0316815250503081600181518110620004af57620004af62000c17565b60200260200101906001600160a01b031690816001600160a01b0316815250508781600281518110620004e657620004e662000c17565b60200260200101906001600160a01b031690816001600160a01b0316815250506000816003815181106200051e576200051e62000c17565b6001600160a01b039290921660209283029190910182015260408051600580825260c08201909252600092909190820160a08036833701905050905060128160008151811062000572576200057262000c17565b60200260200101818152505060128160018151811062000596576200059662000c17565b6020026020010181815250508a6020015181600281518110620005bd57620005bd62000c17565b602002602001018181525050655af3107a400081600381518110620005e657620005e662000c17565b6020026020010181815250506001816004815181106200060a576200060a62000c17565b6020908102919091018101919091526040805160608101825273c313e19146fc9a04470689c9d41a4d30546935318152918201849052818101839052517fd282aa86000000000000000000000000000000000000000000000000000000008152600090819073e8c6dc39602031a152440311e364818ba25c2bc19063d282aa86906200069f908e908a90889060040162000e86565b606060405180830381600087803b158015620006ba57600080fd5b505af1158015620006cf573d6000803e3d6000fd5b505050506040513d601f19601f82011682018060405250810190620006f5919062000f64565b508092508193505050620007158282620008b960201b6200065b1760201c565b505050505050505050505050505050620010da565b6060816200076b57505060408051808201909152600181527f3000000000000000000000000000000000000000000000000000000000000000602082015290565b8160005b81156200079b5780620007828162000fd4565b9150620007939050600a8362001021565b91506200076f565b6000816001600160401b03811115620007b857620007b8620009f3565b6040519080825280601f01601f191660200182016040528015620007e3576020820181803683370190505b5090505b84156200085b57620007fb60018362001038565b91506200080a600a8662001052565b6200081790603062001069565b60f81b8183815181106200082f576200082f62000c17565b60200101906001600160f81b031916908160001a90535062000853600a8662001021565b9450620007e7565b949350505050565b3390565b600580546001600160a01b038381166001600160a01b0319831681179093556040519116919082907f8be0079c531659141344cd1fd0a4f28419497f9722a3daafe3b4186f6b6457e090600090a35050565b6040516001600160a01b03808416602483015282166044820152620009289060640160408051601f198184030181529190526020810180516001600160e01b039081167fdaf0d4aa00000000000000000000000000000000000000000000000000000000179091526200092c16565b5050565b80516a636f6e736f6c652e6c6f67602083016000808483855afa5050505050565b8280546200095b9062001084565b90600052602060002090601f0160209004810192826200097f5760008555620009ca565b82601f106200099a57805160ff1916838001178555620009ca565b82800160010185558215620009ca579182015b82811115620009ca578251825591602001919060010190620009ad565b50620009d8929150620009dc565b5090565b5b80821115620009d85760008155600101620009dd565b7f4e487b7100000000000000000000000000000000000000000000000000000000600052604160045260246000fd5b604080519081016001600160401b038111828210171562000a475762000a47620009f3565b60405290565b604051601f8201601f191681016001600160401b038111828210171562000a785762000a78620009f3565b604052919050565b60005b8381101562000a9d57818101518382015260200162000a83565b8381111562000aad576000848401525b50505050565b6000806040838503121562000ac757600080fd5b8251602080850151919350906001600160401b038082111562000ae957600080fd5b908501906040828803121562000afe57600080fd5b62000b0862000a22565b82518281111562000b1857600080fd5b8301601f8101891362000b2a57600080fd5b80518381111562000b3f5762000b3f620009f3565b62000b53601f8201601f1916870162000a4d565b9350808452898682840101111562000b6a57600080fd5b62000b7b8187860188850162000a80565b50508181528383015184820152809450505050509250929050565b7f464643462d00000000000000000000000000000000000000000000000000000081526000825162000bd081600585016020870162000a80565b9190910160050192915050565b7f4646444e2d00000000000000000000000000000000000000000000000000000081526000825162000bd081600585016020870162000a80565b7f4e487b7100000000000000000000000000000000000000000000000000000000600052603260045260246000fd5b7f464644542d00000000000000000000000000000000000000000000000000000081526000825162000bd081600585016020870162000a80565b6000815180845262000c9a81602086016020860162000a80565b601f01601f19169290920160200192915050565b600081518084526020808501945080840160005b8381101562000ce95781516001600160a01b03168752958201959082019060010162000cc2565b509495945050505050565b600081518084526020808501945080840160005b8381101562000ce95781518752958201959082019060010162000d08565b6000815180845260208085019450848260051b860182860160005b8581101562000d6f57838303895262000d5c83835162000c80565b9885019892509084019060010162000d41565b5090979650505050505050565b600060a083018251845260208084015160a08287015282815180855260c08801915060c08160051b8901019450838301925060005b8181101562000de35760bf1989870301835262000dd086855162000c80565b9550928401929184019160010162000db1565b50505050506040830151848203604086015262000e01828262000cae565b9150506060830151848203606086015262000e1d828262000cf4565b9150506080830151848203608086015262000e39828262000d26565b95945050505050565b60018060a01b038151168252600060208201516060602085015262000e6b606085018262000cae565b90506040830151848203604086015262000e39828262000cf4565b606081526000845160c0606084015262000ea561012084018262000c80565b90506020860151605f198085840301608086015262000ec5838362000c80565b9250604088015160a086015260608801519150808584030160c08601525062000eef828262000c80565b6080880151151560e086015260a08801516001600160a01b03166101008601528481036020860152915062000f279050818662000d7c565b9050828103604084015262000f3d818562000e42565b9695505050505050565b80516001600160a01b038116811462000f5f57600080fd5b919050565b60008060006060848603121562000f7a57600080fd5b62000f858462000f47565b925062000f956020850162000f47565b9150604084015190509250925092565b7f4e487b7100000000000000000000000000000000000000000000000000000000600052601160045260246000fd5b600060001982141562000feb5762000feb62000fa5565b5060010190565b7f4e487b7100000000000000000000000000000000000000000000000000000000600052601260045260246000fd5b60008262001033576200103362000ff2565b500490565b6000828210156200104d576200104d62000fa5565b500390565b60008262001064576200106462000ff2565b500690565b600082198211156200107f576200107f62000fa5565b500190565b600181811c908216806200109957607f821691505b60208210811415620010d4577f4e487b7100000000000000000000000000000000000000000000000000000000600052602260045260246000fd5b50919050565b610ff080620010ea6000396000f3fe608060405234801561001057600080fd5b50600436106101005760003560e01c806370a0823111610097578063a457c2d711610066578063a457c2d71461022d578063a9059cbb14610240578063dd62ed3e14610253578063f2fde38b1461026657600080fd5b806370a08231146101d9578063715018a6146102025780638da5cb5b1461020a57806395d89b411461022557600080fd5b806323b872dd116100d357806323b872dd1461018f578063313ce567146101a257806339509351146101b157806340c10f19146101c457600080fd5b806306fdde0314610105578063095ea7b314610123578063150b7a021461014657806318160ddd1461017d575b600080fd5b61010d610279565b60405161011a9190610b69565b60405180910390f35b610136610131366004610bda565b61030b565b604051901515815260200161011a565b610164610154366004610c1a565b630a85bd0160e11b949350505050565b6040516001600160e01b0319909116815260200161011a565b6002545b60405190815260200161011a565b61013661019d366004610cf6565b610325565b6040516012815260200161011a565b6101366101bf366004610bda565b610349565b6101d76101d2366004610bda565b61036b565b005b6101816101e7366004610d32565b6001600160a01b031660009081526020819052604090205490565b6101d76103c1565b6005546040516001600160a01b03909116815260200161011a565b61010d6103f7565b61013661023b366004610bda565b610406565b61013661024e366004610bda565b610481565b610181610261366004610d54565b61048f565b6101d7610274366004610d32565b6104ba565b60606003805461028890610d87565b80601f01602080910402602001604051908101604052809291908181526020018280546102b490610d87565b80156103015780601f106102d657610100808354040283529160200191610301565b820191906000526020600020905b8154815290600101906020018083116102e457829003601f168201915b5050505050905090565b6000336103198185856106ab565b60019150505b92915050565b6000336103338582856107cf565b61033e858585610849565b506001949350505050565b60003361031981858561035c838361048f565b6103669190610dd8565b6106ab565b6005546001600160a01b0316331461039e5760405162461bcd60e51b815260040161039590610df0565b60405180910390fd5b6103bd826103ae6012600a610f09565b6103b89084610f15565b610a17565b5050565b6005546001600160a01b031633146103eb5760405162461bcd60e51b815260040161039590610df0565b6103f56000610af6565b565b60606004805461028890610d87565b60003381610414828661048f565b9050838110156104745760405162461bcd60e51b815260206004820152602560248201527f45524332303a2064656372656173656420616c6c6f77616e63652062656c6f77604482015264207a65726f60d81b6064820152608401610395565b61033e82868684036106ab565b600033610319818585610849565b6001600160a01b03918216600090815260016020908152604080832093909416825291909152205490565b6005546001600160a01b031633146104e45760405162461bcd60e51b815260040161039590610df0565b6001600160a01b0381166105495760405162461bcd60e51b815260206004820152602660248201527f4f776e61626c653a206e6577206f776e657220697320746865207a65726f206160448201526564647265737360d01b6064820152608401610395565b61055281610af6565b50565b6060816105795750506040805180820190915260018152600360fc1b602082015290565b8160005b81156105a3578061058d81610f34565b915061059c9050600a83610f65565b915061057d565b60008167ffffffffffffffff8111156105be576105be610c04565b6040519080825280601f01601f1916602001820160405280156105e8576020820181803683370190505b5090505b8415610653576105fd600183610f79565b915061060a600a86610f90565b610615906030610dd8565b60f81b81838151811061062a5761062a610fa4565b60200101906001600160f81b031916908160001a90535061064c600a86610f65565b94506105ec565b949350505050565b6040516001600160a01b038084166024830152821660448201526103bd9060640160408051601f198184030181529190526020810180516001600160e01b0316636d786a5560e11b179052610b48565b6001600160a01b03831661070d5760405162461bcd60e51b8152602060048201526024808201527f45524332303a20617070726f76652066726f6d20746865207a65726f206164646044820152637265737360e01b6064820152608401610395565b6001600160a01b03821661076e5760405162461bcd60e51b815260206004820152602260248201527f45524332303a20617070726f766520746f20746865207a65726f206164647265604482015261737360f01b6064820152608401610395565b6001600160a01b0383811660008181526001602090815260408083209487168084529482529182902085905590518481527f8c5be1e5ebec7d5bd14f71427d1e84f3dd0314c0f7b2291e5b200ac8c7c3b925910160405180910390a3505050565b60006107db848461048f565b9050600019811461084357818110156108365760405162461bcd60e51b815260206004820152601d60248201527f45524332303a20696e73756666696369656e7420616c6c6f77616e63650000006044820152606401610395565b61084384848484036106ab565b50505050565b6001600160a01b0383166108ad5760405162461bcd60e51b815260206004820152602560248201527f45524332303a207472616e736665722066726f6d20746865207a65726f206164604482015264647265737360d81b6064820152608401610395565b6001600160a01b03821661090f5760405162461bcd60e51b815260206004820152602360248201527f45524332303a207472616e7366657220746f20746865207a65726f206164647260448201526265737360e81b6064820152608401610395565b6001600160a01b038316600090815260208190526040902054818110156109875760405162461bcd60e51b815260206004820152602660248201527f45524332303a207472616e7366657220616d6f756e7420657863656564732062604482015265616c616e636560d01b6064820152608401610395565b6001600160a01b038085166000908152602081905260408082208585039055918516815290812080548492906109be908490610dd8565b92505081905550826001600160a01b0316846001600160a01b03167fddf252ad1be2c89b69c2b068fc378daa952ba7f163c4a11628f55a4df523b3ef84604051610a0a91815260200190565b60405180910390a3610843565b6001600160a01b038216610a6d5760405162461bcd60e51b815260206004820152601f60248201527f45524332303a206d696e7420746f20746865207a65726f2061646472657373006044820152606401610395565b8060026000828254610a7f9190610dd8565b90915550506001600160a01b03821660009081526020819052604081208054839290610aac908490610dd8565b90915550506040518181526001600160a01b038316906000907fddf252ad1be2c89b69c2b068fc378daa952ba7f163c4a11628f55a4df523b3ef9060200160405180910390a35050565b600580546001600160a01b038381166001600160a01b0319831681179093556040519116919082907f8be0079c531659141344cd1fd0a4f28419497f9722a3daafe3b4186f6b6457e090600090a35050565b80516a636f6e736f6c652e6c6f67602083016000808483855afa5050505050565b600060208083528351808285015260005b81811015610b9657858101830151858201604001528201610b7a565b81811115610ba8576000604083870101525b50601f01601f1916929092016040019392505050565b80356001600160a01b0381168114610bd557600080fd5b919050565b60008060408385031215610bed57600080fd5b610bf683610bbe565b946020939093013593505050565b634e487b7160e01b600052604160045260246000fd5b60008060008060808587031215610c3057600080fd5b610c3985610bbe565b9350610c4760208601610bbe565b925060408501359150606085013567ffffffffffffffff80821115610c6b57600080fd5b818701915087601f830112610c7f57600080fd5b813581811115610c9157610c91610c04565b604051601f8201601f19908116603f01168101908382118183101715610cb957610cb9610c04565b816040528281528a6020848701011115610cd257600080fd5b82602086016020830137600060208483010152809550505050505092959194509250565b600080600060608486031215610d0b57600080fd5b610d1484610bbe565b9250610d2260208501610bbe565b9150604084013590509250925092565b600060208284031215610d4457600080fd5b610d4d82610bbe565b9392505050565b60008060408385031215610d6757600080fd5b610d7083610bbe565b9150610d7e60208401610bbe565b90509250929050565b600181811c90821680610d9b57607f821691505b60208210811415610dbc57634e487b7160e01b600052602260045260246000fd5b50919050565b634e487b7160e01b600052601160045260246000fd5b60008219821115610deb57610deb610dc2565b500190565b6020808252818101527f4f776e61626c653a2063616c6c6572206973206e6f7420746865206f776e6572604082015260600190565b600181815b80851115610e60578160001904821115610e4657610e46610dc2565b80851615610e5357918102915b93841c9390800290610e2a565b509250929050565b600082610e775750600161031f565b81610e845750600061031f565b8160018114610e9a5760028114610ea457610ec0565b600191505061031f565b60ff841115610eb557610eb5610dc2565b50506001821b61031f565b5060208310610133831016604e8410600b8410161715610ee3575081810a61031f565b610eed8383610e25565b8060001904821115610f0157610f01610dc2565b029392505050565b6000610d4d8383610e68565b6000816000190483118215151615610f2f57610f2f610dc2565b500290565b6000600019821415610f4857610f48610dc2565b5060010190565b634e487b7160e01b600052601260045260246000fd5b600082610f7457610f74610f4f565b500490565b600082821015610f8b57610f8b610dc2565b500390565b600082610f9f57610f9f610f4f565b500690565b634e487b7160e01b600052603260045260246000fdfea26469706673582212203b1bedbf94f5e49664b921ee5d9202a023ae4df55bd20198ca01a81a6515fcf264736f6c634300080900334672616374616c20466c6f777320436c61696d204672616374696f6e616c697a6572",
  "linkReferences": {},
  "deployedLinkReferences": {}
}