{
  "_format": "hh-sol-artifact-1",
  "contractName": "ClaimFractionalizer",
  "sourceName": "contracts/ClaimFractionalizer.sol",
  "abi": [
    {
      "inputs": [
        {
          "internalType": "string",
          "name": "symbol",
          "type": "string"
        },
        {
          "components": [
            {
              "internalType": "string",
              "name": "name",
              "type": "string"
            },
            {
              "internalType": "string",
              "name": "symbol",
              "type": "string"
            },
            {
              "internalType": "uint256",
              "name": "templateIndex",
              "type": "uint256"
            },
            {
              "internalType": "string",
              "name": "tokenURI",
              "type": "string"
            },
            {
              "internalType": "bool",
              "name": "transferable",
              "type": "bool"
            },
            {
              "internalType": "address",
              "name": "owner",
              "type": "address"
            }
          ],
          "internalType": "struct OceanERC721Factory.NftCreateData",
          "name": "_NftCreateData",
          "type": "tuple"
        },
        {
          "components": [
            {
              "internalType": "uint256",
              "name": "templateIndex",
              "type": "uint256"
            },
            {
              "internalType": "string[]",
              "name": "strings",
              "type": "string[]"
            },
            {
              "internalType": "address[]",
              "name": "addresses",
              "type": "address[]"
            },
            {
              "internalType": "uint256[]",
              "name": "uints",
              "type": "uint256[]"
            },
            {
              "internalType": "bytes[]",
              "name": "bytess",
              "type": "bytes[]"
            }
          ],
          "internalType": "struct OceanERC721Factory.ErcCreateData",
          "name": "_ErcCreateData",
          "type": "tuple"
        },
        {
          "components": [
            {
              "internalType": "address",
              "name": "fixedPriceAddress",
              "type": "address"
            },
            {
              "internalType": "address[]",
              "name": "addresses",
              "type": "address[]"
            },
            {
              "internalType": "uint256[]",
              "name": "uints",
              "type": "uint256[]"
            }
          ],
          "internalType": "struct OceanERC721Factory.FixedData",
          "name": "_FixedData",
          "type": "tuple"
        }
      ],
      "stateMutability": "nonpayable",
      "type": "constructor"
    },
    {
      "anonymous": false,
      "inputs": [
        {
          "indexed": true,
          "internalType": "address",
          "name": "owner",
          "type": "address"
        },
        {
          "indexed": true,
          "internalType": "address",
          "name": "spender",
          "type": "address"
        },
        {
          "indexed": false,
          "internalType": "uint256",
          "name": "value",
          "type": "uint256"
        }
      ],
      "name": "Approval",
      "type": "event"
    },
    {
      "anonymous": false,
      "inputs": [
        {
          "indexed": true,
          "internalType": "address",
          "name": "previousOwner",
          "type": "address"
        },
        {
          "indexed": true,
          "internalType": "address",
          "name": "newOwner",
          "type": "address"
        }
      ],
      "name": "OwnershipTransferred",
      "type": "event"
    },
    {
      "anonymous": false,
      "inputs": [
        {
          "indexed": true,
          "internalType": "address",
          "name": "from",
          "type": "address"
        },
        {
          "indexed": true,
          "internalType": "address",
          "name": "to",
          "type": "address"
        },
        {
          "indexed": false,
          "internalType": "uint256",
          "name": "value",
          "type": "uint256"
        }
      ],
      "name": "Transfer",
      "type": "event"
    },
    {
      "inputs": [
        {
          "internalType": "address",
          "name": "owner",
          "type": "address"
        },
        {
          "internalType": "address",
          "name": "spender",
          "type": "address"
        }
      ],
      "name": "allowance",
      "outputs": [
        {
          "internalType": "uint256",
          "name": "",
          "type": "uint256"
        }
      ],
      "stateMutability": "view",
      "type": "function"
    },
    {
      "inputs": [
        {
          "internalType": "address",
          "name": "spender",
          "type": "address"
        },
        {
          "internalType": "uint256",
          "name": "amount",
          "type": "uint256"
        }
      ],
      "name": "approve",
      "outputs": [
        {
          "internalType": "bool",
          "name": "",
          "type": "bool"
        }
      ],
      "stateMutability": "nonpayable",
      "type": "function"
    },
    {
      "inputs": [
        {
          "internalType": "address",
          "name": "account",
          "type": "address"
        }
      ],
      "name": "balanceOf",
      "outputs": [
        {
          "internalType": "uint256",
          "name": "",
          "type": "uint256"
        }
      ],
      "stateMutability": "view",
      "type": "function"
    },
    {
      "inputs": [],
      "name": "decimals",
      "outputs": [
        {
          "internalType": "uint8",
          "name": "",
          "type": "uint8"
        }
      ],
      "stateMutability": "view",
      "type": "function"
    },
    {
      "inputs": [
        {
          "internalType": "address",
          "name": "spender",
          "type": "address"
        },
        {
          "internalType": "uint256",
          "name": "subtractedValue",
          "type": "uint256"
        }
      ],
      "name": "decreaseAllowance",
      "outputs": [
        {
          "internalType": "bool",
          "name": "",
          "type": "bool"
        }
      ],
      "stateMutability": "nonpayable",
      "type": "function"
    },
    {
      "inputs": [
        {
          "internalType": "address",
          "name": "spender",
          "type": "address"
        },
        {
          "internalType": "uint256",
          "name": "addedValue",
          "type": "uint256"
        }
      ],
      "name": "increaseAllowance",
      "outputs": [
        {
          "internalType": "bool",
          "name": "",
          "type": "bool"
        }
      ],
      "stateMutability": "nonpayable",
      "type": "function"
    },
    {
      "inputs": [
        {
          "internalType": "address",
          "name": "account",
          "type": "address"
        },
        {
          "internalType": "uint256",
          "name": "amount",
          "type": "uint256"
        }
      ],
      "name": "mint",
      "outputs": [],
      "stateMutability": "nonpayable",
      "type": "function"
    },
    {
      "inputs": [],
      "name": "name",
      "outputs": [
        {
          "internalType": "string",
          "name": "",
          "type": "string"
        }
      ],
      "stateMutability": "view",
      "type": "function"
    },
    {
      "inputs": [
        {
          "internalType": "address",
          "name": "_operator",
          "type": "address"
        },
        {
          "internalType": "address",
          "name": "_from",
          "type": "address"
        },
        {
          "internalType": "uint256",
          "name": "_tokenId",
          "type": "uint256"
        },
        {
          "internalType": "bytes",
          "name": "_data",
          "type": "bytes"
        }
      ],
      "name": "onERC721Received",
      "outputs": [
        {
          "internalType": "bytes4",
          "name": "",
          "type": "bytes4"
        }
      ],
      "stateMutability": "pure",
      "type": "function"
    },
    {
      "inputs": [],
      "name": "owner",
      "outputs": [
        {
          "internalType": "address",
          "name": "",
          "type": "address"
        }
      ],
      "stateMutability": "view",
      "type": "function"
    },
    {
      "inputs": [],
      "name": "renounceOwnership",
      "outputs": [],
      "stateMutability": "nonpayable",
      "type": "function"
    },
    {
      "inputs": [],
      "name": "symbol",
      "outputs": [
        {
          "internalType": "string",
          "name": "",
          "type": "string"
        }
      ],
      "stateMutability": "view",
      "type": "function"
    },
    {
      "inputs": [],
      "name": "totalSupply",
      "outputs": [
        {
          "internalType": "uint256",
          "name": "",
          "type": "uint256"
        }
      ],
      "stateMutability": "view",
      "type": "function"
    },
    {
      "inputs": [
        {
          "internalType": "address",
          "name": "to",
          "type": "address"
        },
        {
          "internalType": "uint256",
          "name": "amount",
          "type": "uint256"
        }
      ],
      "name": "transfer",
      "outputs": [
        {
          "internalType": "bool",
          "name": "",
          "type": "bool"
        }
      ],
      "stateMutability": "nonpayable",
      "type": "function"
    },
    {
      "inputs": [
        {
          "internalType": "address",
          "name": "from",
          "type": "address"
        },
        {
          "internalType": "address",
          "name": "to",
          "type": "address"
        },
        {
          "internalType": "uint256",
          "name": "amount",
          "type": "uint256"
        }
      ],
      "name": "transferFrom",
      "outputs": [
        {
          "internalType": "bool",
          "name": "",
          "type": "bool"
        }
      ],
      "stateMutability": "nonpayable",
      "type": "function"
    },
    {
      "inputs": [
        {
          "internalType": "address",
          "name": "newOwner",
          "type": "address"
        }
      ],
      "name": "transferOwnership",
      "outputs": [],
      "stateMutability": "nonpayable",
      "type": "function"
    }
  ],
  "bytecode": "0x60806040523480156200001157600080fd5b5060405162001b5238038062001b52833981016040819052620000349162000833565b60405180606001604052806022815260200162001b3060229139805185906200006590600390602085019062000256565b5080516200007b90600490602084019062000256565b50505062000098620000926200020060201b60201c565b62000204565b3060a0840181905260408301518051600090620000b957620000b96200099d565b60200260200101906001600160a01b031690816001600160a01b031681525050308260400151600181518110620000f457620000f46200099d565b60200260200101906001600160a01b031690816001600160a01b0316815250503081602001516001815181106200012f576200012f6200099d565b6001600160a01b03909216602092830291909101909101526040517fd282aa8600000000000000000000000000000000000000000000000000000000815273e8c6dc39602031a152440311e364818ba25c2bc19063d282aa86906200019d9086908690869060040162000bd5565b606060405180830381600087803b158015620001b857600080fd5b505af1158015620001cd573d6000803e3d6000fd5b505050506040513d601f19601f82011682018060405250810190620001f3919062000c96565b5050505050505062000d2d565b3390565b600580546001600160a01b038381166001600160a01b0319831681179093556040519116919082907f8be0079c531659141344cd1fd0a4f28419497f9722a3daafe3b4186f6b6457e090600090a35050565b828054620002649062000cd7565b90600052602060002090601f016020900481019282620002885760008555620002d3565b82601f10620002a357805160ff1916838001178555620002d3565b82800160010185558215620002d3579182015b82811115620002d3578251825591602001919060010190620002b6565b50620002e1929150620002e5565b5090565b5b80821115620002e15760008155600101620002e6565b7f4e487b7100000000000000000000000000000000000000000000000000000000600052604160045260246000fd5b60405160a081016001600160401b0381118282101715620003505762000350620002fc565b60405290565b60405160c081016001600160401b0381118282101715620003505762000350620002fc565b604051601f8201601f191681016001600160401b0381118282101715620003a657620003a6620002fc565b604052919050565b60005b83811015620003cb578181015183820152602001620003b1565b83811115620003db576000848401525b50505050565b60006001600160401b03831115620003fd57620003fd620002fc565b62000412601f8401601f19166020016200037b565b90508281528383830111156200042757600080fd5b62000437836020830184620003ae565b9392505050565b600082601f8301126200045057600080fd5b6200043783835160208501620003e1565b805180151581146200047257600080fd5b919050565b80516001600160a01b03811681146200047257600080fd5b60006001600160401b03821115620004ab57620004ab620002fc565b5060051b60200190565b600082601f830112620004c757600080fd5b81516020620004e0620004da836200048f565b6200037b565b82815260059290921b840181019181810190868411156200050057600080fd5b8286015b84811015620005445780516001600160401b03811115620005255760008081fd5b620005358986838b01016200043e565b84525091830191830162000504565b509695505050505050565b600082601f8301126200056157600080fd5b8151602062000574620004da836200048f565b82815260059290921b840181019181810190868411156200059457600080fd5b8286015b848110156200054457620005ac8162000477565b835291830191830162000598565b600082601f830112620005cc57600080fd5b81516020620005df620004da836200048f565b82815260059290921b84018101918181019086841115620005ff57600080fd5b8286015b8481101562000544578051835291830191830162000603565b600082601f8301126200062e57600080fd5b8151602062000641620004da836200048f565b82815260059290921b840181019181810190868411156200066157600080fd5b8286015b84811015620005445780516001600160401b03811115620006865760008081fd5b8701603f81018913620006995760008081fd5b620006ac898683015160408401620003e1565b84525091830191830162000665565b600060a08284031215620006ce57600080fd5b620006d86200032b565b8251815260208301519091506001600160401b0380821115620006fa57600080fd5b6200070885838601620004b5565b602084015260408401519150808211156200072257600080fd5b62000730858386016200054f565b604084015260608401519150808211156200074a57600080fd5b6200075885838601620005ba565b606084015260808401519150808211156200077257600080fd5b5062000781848285016200061c565b60808301525092915050565b600060608284031215620007a057600080fd5b604051606081016001600160401b038082118383101715620007c657620007c6620002fc565b81604052829350620007d88562000477565b83526020850151915080821115620007ef57600080fd5b620007fd868387016200054f565b602084015260408501519150808211156200081757600080fd5b506200082685828601620005ba565b6040830152505092915050565b600080600080608085870312156200084a57600080fd5b84516001600160401b03808211156200086257600080fd5b62000870888389016200043e565b955060208701519150808211156200088757600080fd5b9086019060c082890312156200089c57600080fd5b620008a662000356565b825182811115620008b657600080fd5b620008c48a8286016200043e565b825250602083015182811115620008da57600080fd5b620008e88a8286016200043e565b602083015250604083015160408201526060830151828111156200090b57600080fd5b620009198a8286016200043e565b6060830152506200092d6080840162000461565b60808201526200094060a0840162000477565b60a082015260408801519095509150808211156200095d57600080fd5b6200096b88838901620006bb565b935060608701519150808211156200098257600080fd5b5062000991878288016200078d565b91505092959194509250565b7f4e487b7100000000000000000000000000000000000000000000000000000000600052603260045260246000fd5b60008151808452620009e6816020860160208601620003ae565b601f01601f19169290920160200192915050565b600081518084526020808501945080840160005b8381101562000a355781516001600160a01b03168752958201959082019060010162000a0e565b509495945050505050565b600081518084526020808501945080840160005b8381101562000a355781518752958201959082019060010162000a54565b600081518084526020808501808196508360051b8101915082860160005b8581101562000abe57828403895262000aab848351620009cc565b9885019893509084019060010162000a90565b5091979650505050505050565b600060a083018251845260208084015160a08287015282815180855260c08801915060c08160051b8901019450838301925060005b8181101562000b325760bf1989870301835262000b1f868551620009cc565b9550928401929184019160010162000b00565b50505050506040830151848203604086015262000b508282620009fa565b9150506060830151848203606086015262000b6c828262000a40565b9150506080830151848203608086015262000b88828262000a72565b95945050505050565b60018060a01b038151168252600060208201516060602085015262000bba6060850182620009fa565b90506040830151848203604086015262000b88828262000a40565b606081526000845160c0606084015262000bf4610120840182620009cc565b90506020860151605f198085840301608086015262000c148383620009cc565b9250604088015160a086015260608801519150808584030160c08601525062000c3e8282620009cc565b6080880151151560e086015260a08801516001600160a01b03166101008601528481036020860152915062000c769050818662000acb565b9050828103604084015262000c8c818562000b91565b9695505050505050565b60008060006060848603121562000cac57600080fd5b62000cb78462000477565b925062000cc76020850162000477565b9150604084015190509250925092565b600181811c9082168062000cec57607f821691505b6020821081141562000d27577f4e487b7100000000000000000000000000000000000000000000000000000000600052602260045260246000fd5b50919050565b610df38062000d3d6000396000f3fe608060405234801561001057600080fd5b50600436106101005760003560e01c806370a0823111610097578063a457c2d711610066578063a457c2d71461022d578063a9059cbb14610240578063dd62ed3e14610253578063f2fde38b1461026657600080fd5b806370a08231146101d9578063715018a6146102025780638da5cb5b1461020a57806395d89b411461022557600080fd5b806323b872dd116100d357806323b872dd1461018f578063313ce567146101a257806339509351146101b157806340c10f19146101c457600080fd5b806306fdde0314610105578063095ea7b314610123578063150b7a021461014657806318160ddd1461017d575b600080fd5b61010d610279565b60405161011a91906109f2565b60405180910390f35b610136610131366004610a63565b61030b565b604051901515815260200161011a565b610164610154366004610aa3565b630a85bd0160e11b949350505050565b6040516001600160e01b0319909116815260200161011a565b6002545b60405190815260200161011a565b61013661019d366004610b7f565b610325565b6040516012815260200161011a565b6101366101bf366004610a63565b610349565b6101d76101d2366004610a63565b61036b565b005b6101816101e7366004610bbb565b6001600160a01b031660009081526020819052604090205490565b6101d76103c1565b6005546040516001600160a01b03909116815260200161011a565b61010d6103f7565b61013661023b366004610a63565b610406565b61013661024e366004610a63565b610481565b610181610261366004610bdd565b61048f565b6101d7610274366004610bbb565b6104ba565b60606003805461028890610c10565b80601f01602080910402602001604051908101604052809291908181526020018280546102b490610c10565b80156103015780601f106102d657610100808354040283529160200191610301565b820191906000526020600020905b8154815290600101906020018083116102e457829003601f168201915b5050505050905090565b600033610319818585610555565b60019150505b92915050565b600033610333858285610679565b61033e8585856106f3565b506001949350505050565b60003361031981858561035c838361048f565b6103669190610c61565b610555565b6005546001600160a01b0316331461039e5760405162461bcd60e51b815260040161039590610c79565b60405180910390fd5b6103bd826103ae6012600a610d92565b6103b89084610d9e565b6108c1565b5050565b6005546001600160a01b031633146103eb5760405162461bcd60e51b815260040161039590610c79565b6103f560006109a0565b565b60606004805461028890610c10565b60003381610414828661048f565b9050838110156104745760405162461bcd60e51b815260206004820152602560248201527f45524332303a2064656372656173656420616c6c6f77616e63652062656c6f77604482015264207a65726f60d81b6064820152608401610395565b61033e8286868403610555565b6000336103198185856106f3565b6001600160a01b03918216600090815260016020908152604080832093909416825291909152205490565b6005546001600160a01b031633146104e45760405162461bcd60e51b815260040161039590610c79565b6001600160a01b0381166105495760405162461bcd60e51b815260206004820152602660248201527f4f776e61626c653a206e6577206f776e657220697320746865207a65726f206160448201526564647265737360d01b6064820152608401610395565b610552816109a0565b50565b6001600160a01b0383166105b75760405162461bcd60e51b8152602060048201526024808201527f45524332303a20617070726f76652066726f6d20746865207a65726f206164646044820152637265737360e01b6064820152608401610395565b6001600160a01b0382166106185760405162461bcd60e51b815260206004820152602260248201527f45524332303a20617070726f766520746f20746865207a65726f206164647265604482015261737360f01b6064820152608401610395565b6001600160a01b0383811660008181526001602090815260408083209487168084529482529182902085905590518481527f8c5be1e5ebec7d5bd14f71427d1e84f3dd0314c0f7b2291e5b200ac8c7c3b925910160405180910390a3505050565b6000610685848461048f565b905060001981146106ed57818110156106e05760405162461bcd60e51b815260206004820152601d60248201527f45524332303a20696e73756666696369656e7420616c6c6f77616e63650000006044820152606401610395565b6106ed8484848403610555565b50505050565b6001600160a01b0383166107575760405162461bcd60e51b815260206004820152602560248201527f45524332303a207472616e736665722066726f6d20746865207a65726f206164604482015264647265737360d81b6064820152608401610395565b6001600160a01b0382166107b95760405162461bcd60e51b815260206004820152602360248201527f45524332303a207472616e7366657220746f20746865207a65726f206164647260448201526265737360e81b6064820152608401610395565b6001600160a01b038316600090815260208190526040902054818110156108315760405162461bcd60e51b815260206004820152602660248201527f45524332303a207472616e7366657220616d6f756e7420657863656564732062604482015265616c616e636560d01b6064820152608401610395565b6001600160a01b03808516600090815260208190526040808220858503905591851681529081208054849290610868908490610c61565b92505081905550826001600160a01b0316846001600160a01b03167fddf252ad1be2c89b69c2b068fc378daa952ba7f163c4a11628f55a4df523b3ef846040516108b491815260200190565b60405180910390a36106ed565b6001600160a01b0382166109175760405162461bcd60e51b815260206004820152601f60248201527f45524332303a206d696e7420746f20746865207a65726f2061646472657373006044820152606401610395565b80600260008282546109299190610c61565b90915550506001600160a01b03821660009081526020819052604081208054839290610956908490610c61565b90915550506040518181526001600160a01b038316906000907fddf252ad1be2c89b69c2b068fc378daa952ba7f163c4a11628f55a4df523b3ef9060200160405180910390a35050565b600580546001600160a01b038381166001600160a01b0319831681179093556040519116919082907f8be0079c531659141344cd1fd0a4f28419497f9722a3daafe3b4186f6b6457e090600090a35050565b600060208083528351808285015260005b81811015610a1f57858101830151858201604001528201610a03565b81811115610a31576000604083870101525b50601f01601f1916929092016040019392505050565b80356001600160a01b0381168114610a5e57600080fd5b919050565b60008060408385031215610a7657600080fd5b610a7f83610a47565b946020939093013593505050565b634e487b7160e01b600052604160045260246000fd5b60008060008060808587031215610ab957600080fd5b610ac285610a47565b9350610ad060208601610a47565b925060408501359150606085013567ffffffffffffffff80821115610af457600080fd5b818701915087601f830112610b0857600080fd5b813581811115610b1a57610b1a610a8d565b604051601f8201601f19908116603f01168101908382118183101715610b4257610b42610a8d565b816040528281528a6020848701011115610b5b57600080fd5b82602086016020830137600060208483010152809550505050505092959194509250565b600080600060608486031215610b9457600080fd5b610b9d84610a47565b9250610bab60208501610a47565b9150604084013590509250925092565b600060208284031215610bcd57600080fd5b610bd682610a47565b9392505050565b60008060408385031215610bf057600080fd5b610bf983610a47565b9150610c0760208401610a47565b90509250929050565b600181811c90821680610c2457607f821691505b60208210811415610c4557634e487b7160e01b600052602260045260246000fd5b50919050565b634e487b7160e01b600052601160045260246000fd5b60008219821115610c7457610c74610c4b565b500190565b6020808252818101527f4f776e61626c653a2063616c6c6572206973206e6f7420746865206f776e6572604082015260600190565b600181815b80851115610ce9578160001904821115610ccf57610ccf610c4b565b80851615610cdc57918102915b93841c9390800290610cb3565b509250929050565b600082610d005750600161031f565b81610d0d5750600061031f565b8160018114610d235760028114610d2d57610d49565b600191505061031f565b60ff841115610d3e57610d3e610c4b565b50506001821b61031f565b5060208310610133831016604e8410600b8410161715610d6c575081810a61031f565b610d768383610cae565b8060001904821115610d8a57610d8a610c4b565b029392505050565b6000610bd68383610cf1565b6000816000190483118215151615610db857610db8610c4b565b50029056fea2646970667358221220b6557ec5fb8c236f9891216cafc1be0cfd509a1d48eb884b3dc24402994885e464736f6c634300080900334672616374616c20466c6f777320436c61696d204672616374696f6e616c697a6572",
  "linkReferences": {},
  "deployedLinkReferences": {}
}