{
  "_format": "hh-sol-artifact-1",
  "contractName": "Opinion",
  "sourceName": "contracts/Opinion.sol",
  "abi": [
    {
      "inputs": [
        {
          "internalType": "address",
          "name": "claimContractAddress",
          "type": "address"
        }
      ],
      "stateMutability": "nonpayable",
      "type": "constructor"
    },
    {
      "anonymous": false,
      "inputs": [
        {
          "indexed": true,
          "internalType": "address",
          "name": "owner",
          "type": "address"
        },
        {
          "indexed": true,
          "internalType": "address",
          "name": "approved",
          "type": "address"
        },
        {
          "indexed": true,
          "internalType": "uint256",
          "name": "tokenId",
          "type": "uint256"
        }
      ],
      "name": "Approval",
      "type": "event"
    },
    {
      "anonymous": false,
      "inputs": [
        {
          "indexed": true,
          "internalType": "address",
          "name": "owner",
          "type": "address"
        },
        {
          "indexed": true,
          "internalType": "address",
          "name": "operator",
          "type": "address"
        },
        {
          "indexed": false,
          "internalType": "bool",
          "name": "approved",
          "type": "bool"
        }
      ],
      "name": "ApprovalForAll",
      "type": "event"
    },
    {
      "anonymous": false,
      "inputs": [
        {
          "indexed": true,
          "internalType": "address",
          "name": "from",
          "type": "address"
        },
        {
          "indexed": true,
          "internalType": "address",
          "name": "to",
          "type": "address"
        },
        {
          "indexed": true,
          "internalType": "uint256",
          "name": "tokenId",
          "type": "uint256"
        }
      ],
      "name": "Transfer",
      "type": "event"
    },
    {
      "inputs": [
        {
          "internalType": "address",
          "name": "to",
          "type": "address"
        },
        {
          "internalType": "uint256",
          "name": "tokenId",
          "type": "uint256"
        }
      ],
      "name": "approve",
      "outputs": [],
      "stateMutability": "nonpayable",
      "type": "function"
    },
    {
      "inputs": [
        {
          "internalType": "uint256",
          "name": "tokenId",
          "type": "uint256"
        }
      ],
      "name": "argumentsOf",
      "outputs": [
        {
          "internalType": "uint256[]",
          "name": "",
          "type": "uint256[]"
        }
      ],
      "stateMutability": "view",
      "type": "function"
    },
    {
      "inputs": [
        {
          "internalType": "address",
          "name": "owner",
          "type": "address"
        }
      ],
      "name": "balanceOf",
      "outputs": [
        {
          "internalType": "uint256",
          "name": "",
          "type": "uint256"
        }
      ],
      "stateMutability": "view",
      "type": "function"
    },
    {
      "inputs": [
        {
          "internalType": "uint256",
          "name": "tokenId",
          "type": "uint256"
        }
      ],
      "name": "getApproved",
      "outputs": [
        {
          "internalType": "address",
          "name": "",
          "type": "address"
        }
      ],
      "stateMutability": "view",
      "type": "function"
    },
    {
      "inputs": [
        {
          "internalType": "address",
          "name": "owner",
          "type": "address"
        },
        {
          "internalType": "address",
          "name": "operator",
          "type": "address"
        }
      ],
      "name": "isApprovedForAll",
      "outputs": [
        {
          "internalType": "bool",
          "name": "",
          "type": "bool"
        }
      ],
      "stateMutability": "view",
      "type": "function"
    },
    {
      "inputs": [
        {
          "internalType": "string",
          "name": "metadataURI",
          "type": "string"
        },
        {
          "internalType": "uint256",
          "name": "tokenId",
          "type": "uint256"
        },
        {
          "internalType": "uint256[]",
          "name": "argumentIds",
          "type": "uint256[]"
        },
        {
          "internalType": "uint256",
          "name": "claimTokenId",
          "type": "uint256"
        }
      ],
      "name": "mintToken",
      "outputs": [],
      "stateMutability": "nonpayable",
      "type": "function"
    },
    {
      "inputs": [],
      "name": "name",
      "outputs": [
        {
          "internalType": "string",
          "name": "",
          "type": "string"
        }
      ],
      "stateMutability": "view",
      "type": "function"
    },
    {
      "inputs": [
        {
          "internalType": "uint256",
          "name": "tokenId",
          "type": "uint256"
        }
      ],
      "name": "ownerOf",
      "outputs": [
        {
          "internalType": "address",
          "name": "",
          "type": "address"
        }
      ],
      "stateMutability": "view",
      "type": "function"
    },
    {
      "inputs": [
        {
          "internalType": "address",
          "name": "from",
          "type": "address"
        },
        {
          "internalType": "address",
          "name": "to",
          "type": "address"
        },
        {
          "internalType": "uint256",
          "name": "tokenId",
          "type": "uint256"
        }
      ],
      "name": "safeTransferFrom",
      "outputs": [],
      "stateMutability": "nonpayable",
      "type": "function"
    },
    {
      "inputs": [
        {
          "internalType": "address",
          "name": "from",
          "type": "address"
        },
        {
          "internalType": "address",
          "name": "to",
          "type": "address"
        },
        {
          "internalType": "uint256",
          "name": "tokenId",
          "type": "uint256"
        },
        {
          "internalType": "bytes",
          "name": "_data",
          "type": "bytes"
        }
      ],
      "name": "safeTransferFrom",
      "outputs": [],
      "stateMutability": "nonpayable",
      "type": "function"
    },
    {
      "inputs": [
        {
          "internalType": "address",
          "name": "operator",
          "type": "address"
        },
        {
          "internalType": "bool",
          "name": "approved",
          "type": "bool"
        }
      ],
      "name": "setApprovalForAll",
      "outputs": [],
      "stateMutability": "nonpayable",
      "type": "function"
    },
    {
      "inputs": [
        {
          "internalType": "uint256",
          "name": "tokenId",
          "type": "uint256"
        },
        {
          "internalType": "string",
          "name": "metadataURI",
          "type": "string"
        },
        {
          "internalType": "uint256[]",
          "name": "argumentIds",
          "type": "uint256[]"
        }
      ],
      "name": "setTokenURI",
      "outputs": [],
      "stateMutability": "nonpayable",
      "type": "function"
    },
    {
      "inputs": [
        {
          "internalType": "bytes4",
          "name": "interfaceId",
          "type": "bytes4"
        }
      ],
      "name": "supportsInterface",
      "outputs": [
        {
          "internalType": "bool",
          "name": "",
          "type": "bool"
        }
      ],
      "stateMutability": "view",
      "type": "function"
    },
    {
      "inputs": [],
      "name": "symbol",
      "outputs": [
        {
          "internalType": "string",
          "name": "",
          "type": "string"
        }
      ],
      "stateMutability": "view",
      "type": "function"
    },
    {
      "inputs": [
        {
          "internalType": "uint256",
          "name": "tokenId",
          "type": "uint256"
        }
      ],
      "name": "tokenURI",
      "outputs": [
        {
          "internalType": "string",
          "name": "",
          "type": "string"
        }
      ],
      "stateMutability": "view",
      "type": "function"
    },
    {
      "inputs": [
        {
          "internalType": "address",
          "name": "from",
          "type": "address"
        },
        {
          "internalType": "address",
          "name": "to",
          "type": "address"
        },
        {
          "internalType": "uint256",
          "name": "tokenId",
          "type": "uint256"
        }
      ],
      "name": "transferFrom",
      "outputs": [],
      "stateMutability": "nonpayable",
      "type": "function"
    }
  ],
  "bytecode": "0x60806040523480156200001157600080fd5b5060405162001f4538038062001f45833981016040819052620000349162000194565b604080518082018252601681527f4672616374616c20466c6f7773204f70696e696f6e730000000000000000000060208083019182528351808501909452600384527f46464f0000000000000000000000000000000000000000000000000000000000908401528151919291620000ae91600091620000ee565b508051620000c4906001906020840190620000ee565b5050600780546001600160a01b0319166001600160a01b039390931692909217909155506200021c565b828054620000fc90620001c6565b90600052602060002090601f0160209004810192826200012057600085556200016b565b82601f106200013b57805160ff19168380011785556200016b565b828001600101855582156200016b579182015b828111156200016b5782518255916020019190600101906200014e565b50620001799291506200017d565b5090565b5b808211156200017957600081556001016200017e565b600060208284031215620001a757600080fd5b81516001600160a01b0381168114620001bf57600080fd5b9392505050565b600181811c90821680620001db57607f821691505b6020821081141562000216577f4e487b7100000000000000000000000000000000000000000000000000000000600052602260045260246000fd5b50919050565b611d19806200022c6000396000f3fe608060405234801561001057600080fd5b50600436106101005760003560e01c80636352211e11610097578063b64255bc11610066578063b64255bc1461022a578063b88d4fde1461023d578063c87b56dd14610250578063e985e9c51461026357600080fd5b80636352211e146101db57806370a08231146101ee57806395d89b411461020f578063a22cb4651461021757600080fd5b8063081812fc116100d3578063081812fc14610177578063095ea7b3146101a257806323b872dd146101b557806342842e0e146101c857600080fd5b806301ffc9a7146101055780630642836b1461012d57806306d6732e1461014257806306fdde0314610162575b600080fd5b6101186101133660046115b4565b61029f565b60405190151581526020015b60405180910390f35b61014061013b366004611710565b6102f1565b005b610155610150366004611785565b6103a0565b604051610124919061179e565b61016a610402565b604051610124919061183a565b61018a610185366004611785565b610494565b6040516001600160a01b039091168152602001610124565b6101406101b0366004611869565b610521565b6101406101c3366004611893565b610637565b6101406101d6366004611893565b610668565b61018a6101e9366004611785565b610683565b6102016101fc3660046118cf565b6106fa565b604051908152602001610124565b61016a610781565b6101406102253660046118ea565b610790565b610140610238366004611926565b61079f565b61014061024b366004611993565b610858565b61016a61025e366004611785565b610890565b610118610271366004611a0f565b6001600160a01b03918216600090815260056020908152604080832093909416825291909152205460ff1690565b60006001600160e01b031982166380ac58cd60e01b14806102d057506001600160e01b03198216635b5e139f60e01b145b806102eb57506301ffc9a760e01b6001600160e01b03198316145b92915050565b6102fb8183610a16565b6103053384610b4b565b61030f8385610b65565b6000838152600860209081526040909120835161032e928501906114c8565b506007546040516301972f7b60e71b815260048101839052602481018590523360448201526001600160a01b039091169063cb97bd8090606401600060405180830381600087803b15801561038257600080fd5b505af1158015610396573d6000803e3d6000fd5b5050505050505050565b6000818152600860209081526040918290208054835181840281018401909452808452606093928301828280156103f657602002820191906000526020600020905b8154815260200190600101908083116103e2575b50505050509050919050565b60606000805461041190611a42565b80601f016020809104026020016040519081016040528092919081815260200182805461043d90611a42565b801561048a5780601f1061045f5761010080835404028352916020019161048a565b820191906000526020600020905b81548152906001019060200180831161046d57829003601f168201915b5050505050905090565b600061049f82610bf0565b6105055760405162461bcd60e51b815260206004820152602c60248201527f4552433732313a20617070726f76656420717565727920666f72206e6f6e657860448201526b34b9ba32b73a103a37b5b2b760a11b60648201526084015b60405180910390fd5b506000908152600460205260409020546001600160a01b031690565b600061052c82610683565b9050806001600160a01b0316836001600160a01b0316141561059a5760405162461bcd60e51b815260206004820152602160248201527f4552433732313a20617070726f76616c20746f2063757272656e74206f776e656044820152603960f91b60648201526084016104fc565b336001600160a01b03821614806105b657506105b68133610271565b6106285760405162461bcd60e51b815260206004820152603860248201527f4552433732313a20617070726f76652063616c6c6572206973206e6f74206f7760448201527f6e6572206e6f7220617070726f76656420666f7220616c6c000000000000000060648201526084016104fc565b6106328383610c0d565b505050565b6106413382610c7b565b61065d5760405162461bcd60e51b81526004016104fc90611a7d565b610632838383610d64565b61063283838360405180602001604052806000815250610858565b6000818152600260205260408120546001600160a01b0316806102eb5760405162461bcd60e51b815260206004820152602960248201527f4552433732313a206f776e657220717565727920666f72206e6f6e657869737460448201526832b73a103a37b5b2b760b91b60648201526084016104fc565b60006001600160a01b0382166107655760405162461bcd60e51b815260206004820152602a60248201527f4552433732313a2062616c616e636520717565727920666f7220746865207a65604482015269726f206164647265737360b01b60648201526084016104fc565b506001600160a01b031660009081526003602052604090205490565b60606001805461041190611a42565b61079b338383610f0b565b5050565b6007546040516304619d5960e41b8152600481018590526000916001600160a01b031690634619d5909060240160206040518083038186803b1580156107e457600080fd5b505afa1580156107f8573d6000803e3d6000fd5b505050506040513d601f19601f8201168201806040525081019061081c9190611ace565b90506108288183610a16565b6108328484610b65565b60008481526008602090815260409091208351610851928501906114c8565b5050505050565b6108623383610c7b565b61087e5760405162461bcd60e51b81526004016104fc90611a7d565b61088a84848484610fda565b50505050565b606061089b82610bf0565b6109015760405162461bcd60e51b815260206004820152603160248201527f45524337323155524953746f726167653a2055524920717565727920666f72206044820152703737b732bc34b9ba32b73a103a37b5b2b760791b60648201526084016104fc565b6000828152600660205260408120805461091a90611a42565b80601f016020809104026020016040519081016040528092919081815260200182805461094690611a42565b80156109935780601f1061096857610100808354040283529160200191610993565b820191906000526020600020905b81548152906001019060200180831161097657829003601f168201915b5050505050905060006109c0604080518082019091526007815266697066733a2f2f60c81b602082015290565b90508051600014156109d3575092915050565b815115610a055780826040516020016109ed929190611ae7565b60405160208183030381529060405292505050919050565b610a0e8461100d565b949350505050565b60005b81518110156106325760075482516001600160a01b039091169063724686c1908590859085908110610a4d57610a4d611b16565b60200260200101516040518363ffffffff1660e01b8152600401610a7b929190918252602082015260400190565b60206040518083038186803b158015610a9357600080fd5b505afa158015610aa7573d6000803e3d6000fd5b505050506040513d601f19601f82011682018060405250810190610acb9190611ace565b60001415610af1838381518110610ae457610ae4611b16565b60200260200101516110f4565b610afa856110f4565b604051602001610b0b929190611b2c565b60405160208183030381529060405290610b385760405162461bcd60e51b81526004016104fc919061183a565b5080610b4381611baf565b915050610a19565b61079b8282604051806020016040528060008152506111f2565b610b6e82610bf0565b610bd15760405162461bcd60e51b815260206004820152602e60248201527f45524337323155524953746f726167653a2055524920736574206f66206e6f6e60448201526d32bc34b9ba32b73a103a37b5b2b760911b60648201526084016104fc565b6000828152600660209081526040909120825161063292840190611513565b6000908152600260205260409020546001600160a01b0316151590565b600081815260046020526040902080546001600160a01b0319166001600160a01b0384169081179091558190610c4282610683565b6001600160a01b03167f8c5be1e5ebec7d5bd14f71427d1e84f3dd0314c0f7b2291e5b200ac8c7c3b92560405160405180910390a45050565b6000610c8682610bf0565b610ce75760405162461bcd60e51b815260206004820152602c60248201527f4552433732313a206f70657261746f7220717565727920666f72206e6f6e657860448201526b34b9ba32b73a103a37b5b2b760a11b60648201526084016104fc565b6000610cf283610683565b9050806001600160a01b0316846001600160a01b03161480610d3957506001600160a01b0380821660009081526005602090815260408083209388168352929052205460ff165b80610a0e5750836001600160a01b0316610d5284610494565b6001600160a01b031614949350505050565b826001600160a01b0316610d7782610683565b6001600160a01b031614610ddb5760405162461bcd60e51b815260206004820152602560248201527f4552433732313a207472616e736665722066726f6d20696e636f72726563742060448201526437bbb732b960d91b60648201526084016104fc565b6001600160a01b038216610e3d5760405162461bcd60e51b8152602060048201526024808201527f4552433732313a207472616e7366657220746f20746865207a65726f206164646044820152637265737360e01b60648201526084016104fc565b610e48838383611225565b610e53600082610c0d565b6001600160a01b0383166000908152600360205260408120805460019290610e7c908490611bca565b90915550506001600160a01b0382166000908152600360205260408120805460019290610eaa908490611be1565b909155505060008181526002602052604080822080546001600160a01b0319166001600160a01b0386811691821790925591518493918716917fddf252ad1be2c89b69c2b068fc378daa952ba7f163c4a11628f55a4df523b3ef91a4505050565b816001600160a01b0316836001600160a01b03161415610f6d5760405162461bcd60e51b815260206004820152601960248201527f4552433732313a20617070726f766520746f2063616c6c65720000000000000060448201526064016104fc565b6001600160a01b03838116600081815260056020908152604080832094871680845294825291829020805460ff191686151590811790915591519182527f17307eab39ab6107e8899845ad3d59bd9653f200f220920489ca2b5937696c31910160405180910390a3505050565b610fe5848484610d64565b610ff18484848461127c565b61088a5760405162461bcd60e51b81526004016104fc90611bf9565b606061101882610bf0565b61107c5760405162461bcd60e51b815260206004820152602f60248201527f4552433732314d657461646174613a2055524920717565727920666f72206e6f60448201526e3732bc34b9ba32b73a103a37b5b2b760891b60648201526084016104fc565b60006110a2604080518082019091526007815266697066733a2f2f60c81b602082015290565b905060008151116110c257604051806020016040528060008152506110ed565b806110cc846110f4565b6040516020016110dd929190611ae7565b6040516020818303038152906040525b9392505050565b6060816111185750506040805180820190915260018152600360fc1b602082015290565b8160005b8115611142578061112c81611baf565b915061113b9050600a83611c61565b915061111c565b60008167ffffffffffffffff81111561115d5761115d6115d1565b6040519080825280601f01601f191660200182016040528015611187576020820181803683370190505b5090505b8415610a0e5761119c600183611bca565b91506111a9600a86611c75565b6111b4906030611be1565b60f81b8183815181106111c9576111c9611b16565b60200101906001600160f81b031916908160001a9053506111eb600a86611c61565b945061118b565b6111fc8383611389565b611209600084848461127c565b6106325760405162461bcd60e51b81526004016104fc90611bf9565b6001600160a01b038316156106325760405162461bcd60e51b815260206004820152601960248201527f546f6b656e207472616e7366657220697320626c6f636b65640000000000000060448201526064016104fc565b60006001600160a01b0384163b1561137e57604051630a85bd0160e11b81526001600160a01b0385169063150b7a02906112c0903390899088908890600401611c89565b602060405180830381600087803b1580156112da57600080fd5b505af192505050801561130a575060408051601f3d908101601f1916820190925261130791810190611cc6565b60015b611364573d808015611338576040519150601f19603f3d011682016040523d82523d6000602084013e61133d565b606091505b50805161135c5760405162461bcd60e51b81526004016104fc90611bf9565b805181602001fd5b6001600160e01b031916630a85bd0160e11b149050610a0e565b506001949350505050565b6001600160a01b0382166113df5760405162461bcd60e51b815260206004820181905260248201527f4552433732313a206d696e7420746f20746865207a65726f206164647265737360448201526064016104fc565b6113e881610bf0565b156114355760405162461bcd60e51b815260206004820152601c60248201527f4552433732313a20746f6b656e20616c7265616479206d696e7465640000000060448201526064016104fc565b61144160008383611225565b6001600160a01b038216600090815260036020526040812080546001929061146a908490611be1565b909155505060008181526002602052604080822080546001600160a01b0319166001600160a01b03861690811790915590518392907fddf252ad1be2c89b69c2b068fc378daa952ba7f163c4a11628f55a4df523b3ef908290a45050565b828054828255906000526020600020908101928215611503579160200282015b828111156115035782518255916020019190600101906114e8565b5061150f929150611586565b5090565b82805461151f90611a42565b90600052602060002090601f0160209004810192826115415760008555611503565b82601f1061155a57805160ff1916838001178555611503565b8280016001018555821561150357918201828111156115035782518255916020019190600101906114e8565b5b8082111561150f5760008155600101611587565b6001600160e01b0319811681146115b157600080fd5b50565b6000602082840312156115c657600080fd5b81356110ed8161159b565b634e487b7160e01b600052604160045260246000fd5b604051601f8201601f1916810167ffffffffffffffff81118282101715611610576116106115d1565b604052919050565b600067ffffffffffffffff831115611632576116326115d1565b611645601f8401601f19166020016115e7565b905082815283838301111561165957600080fd5b828260208301376000602084830101529392505050565b600082601f83011261168157600080fd5b6110ed83833560208501611618565b600082601f8301126116a157600080fd5b8135602067ffffffffffffffff8211156116bd576116bd6115d1565b8160051b6116cc8282016115e7565b92835284810182019282810190878511156116e657600080fd5b83870192505b84831015611705578235825291830191908301906116ec565b979650505050505050565b6000806000806080858703121561172657600080fd5b843567ffffffffffffffff8082111561173e57600080fd5b61174a88838901611670565b955060208701359450604087013591508082111561176757600080fd5b5061177487828801611690565b949793965093946060013593505050565b60006020828403121561179757600080fd5b5035919050565b6020808252825182820181905260009190848201906040850190845b818110156117d6578351835292840192918401916001016117ba565b50909695505050505050565b60005b838110156117fd5781810151838201526020016117e5565b8381111561088a5750506000910152565b600081518084526118268160208601602086016117e2565b601f01601f19169290920160200192915050565b6020815260006110ed602083018461180e565b80356001600160a01b038116811461186457600080fd5b919050565b6000806040838503121561187c57600080fd5b6118858361184d565b946020939093013593505050565b6000806000606084860312156118a857600080fd5b6118b18461184d565b92506118bf6020850161184d565b9150604084013590509250925092565b6000602082840312156118e157600080fd5b6110ed8261184d565b600080604083850312156118fd57600080fd5b6119068361184d565b91506020830135801515811461191b57600080fd5b809150509250929050565b60008060006060848603121561193b57600080fd5b83359250602084013567ffffffffffffffff8082111561195a57600080fd5b61196687838801611670565b9350604086013591508082111561197c57600080fd5b5061198986828701611690565b9150509250925092565b600080600080608085870312156119a957600080fd5b6119b28561184d565b93506119c06020860161184d565b925060408501359150606085013567ffffffffffffffff8111156119e357600080fd5b8501601f810187136119f457600080fd5b611a0387823560208401611618565b91505092959194509250565b60008060408385031215611a2257600080fd5b611a2b8361184d565b9150611a396020840161184d565b90509250929050565b600181811c90821680611a5657607f821691505b60208210811415611a7757634e487b7160e01b600052602260045260246000fd5b50919050565b60208082526031908201527f4552433732313a207472616e736665722063616c6c6572206973206e6f74206f6040820152701ddb995c881b9bdc88185c1c1c9bdd9959607a1b606082015260800190565b600060208284031215611ae057600080fd5b5051919050565b60008351611af98184602088016117e2565b835190830190611b0d8183602088016117e2565b01949350505050565b634e487b7160e01b600052603260045260246000fd5b68020b933bab6b2b73a160bd1b815260008351611b508160098501602088016117e2565b7f20646f65736e27742062656c6f6e6720746f20636c61696d20000000000000006009918401918201528351611b8d8160228401602088016117e2565b01602201949350505050565b634e487b7160e01b600052601160045260246000fd5b6000600019821415611bc357611bc3611b99565b5060010190565b600082821015611bdc57611bdc611b99565b500390565b60008219821115611bf457611bf4611b99565b500190565b60208082526032908201527f4552433732313a207472616e7366657220746f206e6f6e20455243373231526560408201527131b2b4bb32b91034b6b83632b6b2b73a32b960711b606082015260800190565b634e487b7160e01b600052601260045260246000fd5b600082611c7057611c70611c4b565b500490565b600082611c8457611c84611c4b565b500690565b6001600160a01b0385811682528416602082015260408101839052608060608201819052600090611cbc9083018461180e565b9695505050505050565b600060208284031215611cd857600080fd5b81516110ed8161159b56fea26469706673582212203df38e7a5e62a9de5bd07dadd3fedf33da69d63de938f54a42c4bb9acceda86a64736f6c63430008090033",
  "linkReferences": {},
  "deployedLinkReferences": {}
}